{
  "_format": "hh-sol-artifact-1",
  "contractName": "VaultNFT",
  "sourceName": "contracts/VaultNFT.sol",
  "abi": [
    {
      "inputs": [
        {
          "internalType": "string",
          "name": "_name",
          "type": "string"
        },
        {
          "internalType": "string",
          "name": "_symbol",
          "type": "string"
        }
      ],
      "stateMutability": "nonpayable",
      "type": "constructor"
    },
    {
      "anonymous": false,
      "inputs": [
        {
          "indexed": true,
          "internalType": "address",
          "name": "owner",
          "type": "address"
        },
        {
          "indexed": true,
          "internalType": "address",
          "name": "spender",
          "type": "address"
        },
        {
          "indexed": true,
          "internalType": "uint256",
          "name": "id",
          "type": "uint256"
        }
      ],
      "name": "Approval",
      "type": "event"
    },
    {
      "anonymous": false,
      "inputs": [
        {
          "indexed": true,
          "internalType": "address",
          "name": "owner",
          "type": "address"
        },
        {
          "indexed": true,
          "internalType": "address",
          "name": "operator",
          "type": "address"
        },
        {
          "indexed": false,
          "internalType": "bool",
          "name": "approved",
          "type": "bool"
        }
      ],
      "name": "ApprovalForAll",
      "type": "event"
    },
    {
      "anonymous": false,
      "inputs": [
        {
          "indexed": true,
          "internalType": "address",
          "name": "user",
          "type": "address"
        },
        {
          "indexed": true,
          "internalType": "address",
          "name": "newOwner",
          "type": "address"
        }
      ],
      "name": "OwnershipTransferred",
      "type": "event"
    },
    {
      "anonymous": false,
      "inputs": [
        {
          "indexed": true,
          "internalType": "address",
          "name": "from",
          "type": "address"
        },
        {
          "indexed": true,
          "internalType": "address",
          "name": "to",
          "type": "address"
        },
        {
          "indexed": true,
          "internalType": "uint256",
          "name": "id",
          "type": "uint256"
        }
      ],
      "name": "Transfer",
      "type": "event"
    },
    {
      "inputs": [
        {
          "internalType": "address",
          "name": "spender",
          "type": "address"
        },
        {
          "internalType": "uint256",
          "name": "id",
          "type": "uint256"
        }
      ],
      "name": "approve",
      "outputs": [],
      "stateMutability": "nonpayable",
      "type": "function"
    },
    {
      "inputs": [
        {
          "internalType": "address",
          "name": "owner",
          "type": "address"
        }
      ],
      "name": "balanceOf",
      "outputs": [
        {
          "internalType": "uint256",
          "name": "",
          "type": "uint256"
        }
      ],
      "stateMutability": "view",
      "type": "function"
    },
    {
      "inputs": [
        {
          "internalType": "uint256",
          "name": "",
          "type": "uint256"
        }
      ],
      "name": "getApproved",
      "outputs": [
        {
          "internalType": "address",
          "name": "",
          "type": "address"
        }
      ],
      "stateMutability": "view",
      "type": "function"
    },
    {
      "inputs": [
        {
          "internalType": "address",
          "name": "",
          "type": "address"
        },
        {
          "internalType": "address",
          "name": "",
          "type": "address"
        }
      ],
      "name": "isApprovedForAll",
      "outputs": [
        {
          "internalType": "bool",
          "name": "",
          "type": "bool"
        }
      ],
      "stateMutability": "view",
      "type": "function"
    },
    {
      "inputs": [
        {
          "internalType": "address",
          "name": "ownerAddr",
          "type": "address"
        },
        {
          "internalType": "string",
          "name": "_tokenURI",
          "type": "string"
        }
      ],
      "name": "mint",
      "outputs": [
        {
          "internalType": "uint256",
          "name": "",
          "type": "uint256"
        }
      ],
      "stateMutability": "nonpayable",
      "type": "function"
    },
    {
      "inputs": [],
      "name": "name",
      "outputs": [
        {
          "internalType": "string",
          "name": "",
          "type": "string"
        }
      ],
      "stateMutability": "view",
      "type": "function"
    },
    {
      "inputs": [],
      "name": "owner",
      "outputs": [
        {
          "internalType": "address",
          "name": "",
          "type": "address"
        }
      ],
      "stateMutability": "view",
      "type": "function"
    },
    {
      "inputs": [
        {
          "internalType": "uint256",
          "name": "id",
          "type": "uint256"
        }
      ],
      "name": "ownerOf",
      "outputs": [
        {
          "internalType": "address",
          "name": "owner",
          "type": "address"
        }
      ],
      "stateMutability": "view",
      "type": "function"
    },
    {
      "inputs": [
        {
          "internalType": "address",
          "name": "from",
          "type": "address"
        },
        {
          "internalType": "address",
          "name": "to",
          "type": "address"
        },
        {
          "internalType": "uint256",
          "name": "id",
          "type": "uint256"
        }
      ],
      "name": "safeTransferFrom",
      "outputs": [],
      "stateMutability": "nonpayable",
      "type": "function"
    },
    {
      "inputs": [
        {
          "internalType": "address",
          "name": "from",
          "type": "address"
        },
        {
          "internalType": "address",
          "name": "to",
          "type": "address"
        },
        {
          "internalType": "uint256",
          "name": "id",
          "type": "uint256"
        },
        {
          "internalType": "bytes",
          "name": "data",
          "type": "bytes"
        }
      ],
      "name": "safeTransferFrom",
      "outputs": [],
      "stateMutability": "nonpayable",
      "type": "function"
    },
    {
      "inputs": [
        {
          "internalType": "address",
          "name": "operator",
          "type": "address"
        },
        {
          "internalType": "bool",
          "name": "approved",
          "type": "bool"
        }
      ],
      "name": "setApprovalForAll",
      "outputs": [],
      "stateMutability": "nonpayable",
      "type": "function"
    },
    {
      "inputs": [
        {
          "internalType": "uint256",
          "name": "id",
          "type": "uint256"
        },
        {
          "internalType": "string",
          "name": "_tokenURI",
          "type": "string"
        }
      ],
      "name": "setTokenURI",
      "outputs": [],
      "stateMutability": "nonpayable",
      "type": "function"
    },
    {
      "inputs": [
        {
          "internalType": "bytes4",
          "name": "interfaceId",
          "type": "bytes4"
        }
      ],
      "name": "supportsInterface",
      "outputs": [
        {
          "internalType": "bool",
          "name": "",
          "type": "bool"
        }
      ],
      "stateMutability": "view",
      "type": "function"
    },
    {
      "inputs": [],
      "name": "symbol",
      "outputs": [
        {
          "internalType": "string",
          "name": "",
          "type": "string"
        }
      ],
      "stateMutability": "view",
      "type": "function"
    },
    {
      "inputs": [],
      "name": "tokenNumber",
      "outputs": [
        {
          "internalType": "uint256",
          "name": "",
          "type": "uint256"
        }
      ],
      "stateMutability": "view",
      "type": "function"
    },
    {
      "inputs": [
        {
          "internalType": "uint256",
          "name": "id",
          "type": "uint256"
        }
      ],
      "name": "tokenURI",
      "outputs": [
        {
          "internalType": "string",
          "name": "",
          "type": "string"
        }
      ],
      "stateMutability": "view",
      "type": "function"
    },
    {
      "inputs": [
        {
          "internalType": "address",
          "name": "from",
          "type": "address"
        },
        {
          "internalType": "address",
          "name": "to",
          "type": "address"
        },
        {
          "internalType": "uint256",
          "name": "id",
          "type": "uint256"
        }
      ],
      "name": "transferFrom",
      "outputs": [],
      "stateMutability": "nonpayable",
      "type": "function"
    },
    {
      "inputs": [
        {
          "internalType": "address",
          "name": "newOwner",
          "type": "address"
        }
      ],
      "name": "transferOwnership",
      "outputs": [],
      "stateMutability": "nonpayable",
      "type": "function"
    }
  ],
  "bytecode": "0x60806040523480156200001157600080fd5b5060405162002b1938038062002b19833981810160405281019062000037919062000298565b33828281600090816200004b919062000568565b5080600190816200005d919062000568565b50505080600660006101000a81548173ffffffffffffffffffffffffffffffffffffffff021916908373ffffffffffffffffffffffffffffffffffffffff1602179055508073ffffffffffffffffffffffffffffffffffffffff16600073ffffffffffffffffffffffffffffffffffffffff167f8be0079c531659141344cd1fd0a4f28419497f9722a3daafe3b4186f6b6457e060405160405180910390a35050506200064f565b6000604051905090565b600080fd5b600080fd5b600080fd5b600080fd5b6000601f19601f8301169050919050565b7f4e487b7100000000000000000000000000000000000000000000000000000000600052604160045260246000fd5b6200016e8262000123565b810181811067ffffffffffffffff8211171562000190576200018f62000134565b5b80604052505050565b6000620001a562000105565b9050620001b3828262000163565b919050565b600067ffffffffffffffff821115620001d657620001d562000134565b5b620001e18262000123565b9050602081019050919050565b60005b838110156200020e578082015181840152602081019050620001f1565b60008484015250505050565b6000620002316200022b84620001b8565b62000199565b90508281526020810184848401111562000250576200024f6200011e565b5b6200025d848285620001ee565b509392505050565b600082601f8301126200027d576200027c62000119565b5b81516200028f8482602086016200021a565b91505092915050565b60008060408385031215620002b257620002b16200010f565b5b600083015167ffffffffffffffff811115620002d357620002d262000114565b5b620002e18582860162000265565b925050602083015167ffffffffffffffff81111562000305576200030462000114565b5b620003138582860162000265565b9150509250929050565b600081519050919050565b7f4e487b7100000000000000000000000000000000000000000000000000000000600052602260045260246000fd5b600060028204905060018216806200037057607f821691505b60208210810362000386576200038562000328565b5b50919050565b60008190508160005260206000209050919050565b60006020601f8301049050919050565b600082821b905092915050565b600060088302620003f07fffffffffffffffffffffffffffffffffffffffffffffffffffffffffffffffff82620003b1565b620003fc8683620003b1565b95508019841693508086168417925050509392505050565b6000819050919050565b6000819050919050565b600062000449620004436200043d8462000414565b6200041e565b62000414565b9050919050565b6000819050919050565b620004658362000428565b6200047d620004748262000450565b848454620003be565b825550505050565b600090565b6200049462000485565b620004a18184846200045a565b505050565b5b81811015620004c957620004bd6000826200048a565b600181019050620004a7565b5050565b601f8211156200051857620004e2816200038c565b620004ed84620003a1565b81016020851015620004fd578190505b620005156200050c85620003a1565b830182620004a6565b50505b505050565b600082821c905092915050565b60006200053d600019846008026200051d565b1980831691505092915050565b60006200055883836200052a565b9150826002028217905092915050565b62000573826200031d565b67ffffffffffffffff8111156200058f576200058e62000134565b5b6200059b825462000357565b620005a8828285620004cd565b600060209050601f831160018114620005e05760008415620005cb578287015190505b620005d785826200054a565b86555062000647565b601f198416620005f0866200038c565b60005b828110156200061a57848901518255600182019150602085019450602081019050620005f3565b868310156200063a578489015162000636601f8916826200052a565b8355505b6001600288020188555050505b505050505050565b6124ba806200065f6000396000f3fe608060405234801561001057600080fd5b50600436106101165760003560e01c80638da5cb5b116100a2578063c87b56dd11610071578063c87b56dd146102dd578063d0def5211461030d578063e985e9c51461033d578063f282a8e11461036d578063f2fde38b1461038b57610116565b80638da5cb5b1461026957806395d89b4114610287578063a22cb465146102a5578063b88d4fde146102c157610116565b8063162094c4116100e9578063162094c4146101b557806323b872dd146101d157806342842e0e146101ed5780636352211e1461020957806370a082311461023957610116565b806301ffc9a71461011b57806306fdde031461014b578063081812fc14610169578063095ea7b314610199575b600080fd5b6101356004803603810190610130919061169d565b6103a7565b60405161014291906116e5565b60405180910390f35b610153610439565b6040516101609190611790565b60405180910390f35b610183600480360381019061017e91906117e8565b6104c7565b6040516101909190611856565b60405180910390f35b6101b360048036038101906101ae919061189d565b6104fa565b005b6101cf60048036038101906101ca9190611a12565b6106e3565b005b6101eb60048036038101906101e69190611a6e565b610798565b005b61020760048036038101906102029190611a6e565b610b97565b005b610223600480360381019061021e91906117e8565b610ccf565b6040516102309190611856565b60405180910390f35b610253600480360381019061024e9190611ac1565b610d7a565b6040516102609190611afd565b60405180910390f35b610271610e31565b60405161027e9190611856565b60405180910390f35b61028f610e57565b60405161029c9190611790565b60405180910390f35b6102bf60048036038101906102ba9190611b44565b610ee5565b005b6102db60048036038101906102d69190611be4565b610fe2565b005b6102f760048036038101906102f291906117e8565b611120565b6040516103049190611790565b60405180910390f35b61032760048036038101906103229190611c6c565b6111c5565b6040516103349190611afd565b60405180910390f35b61035760048036038101906103529190611cc8565b61128d565b60405161036491906116e5565b60405180910390f35b6103756112bc565b6040516103829190611afd565b60405180910390f35b6103a560048036038101906103a09190611ac1565b6112cd565b005b60006301ffc9a760e01b827bffffffffffffffffffffffffffffffffffffffffffffffffffffffff1916148061040257506380ac58cd60e01b827bffffffffffffffffffffffffffffffffffffffffffffffffffffffff1916145b806104325750635b5e139f60e01b827bffffffffffffffffffffffffffffffffffffffffffffffffffffffff1916145b9050919050565b6000805461044690611d37565b80601f016020809104026020016040519081016040528092919081815260200182805461047290611d37565b80156104bf5780601f10610494576101008083540402835291602001916104bf565b820191906000526020600020905b8154815290600101906020018083116104a257829003601f168201915b505050505081565b60046020528060005260406000206000915054906101000a900473ffffffffffffffffffffffffffffffffffffffff1681565b60006002600083815260200190815260200160002060009054906101000a900473ffffffffffffffffffffffffffffffffffffffff1690508073ffffffffffffffffffffffffffffffffffffffff163373ffffffffffffffffffffffffffffffffffffffff1614806105f25750600560008273ffffffffffffffffffffffffffffffffffffffff1673ffffffffffffffffffffffffffffffffffffffff16815260200190815260200160002060003373ffffffffffffffffffffffffffffffffffffffff1673ffffffffffffffffffffffffffffffffffffffff16815260200190815260200160002060009054906101000a900460ff165b610631576040517f08c379a000000000000000000000000000000000000000000000000000000000815260040161062890611db4565b60405180910390fd5b826004600084815260200190815260200160002060006101000a81548173ffffffffffffffffffffffffffffffffffffffff021916908373ffffffffffffffffffffffffffffffffffffffff160217905550818373ffffffffffffffffffffffffffffffffffffffff168273ffffffffffffffffffffffffffffffffffffffff167f8c5be1e5ebec7d5bd14f71427d1e84f3dd0314c0f7b2291e5b200ac8c7c3b92560405160405180910390a4505050565b600660009054906101000a900473ffffffffffffffffffffffffffffffffffffffff1673ffffffffffffffffffffffffffffffffffffffff163373ffffffffffffffffffffffffffffffffffffffff1614610773576040517f08c379a000000000000000000000000000000000000000000000000000000000815260040161076a90611e20565b60405180910390fd5b806008600084815260200190815260200160002090816107939190611fec565b505050565b6002600082815260200190815260200160002060009054906101000a900473ffffffffffffffffffffffffffffffffffffffff1673ffffffffffffffffffffffffffffffffffffffff168373ffffffffffffffffffffffffffffffffffffffff1614610839576040517f08c379a00000000000000000000000000000000000000000000000000000000081526004016108309061210a565b60405180910390fd5b600073ffffffffffffffffffffffffffffffffffffffff168273ffffffffffffffffffffffffffffffffffffffff16036108a8576040517f08c379a000000000000000000000000000000000000000000000000000000000815260040161089f90612176565b60405180910390fd5b8273ffffffffffffffffffffffffffffffffffffffff163373ffffffffffffffffffffffffffffffffffffffff1614806109685750600560008473ffffffffffffffffffffffffffffffffffffffff1673ffffffffffffffffffffffffffffffffffffffff16815260200190815260200160002060003373ffffffffffffffffffffffffffffffffffffffff1673ffffffffffffffffffffffffffffffffffffffff16815260200190815260200160002060009054906101000a900460ff165b806109d157506004600082815260200190815260200160002060009054906101000a900473ffffffffffffffffffffffffffffffffffffffff1673ffffffffffffffffffffffffffffffffffffffff163373ffffffffffffffffffffffffffffffffffffffff16145b610a10576040517f08c379a0000000000000000000000000000000000000000000000000000000008152600401610a0790611db4565b60405180910390fd5b600360008473ffffffffffffffffffffffffffffffffffffffff1673ffffffffffffffffffffffffffffffffffffffff1681526020019081526020016000206000815480929190600190039190505550600360008373ffffffffffffffffffffffffffffffffffffffff1673ffffffffffffffffffffffffffffffffffffffff16815260200190815260200160002060008154809291906001019190505550816002600083815260200190815260200160002060006101000a81548173ffffffffffffffffffffffffffffffffffffffff021916908373ffffffffffffffffffffffffffffffffffffffff1602179055506004600082815260200190815260200160002060006101000a81549073ffffffffffffffffffffffffffffffffffffffff0219169055808273ffffffffffffffffffffffffffffffffffffffff168473ffffffffffffffffffffffffffffffffffffffff167fddf252ad1be2c89b69c2b068fc378daa952ba7f163c4a11628f55a4df523b3ef60405160405180910390a4505050565b610ba2838383610798565b60008273ffffffffffffffffffffffffffffffffffffffff163b1480610c8b575063150b7a0260e01b7bffffffffffffffffffffffffffffffffffffffffffffffffffffffff19168273ffffffffffffffffffffffffffffffffffffffff1663150b7a023386856040518463ffffffff1660e01b8152600401610c27939291906121cd565b6020604051808303816000875af1158015610c46573d6000803e3d6000fd5b505050506040513d601f19601f82011682018060405250810190610c6a919061222c565b7bffffffffffffffffffffffffffffffffffffffffffffffffffffffff1916145b610cca576040517f08c379a0000000000000000000000000000000000000000000000000000000008152600401610cc1906122a5565b60405180910390fd5b505050565b60008073ffffffffffffffffffffffffffffffffffffffff166002600084815260200190815260200160002060009054906101000a900473ffffffffffffffffffffffffffffffffffffffff1691508173ffffffffffffffffffffffffffffffffffffffff1603610d75576040517f08c379a0000000000000000000000000000000000000000000000000000000008152600401610d6c90612311565b60405180910390fd5b919050565b60008073ffffffffffffffffffffffffffffffffffffffff168273ffffffffffffffffffffffffffffffffffffffff1603610dea576040517f08c379a0000000000000000000000000000000000000000000000000000000008152600401610de19061237d565b60405180910390fd5b600360008373ffffffffffffffffffffffffffffffffffffffff1673ffffffffffffffffffffffffffffffffffffffff168152602001908152602001600020549050919050565b600660009054906101000a900473ffffffffffffffffffffffffffffffffffffffff1681565b60018054610e6490611d37565b80601f0160208091040260200160405190810160405280929190818152602001828054610e9090611d37565b8015610edd5780601f10610eb257610100808354040283529160200191610edd565b820191906000526020600020905b815481529060010190602001808311610ec057829003601f168201915b505050505081565b80600560003373ffffffffffffffffffffffffffffffffffffffff1673ffffffffffffffffffffffffffffffffffffffff16815260200190815260200160002060008473ffffffffffffffffffffffffffffffffffffffff1673ffffffffffffffffffffffffffffffffffffffff16815260200190815260200160002060006101000a81548160ff0219169083151502179055508173ffffffffffffffffffffffffffffffffffffffff163373ffffffffffffffffffffffffffffffffffffffff167f17307eab39ab6107e8899845ad3d59bd9653f200f220920489ca2b5937696c3183604051610fd691906116e5565b60405180910390a35050565b610fed858585610798565b60008473ffffffffffffffffffffffffffffffffffffffff163b14806110da575063150b7a0260e01b7bffffffffffffffffffffffffffffffffffffffffffffffffffffffff19168473ffffffffffffffffffffffffffffffffffffffff1663150b7a0233888787876040518663ffffffff1660e01b81526004016110769594939291906123ca565b6020604051808303816000875af1158015611095573d6000803e3d6000fd5b505050506040513d601f19601f820116820180604052508101906110b9919061222c565b7bffffffffffffffffffffffffffffffffffffffffffffffffffffffff1916145b611119576040517f08c379a0000000000000000000000000000000000000000000000000000000008152600401611110906122a5565b60405180910390fd5b5050505050565b606060086000838152602001908152602001600020805461114090611d37565b80601f016020809104026020016040519081016040528092919081815260200182805461116c90611d37565b80156111b95780601f1061118e576101008083540402835291602001916111b9565b820191906000526020600020905b81548152906001019060200180831161119c57829003601f168201915b50505050509050919050565b6000600660009054906101000a900473ffffffffffffffffffffffffffffffffffffffff1673ffffffffffffffffffffffffffffffffffffffff163373ffffffffffffffffffffffffffffffffffffffff1614611257576040517f08c379a000000000000000000000000000000000000000000000000000000000815260040161124e90611e20565b60405180910390fd5b600061126360076113fb565b905061126f8482611409565b61127981846106e3565b611283600761161b565b8091505092915050565b60056020528160005260406000206020528060005260406000206000915091509054906101000a900460ff1681565b60006112c860076113fb565b905090565b600660009054906101000a900473ffffffffffffffffffffffffffffffffffffffff1673ffffffffffffffffffffffffffffffffffffffff163373ffffffffffffffffffffffffffffffffffffffff161461135d576040517f08c379a000000000000000000000000000000000000000000000000000000000815260040161135490611e20565b60405180910390fd5b80600660006101000a81548173ffffffffffffffffffffffffffffffffffffffff021916908373ffffffffffffffffffffffffffffffffffffffff1602179055508073ffffffffffffffffffffffffffffffffffffffff163373ffffffffffffffffffffffffffffffffffffffff167f8be0079c531659141344cd1fd0a4f28419497f9722a3daafe3b4186f6b6457e060405160405180910390a350565b600081600001549050919050565b600073ffffffffffffffffffffffffffffffffffffffff168273ffffffffffffffffffffffffffffffffffffffff1603611478576040517f08c379a000000000000000000000000000000000000000000000000000000000815260040161146f90612176565b60405180910390fd5b600073ffffffffffffffffffffffffffffffffffffffff166002600083815260200190815260200160002060009054906101000a900473ffffffffffffffffffffffffffffffffffffffff1673ffffffffffffffffffffffffffffffffffffffff161461151a576040517f08c379a000000000000000000000000000000000000000000000000000000000815260040161151190612464565b60405180910390fd5b600360008373ffffffffffffffffffffffffffffffffffffffff1673ffffffffffffffffffffffffffffffffffffffff16815260200190815260200160002060008154809291906001019190505550816002600083815260200190815260200160002060006101000a81548173ffffffffffffffffffffffffffffffffffffffff021916908373ffffffffffffffffffffffffffffffffffffffff160217905550808273ffffffffffffffffffffffffffffffffffffffff16600073ffffffffffffffffffffffffffffffffffffffff167fddf252ad1be2c89b69c2b068fc378daa952ba7f163c4a11628f55a4df523b3ef60405160405180910390a45050565b6001816000016000828254019250508190555050565b6000604051905090565b600080fd5b600080fd5b60007fffffffff0000000000000000000000000000000000000000000000000000000082169050919050565b61167a81611645565b811461168557600080fd5b50565b60008135905061169781611671565b92915050565b6000602082840312156116b3576116b261163b565b5b60006116c184828501611688565b91505092915050565b60008115159050919050565b6116df816116ca565b82525050565b60006020820190506116fa60008301846116d6565b92915050565b600081519050919050565b600082825260208201905092915050565b60005b8381101561173a57808201518184015260208101905061171f565b60008484015250505050565b6000601f19601f8301169050919050565b600061176282611700565b61176c818561170b565b935061177c81856020860161171c565b61178581611746565b840191505092915050565b600060208201905081810360008301526117aa8184611757565b905092915050565b6000819050919050565b6117c5816117b2565b81146117d057600080fd5b50565b6000813590506117e2816117bc565b92915050565b6000602082840312156117fe576117fd61163b565b5b600061180c848285016117d3565b91505092915050565b600073ffffffffffffffffffffffffffffffffffffffff82169050919050565b600061184082611815565b9050919050565b61185081611835565b82525050565b600060208201905061186b6000830184611847565b92915050565b61187a81611835565b811461188557600080fd5b50565b60008135905061189781611871565b92915050565b600080604083850312156118b4576118b361163b565b5b60006118c285828601611888565b92505060206118d3858286016117d3565b9150509250929050565b600080fd5b600080fd5b7f4e487b7100000000000000000000000000000000000000000000000000000000600052604160045260246000fd5b61191f82611746565b810181811067ffffffffffffffff8211171561193e5761193d6118e7565b5b80604052505050565b6000611951611631565b905061195d8282611916565b919050565b600067ffffffffffffffff82111561197d5761197c6118e7565b5b61198682611746565b9050602081019050919050565b82818337600083830152505050565b60006119b56119b084611962565b611947565b9050828152602081018484840111156119d1576119d06118e2565b5b6119dc848285611993565b509392505050565b600082601f8301126119f9576119f86118dd565b5b8135611a098482602086016119a2565b91505092915050565b60008060408385031215611a2957611a2861163b565b5b6000611a37858286016117d3565b925050602083013567ffffffffffffffff811115611a5857611a57611640565b5b611a64858286016119e4565b9150509250929050565b600080600060608486031215611a8757611a8661163b565b5b6000611a9586828701611888565b9350506020611aa686828701611888565b9250506040611ab7868287016117d3565b9150509250925092565b600060208284031215611ad757611ad661163b565b5b6000611ae584828501611888565b91505092915050565b611af7816117b2565b82525050565b6000602082019050611b126000830184611aee565b92915050565b611b21816116ca565b8114611b2c57600080fd5b50565b600081359050611b3e81611b18565b92915050565b60008060408385031215611b5b57611b5a61163b565b5b6000611b6985828601611888565b9250506020611b7a85828601611b2f565b9150509250929050565b600080fd5b600080fd5b60008083601f840112611ba457611ba36118dd565b5b8235905067ffffffffffffffff811115611bc157611bc0611b84565b5b602083019150836001820283011115611bdd57611bdc611b89565b5b9250929050565b600080600080600060808688031215611c0057611bff61163b565b5b6000611c0e88828901611888565b9550506020611c1f88828901611888565b9450506040611c30888289016117d3565b935050606086013567ffffffffffffffff811115611c5157611c50611640565b5b611c5d88828901611b8e565b92509250509295509295909350565b60008060408385031215611c8357611c8261163b565b5b6000611c9185828601611888565b925050602083013567ffffffffffffffff811115611cb257611cb1611640565b5b611cbe858286016119e4565b9150509250929050565b60008060408385031215611cdf57611cde61163b565b5b6000611ced85828601611888565b9250506020611cfe85828601611888565b9150509250929050565b7f4e487b7100000000000000000000000000000000000000000000000000000000600052602260045260246000fd5b60006002820490506001821680611d4f57607f821691505b602082108103611d6257611d61611d08565b5b50919050565b7f4e4f545f415554484f52495a4544000000000000000000000000000000000000600082015250565b6000611d9e600e8361170b565b9150611da982611d68565b602082019050919050565b60006020820190508181036000830152611dcd81611d91565b9050919050565b7f554e415554484f52495a45440000000000000000000000000000000000000000600082015250565b6000611e0a600c8361170b565b9150611e1582611dd4565b602082019050919050565b60006020820190508181036000830152611e3981611dfd565b9050919050565b60008190508160005260206000209050919050565b60006020601f8301049050919050565b600082821b905092915050565b600060088302611ea27fffffffffffffffffffffffffffffffffffffffffffffffffffffffffffffffff82611e65565b611eac8683611e65565b95508019841693508086168417925050509392505050565b6000819050919050565b6000611ee9611ee4611edf846117b2565b611ec4565b6117b2565b9050919050565b6000819050919050565b611f0383611ece565b611f17611f0f82611ef0565b848454611e72565b825550505050565b600090565b611f2c611f1f565b611f37818484611efa565b505050565b5b81811015611f5b57611f50600082611f24565b600181019050611f3d565b5050565b601f821115611fa057611f7181611e40565b611f7a84611e55565b81016020851015611f89578190505b611f9d611f9585611e55565b830182611f3c565b50505b505050565b600082821c905092915050565b6000611fc360001984600802611fa5565b1980831691505092915050565b6000611fdc8383611fb2565b9150826002028217905092915050565b611ff582611700565b67ffffffffffffffff81111561200e5761200d6118e7565b5b6120188254611d37565b612023828285611f5f565b600060209050601f8311600181146120565760008415612044578287015190505b61204e8582611fd0565b8655506120b6565b601f19841661206486611e40565b60005b8281101561208c57848901518255600182019150602085019450602081019050612067565b868310156120a957848901516120a5601f891682611fb2565b8355505b6001600288020188555050505b505050505050565b7f57524f4e475f46524f4d00000000000000000000000000000000000000000000600082015250565b60006120f4600a8361170b565b91506120ff826120be565b602082019050919050565b60006020820190508181036000830152612123816120e7565b9050919050565b7f494e56414c49445f524543495049454e54000000000000000000000000000000600082015250565b600061216060118361170b565b915061216b8261212a565b602082019050919050565b6000602082019050818103600083015261218f81612153565b9050919050565b600082825260208201905092915050565b50565b60006121b7600083612196565b91506121c2826121a7565b600082019050919050565b60006080820190506121e26000830186611847565b6121ef6020830185611847565b6121fc6040830184611aee565b818103606083015261220d816121aa565b9050949350505050565b60008151905061222681611671565b92915050565b6000602082840312156122425761224161163b565b5b600061225084828501612217565b91505092915050565b7f554e534146455f524543495049454e5400000000000000000000000000000000600082015250565b600061228f60108361170b565b915061229a82612259565b602082019050919050565b600060208201905081810360008301526122be81612282565b9050919050565b7f4e4f545f4d494e54454400000000000000000000000000000000000000000000600082015250565b60006122fb600a8361170b565b9150612306826122c5565b602082019050919050565b6000602082019050818103600083015261232a816122ee565b9050919050565b7f5a45524f5f414444524553530000000000000000000000000000000000000000600082015250565b6000612367600c8361170b565b915061237282612331565b602082019050919050565b600060208201905081810360008301526123968161235a565b9050919050565b60006123a98385612196565b93506123b6838584611993565b6123bf83611746565b840190509392505050565b60006080820190506123df6000830188611847565b6123ec6020830187611847565b6123f96040830186611aee565b818103606083015261240c81848661239d565b90509695505050505050565b7f414c52454144595f4d494e544544000000000000000000000000000000000000600082015250565b600061244e600e8361170b565b915061245982612418565b602082019050919050565b6000602082019050818103600083015261247d81612441565b905091905056fea2646970667358221220112a440693fa9a4a3454126a4e0ee6c449728ac389161a51accbc3051406bdf364736f6c63430008120033",
  "linkReferences": {},
  "deployedLinkReferences": {}
}