{
  "_format": "hh-sol-artifact-1",
  "contractName": "MusicVault",
  "sourceName": "contracts/MusicVault.sol",
  "abi": [
    {
      "inputs": [
        {
          "internalType": "address",
          "name": "_vaultToken",
          "type": "address"
        },
        {
          "internalType": "address",
          "name": "_vaultNFT",
          "type": "address"
        },
        {
          "internalType": "address",
          "name": "_factory",
          "type": "address"
        }
      ],
      "stateMutability": "nonpayable",
      "type": "constructor"
    },
    {
      "anonymous": false,
      "inputs": [
        {
          "indexed": false,
          "internalType": "address",
          "name": "author",
          "type": "address"
        },
        {
          "indexed": false,
          "internalType": "uint256",
          "name": "musicId",
          "type": "uint256"
        }
      ],
      "name": "airdrop",
      "type": "event"
    },
    {
      "anonymous": false,
      "inputs": [
        {
          "indexed": false,
          "internalType": "address",
          "name": "author",
          "type": "address"
        },
        {
          "indexed": false,
          "internalType": "address",
          "name": "fan",
          "type": "address"
        },
        {
          "indexed": false,
          "internalType": "uint256",
          "name": "amount",
          "type": "uint256"
        }
      ],
      "name": "donate",
      "type": "event"
    },
    {
      "anonymous": false,
      "inputs": [
        {
          "indexed": true,
          "internalType": "address",
          "name": "musician",
          "type": "address"
        },
        {
          "indexed": true,
          "internalType": "address",
          "name": "fanNFT",
          "type": "address"
        }
      ],
      "name": "fanClubCreate",
      "type": "event"
    },
    {
      "anonymous": false,
      "inputs": [
        {
          "indexed": true,
          "internalType": "address",
          "name": "musician",
          "type": "address"
        },
        {
          "indexed": true,
          "internalType": "address",
          "name": "fanNFT",
          "type": "address"
        },
        {
          "indexed": true,
          "internalType": "address",
          "name": "fan",
          "type": "address"
        }
      ],
      "name": "fanClubJoin",
      "type": "event"
    },
    {
      "anonymous": false,
      "inputs": [],
      "name": "leadBoardRefresh",
      "type": "event"
    },
    {
      "anonymous": false,
      "inputs": [
        {
          "indexed": true,
          "internalType": "address",
          "name": "buyer",
          "type": "address"
        },
        {
          "indexed": true,
          "internalType": "uint256",
          "name": "musicId",
          "type": "uint256"
        },
        {
          "indexed": false,
          "internalType": "string",
          "name": "musicName",
          "type": "string"
        },
        {
          "indexed": false,
          "internalType": "uint256",
          "name": "amount",
          "type": "uint256"
        }
      ],
      "name": "musicPurchase",
      "type": "event"
    },
    {
      "anonymous": false,
      "inputs": [
        {
          "indexed": true,
          "internalType": "address",
          "name": "musician",
          "type": "address"
        },
        {
          "indexed": true,
          "internalType": "uint256",
          "name": "musicId",
          "type": "uint256"
        },
        {
          "indexed": false,
          "internalType": "string",
          "name": "musicName",
          "type": "string"
        }
      ],
      "name": "musicUpload",
      "type": "event"
    },
    {
      "anonymous": false,
      "inputs": [
        {
          "indexed": true,
          "internalType": "address",
          "name": "buyer",
          "type": "address"
        },
        {
          "indexed": true,
          "internalType": "uint256",
          "name": "musicId",
          "type": "uint256"
        },
        {
          "indexed": false,
          "internalType": "string",
          "name": "musicName",
          "type": "string"
        },
        {
          "indexed": false,
          "internalType": "uint256",
          "name": "amount",
          "type": "uint256"
        }
      ],
      "name": "musicVote",
      "type": "event"
    },
    {
      "inputs": [
        {
          "internalType": "address",
          "name": "",
          "type": "address"
        }
      ],
      "name": "address2IsUserMapping",
      "outputs": [
        {
          "internalType": "bool",
          "name": "",
          "type": "bool"
        }
      ],
      "stateMutability": "view",
      "type": "function"
    },
    {
      "inputs": [
        {
          "internalType": "address",
          "name": "",
          "type": "address"
        }
      ],
      "name": "address2UserMapping",
      "outputs": [
        {
          "internalType": "uint256",
          "name": "purchase",
          "type": "uint256"
        },
        {
          "internalType": "uint256",
          "name": "vote",
          "type": "uint256"
        },
        {
          "internalType": "address",
          "name": "fanNFT",
          "type": "address"
        }
      ],
      "stateMutability": "view",
      "type": "function"
    },
    {
      "inputs": [
        {
          "internalType": "uint256",
          "name": "musicId",
          "type": "uint256"
        },
        {
          "internalType": "uint256",
          "name": "contributeEntry",
          "type": "uint256"
        }
      ],
      "name": "airdropMusic",
      "outputs": [],
      "stateMutability": "nonpayable",
      "type": "function"
    },
    {
      "inputs": [
        {
          "internalType": "address",
          "name": "",
          "type": "address"
        },
        {
          "internalType": "address",
          "name": "",
          "type": "address"
        }
      ],
      "name": "author2userEligibleMapping",
      "outputs": [
        {
          "internalType": "bool",
          "name": "",
          "type": "bool"
        }
      ],
      "stateMutability": "view",
      "type": "function"
    },
    {
      "inputs": [
        {
          "internalType": "address",
          "name": "",
          "type": "address"
        },
        {
          "internalType": "uint256",
          "name": "",
          "type": "uint256"
        }
      ],
      "name": "buyer2MusicIdMapping",
      "outputs": [
        {
          "internalType": "uint256",
          "name": "",
          "type": "uint256"
        }
      ],
      "stateMutability": "view",
      "type": "function"
    },
    {
      "inputs": [
        {
          "internalType": "uint256",
          "name": "musicId",
          "type": "uint256"
        },
        {
          "internalType": "uint256",
          "name": "amount",
          "type": "uint256"
        }
      ],
      "name": "calculatePurchaseFee",
      "outputs": [
        {
          "internalType": "uint256",
          "name": "",
          "type": "uint256"
        }
      ],
      "stateMutability": "view",
      "type": "function"
    },
    {
      "inputs": [
        {
          "internalType": "uint256",
          "name": "baseFee",
          "type": "uint256"
        },
        {
          "internalType": "uint256",
          "name": "amount",
          "type": "uint256"
        }
      ],
      "name": "calculateSquaredFee",
      "outputs": [
        {
          "internalType": "uint256",
          "name": "",
          "type": "uint256"
        }
      ],
      "stateMutability": "pure",
      "type": "function"
    },
    {
      "inputs": [
        {
          "internalType": "uint256",
          "name": "amount",
          "type": "uint256"
        }
      ],
      "name": "calculateVoteFee",
      "outputs": [
        {
          "internalType": "uint256",
          "name": "",
          "type": "uint256"
        }
      ],
      "stateMutability": "view",
      "type": "function"
    },
    {
      "inputs": [
        {
          "internalType": "uint256",
          "name": "",
          "type": "uint256"
        }
      ],
      "name": "contentUploadedMapping",
      "outputs": [
        {
          "internalType": "bool",
          "name": "",
          "type": "bool"
        }
      ],
      "stateMutability": "view",
      "type": "function"
    },
    {
      "inputs": [],
      "name": "createFanNFT",
      "outputs": [],
      "stateMutability": "nonpayable",
      "type": "function"
    },
    {
      "inputs": [
        {
          "internalType": "address",
          "name": "author",
          "type": "address"
        },
        {
          "internalType": "uint256",
          "name": "amount",
          "type": "uint256"
        }
      ],
      "name": "donateToAuthor",
      "outputs": [],
      "stateMutability": "nonpayable",
      "type": "function"
    },
    {
      "inputs": [],
      "name": "fanNFTFactory",
      "outputs": [
        {
          "internalType": "contract IFanNFTFactory",
          "name": "",
          "type": "address"
        }
      ],
      "stateMutability": "view",
      "type": "function"
    },
    {
      "inputs": [
        {
          "internalType": "address",
          "name": "author",
          "type": "address"
        }
      ],
      "name": "followMusician",
      "outputs": [],
      "stateMutability": "nonpayable",
      "type": "function"
    },
    {
      "inputs": [
        {
          "internalType": "address",
          "name": "_user",
          "type": "address"
        }
      ],
      "name": "getBuyerMusicIdList",
      "outputs": [
        {
          "internalType": "uint256[]",
          "name": "",
          "type": "uint256[]"
        }
      ],
      "stateMutability": "view",
      "type": "function"
    },
    {
      "inputs": [
        {
          "internalType": "address",
          "name": "_user",
          "type": "address"
        }
      ],
      "name": "getBuyerMusicNumber",
      "outputs": [
        {
          "internalType": "uint256",
          "name": "",
          "type": "uint256"
        }
      ],
      "stateMutability": "view",
      "type": "function"
    },
    {
      "inputs": [
        {
          "internalType": "address",
          "name": "_author",
          "type": "address"
        },
        {
          "internalType": "address",
          "name": "_fan",
          "type": "address"
        }
      ],
      "name": "getFanContribution",
      "outputs": [
        {
          "internalType": "uint256",
          "name": "",
          "type": "uint256"
        }
      ],
      "stateMutability": "view",
      "type": "function"
    },
    {
      "inputs": [
        {
          "internalType": "address",
          "name": "_user",
          "type": "address"
        }
      ],
      "name": "getFanNumber",
      "outputs": [
        {
          "internalType": "uint256",
          "name": "",
          "type": "uint256"
        }
      ],
      "stateMutability": "view",
      "type": "function"
    },
    {
      "inputs": [
        {
          "internalType": "address",
          "name": "_user",
          "type": "address"
        }
      ],
      "name": "getOwneMusicIdList",
      "outputs": [
        {
          "internalType": "uint256[]",
          "name": "",
          "type": "uint256[]"
        }
      ],
      "stateMutability": "view",
      "type": "function"
    },
    {
      "inputs": [
        {
          "internalType": "address",
          "name": "_user",
          "type": "address"
        }
      ],
      "name": "getOwnerMusicNumber",
      "outputs": [
        {
          "internalType": "uint256",
          "name": "",
          "type": "uint256"
        }
      ],
      "stateMutability": "view",
      "type": "function"
    },
    {
      "inputs": [],
      "name": "getPurchaseLeaderboard",
      "outputs": [
        {
          "internalType": "uint256[]",
          "name": "list",
          "type": "uint256[]"
        }
      ],
      "stateMutability": "view",
      "type": "function"
    },
    {
      "inputs": [
        {
          "internalType": "address",
          "name": "user",
          "type": "address"
        }
      ],
      "name": "getUserCredit",
      "outputs": [
        {
          "internalType": "uint256",
          "name": "",
          "type": "uint256"
        }
      ],
      "stateMutability": "view",
      "type": "function"
    },
    {
      "inputs": [
        {
          "internalType": "address",
          "name": "user",
          "type": "address"
        }
      ],
      "name": "getUserPurchase",
      "outputs": [
        {
          "internalType": "uint256",
          "name": "",
          "type": "uint256"
        }
      ],
      "stateMutability": "view",
      "type": "function"
    },
    {
      "inputs": [
        {
          "internalType": "address",
          "name": "user",
          "type": "address"
        }
      ],
      "name": "getUserVote",
      "outputs": [
        {
          "internalType": "uint256",
          "name": "",
          "type": "uint256"
        }
      ],
      "stateMutability": "view",
      "type": "function"
    },
    {
      "inputs": [],
      "name": "getVoteLeaderboard",
      "outputs": [
        {
          "internalType": "uint256[]",
          "name": "list",
          "type": "uint256[]"
        }
      ],
      "stateMutability": "view",
      "type": "function"
    },
    {
      "inputs": [
        {
          "internalType": "uint256",
          "name": "",
          "type": "uint256"
        },
        {
          "internalType": "address",
          "name": "",
          "type": "address"
        }
      ],
      "name": "musicId2BuyerAmountMapping",
      "outputs": [
        {
          "internalType": "uint256",
          "name": "",
          "type": "uint256"
        }
      ],
      "stateMutability": "view",
      "type": "function"
    },
    {
      "inputs": [
        {
          "internalType": "uint256",
          "name": "",
          "type": "uint256"
        },
        {
          "internalType": "address",
          "name": "",
          "type": "address"
        }
      ],
      "name": "musicId2BuyerVoteAmountMapping",
      "outputs": [
        {
          "internalType": "uint256",
          "name": "",
          "type": "uint256"
        }
      ],
      "stateMutability": "view",
      "type": "function"
    },
    {
      "inputs": [
        {
          "internalType": "uint256",
          "name": "",
          "type": "uint256"
        }
      ],
      "name": "musicId2MusicMapping",
      "outputs": [
        {
          "internalType": "uint256",
          "name": "musicId",
          "type": "uint256"
        },
        {
          "internalType": "string",
          "name": "musicName",
          "type": "string"
        },
        {
          "internalType": "address",
          "name": "author",
          "type": "address"
        },
        {
          "internalType": "string",
          "name": "musicDescription",
          "type": "string"
        },
        {
          "internalType": "uint256",
          "name": "contentHash",
          "type": "uint256"
        },
        {
          "internalType": "uint256",
          "name": "purchaseFee",
          "type": "uint256"
        },
        {
          "internalType": "uint256",
          "name": "uploadTimestamp",
          "type": "uint256"
        }
      ],
      "stateMutability": "view",
      "type": "function"
    },
    {
      "inputs": [
        {
          "internalType": "uint256",
          "name": "",
          "type": "uint256"
        }
      ],
      "name": "musicId2MusicSellInfoMapping",
      "outputs": [
        {
          "internalType": "uint256",
          "name": "purchaseAmount",
          "type": "uint256"
        },
        {
          "internalType": "uint256",
          "name": "purchaseRevenue",
          "type": "uint256"
        },
        {
          "internalType": "uint256",
          "name": "voteAmount",
          "type": "uint256"
        },
        {
          "internalType": "uint256",
          "name": "voteRevenue",
          "type": "uint256"
        }
      ],
      "stateMutability": "view",
      "type": "function"
    },
    {
      "inputs": [
        {
          "internalType": "address",
          "name": "",
          "type": "address"
        },
        {
          "internalType": "uint256",
          "name": "",
          "type": "uint256"
        }
      ],
      "name": "owner2MusicIdMapping",
      "outputs": [
        {
          "internalType": "uint256",
          "name": "",
          "type": "uint256"
        }
      ],
      "stateMutability": "view",
      "type": "function"
    },
    {
      "inputs": [
        {
          "internalType": "uint256",
          "name": "musicId",
          "type": "uint256"
        },
        {
          "internalType": "uint256",
          "name": "amount",
          "type": "uint256"
        }
      ],
      "name": "purchaseMusic",
      "outputs": [],
      "stateMutability": "nonpayable",
      "type": "function"
    },
    {
      "inputs": [],
      "name": "tokenVaultWalletAddress",
      "outputs": [
        {
          "internalType": "address",
          "name": "",
          "type": "address"
        }
      ],
      "stateMutability": "view",
      "type": "function"
    },
    {
      "inputs": [
        {
          "internalType": "string",
          "name": "musicName",
          "type": "string"
        },
        {
          "internalType": "string",
          "name": "musicDescription",
          "type": "string"
        },
        {
          "internalType": "uint256",
          "name": "contentHash",
          "type": "uint256"
        },
        {
          "internalType": "uint256",
          "name": "purchaseFee",
          "type": "uint256"
        },
        {
          "internalType": "string",
          "name": "tokenURI",
          "type": "string"
        }
      ],
      "name": "uploadMusic",
      "outputs": [
        {
          "internalType": "uint256",
          "name": "",
          "type": "uint256"
        }
      ],
      "stateMutability": "nonpayable",
      "type": "function"
    },
    {
      "inputs": [],
      "name": "userNumber",
      "outputs": [
        {
          "internalType": "uint256",
          "name": "",
          "type": "uint256"
        }
      ],
      "stateMutability": "view",
      "type": "function"
    },
    {
      "inputs": [],
      "name": "vaultNFT",
      "outputs": [
        {
          "internalType": "contract IERC721",
          "name": "",
          "type": "address"
        }
      ],
      "stateMutability": "view",
      "type": "function"
    },
    {
      "inputs": [],
      "name": "vaultToken",
      "outputs": [
        {
          "internalType": "contract IERC20",
          "name": "",
          "type": "address"
        }
      ],
      "stateMutability": "view",
      "type": "function"
    },
    {
      "inputs": [
        {
          "internalType": "uint256",
          "name": "musicId",
          "type": "uint256"
        },
        {
          "internalType": "uint256",
          "name": "amount",
          "type": "uint256"
        }
      ],
      "name": "voteMusic",
      "outputs": [],
      "stateMutability": "nonpayable",
      "type": "function"
    }
  ],
  "bytecode": "0x6080604052600067ffffffffffffffff81111562000022576200002162000297565b5b604051908082528060200260200182016040528015620000515781602001602082028036833780820191505090505b50600f90805190602001906200006992919062000226565b50600067ffffffffffffffff81111562000088576200008762000297565b5b604051908082528060200260200182016040528015620000b75781602001602082028036833780820191505090505b5060109080519060200190620000cf92919062000226565b5060006011556000601255348015620000e757600080fd5b50604051620055013803806200550183398181016040528101906200010d919062000330565b82828282828282600360006101000a81548173ffffffffffffffffffffffffffffffffffffffff021916908373ffffffffffffffffffffffffffffffffffffffff16021790555081600460006101000a81548173ffffffffffffffffffffffffffffffffffffffff021916908373ffffffffffffffffffffffffffffffffffffffff16021790555080600560006101000a81548173ffffffffffffffffffffffffffffffffffffffff021916908373ffffffffffffffffffffffffffffffffffffffff16021790555033600660006101000a81548173ffffffffffffffffffffffffffffffffffffffff021916908373ffffffffffffffffffffffffffffffffffffffff1602179055505050505050505050506200038c565b82805482825590600052602060002090810192821562000265579160200282015b828111156200026457825182559160200191906001019062000247565b5b50905062000274919062000278565b5090565b5b808211156200029357600081600090555060010162000279565b5090565b7f4e487b7100000000000000000000000000000000000000000000000000000000600052604160045260246000fd5b600080fd5b600073ffffffffffffffffffffffffffffffffffffffff82169050919050565b6000620002f882620002cb565b9050919050565b6200030a81620002eb565b81146200031657600080fd5b50565b6000815190506200032a81620002ff565b92915050565b6000806000606084860312156200034c576200034b620002c6565b5b60006200035c8682870162000319565b93505060206200036f8682870162000319565b9250506040620003828682870162000319565b9150509250925092565b615165806200039c6000396000f3fe608060405234801561001057600080fd5b506004361061021c5760003560e01c8063b2c6a85511610125578063d439f59f116100ad578063e58ddcc21161007c578063e58ddcc21461072e578063f0df04791461075e578063f1104f361461077c578063f23533e9146107ac578063fff6bb9b146107c85761021c565b8063d439f59f1461067c578063d4923d4e14610698578063d5eef6c1146106c8578063dad6f0dc146106fe5761021c565b8063c6afec5c116100f4578063c6afec5c146105d8578063c84852f2146105e2578063d00deb5114610612578063d19631141461062e578063d3152dac1461065e5761021c565b8063b2c6a8551461052a578063b872eb251461055a578063bd3098ce14610578578063bda235da146105a85761021c565b806341406ead116101a857806362b744bd1161017757806362b744bd1461045e5780636961135c1461048e578063703bafd5146104be57806384dea1a1146104dc578063a97060f5146104fa5761021c565b806341406ead146103c157806349300187146103f4578063519cc0a7146104245780636042c3c2146104425761021c565b80632b4e8413116101ef5780632b4e8413146102e15780632e66cbb0146102ff5780632f945a5d1461033157806330ba0f4d146103615780633ba07043146103915761021c565b806305c221cb146102215780631162087d146102515780631e68934a146102815780632102b651146102b1575b600080fd5b61023b60048036038101906102369190613bd4565b6107e4565b6040516102489190613cc9565b60405180910390f35b61026b60048036038101906102669190613e5d565b6108e4565b6040516102789190613f3b565b60405180910390f35b61029b60048036038101906102969190613f56565b610cb8565b6040516102a89190613f3b565b60405180910390f35b6102cb60048036038101906102c69190613f96565b610d14565b6040516102d89190613f3b565b60405180910390f35b6102e9610d45565b6040516102f69190613f3b565b60405180910390f35b61031960048036038101906103149190613bd4565b610d4b565b60405161032893929190613fe5565b60405180910390f35b61034b6004803603810190610346919061401c565b610d95565b6040516103589190614077565b60405180910390f35b61037b60048036038101906103769190614092565b610dc4565b6040516103889190613f3b565b60405180910390f35b6103ab60048036038101906103a69190613bd4565b610de9565b6040516103b89190613f3b565b60405180910390f35b6103db60048036038101906103d691906140d2565b610fbe565b6040516103eb94939291906140ff565b60405180910390f35b61040e60048036038101906104099190613bd4565b610fee565b60405161041b9190613cc9565b60405180910390f35b61042c6110ee565b60405161043991906141a3565b60405180910390f35b61045c60048036038101906104579190613f56565b611114565b005b61047860048036038101906104739190613f56565b611560565b6040516104859190613f3b565b60405180910390f35b6104a860048036038101906104a39190613bd4565b61158a565b6040516104b59190614077565b60405180910390f35b6104c66115aa565b6040516104d391906141df565b60405180910390f35b6104e46115d0565b6040516104f1919061421b565b60405180910390f35b610514600480360381019061050f91906140d2565b6115f6565b6040516105219190613f3b565b60405180910390f35b610544600480360381019061053f9190613f96565b611611565b6040516105519190613f3b565b60405180910390f35b610562611642565b60405161056f9190613cc9565b60405180910390f35b610592600480360381019061058d919061401c565b6116f5565b60405161059f9190613f3b565b60405180910390f35b6105c260048036038101906105bd9190613bd4565b6118cd565b6040516105cf9190613f3b565b60405180910390f35b6105e0611918565b005b6105fc60048036038101906105f79190613bd4565b611c0f565b6040516106099190613f3b565b60405180910390f35b61062c60048036038101906106279190613bd4565b611c5b565b005b61064860048036038101906106439190614092565b611fd4565b6040516106559190613f3b565b60405180910390f35b610666611ff9565b6040516106739190613cc9565b60405180910390f35b61069660048036038101906106919190613f56565b6120ac565b005b6106b260048036038101906106ad9190613bd4565b612524565b6040516106bf9190613f3b565b60405180910390f35b6106e260048036038101906106dd91906140d2565b61256f565b6040516106f597969594939291906142b5565b60405180910390f35b61071860048036038101906107139190613bd4565b6126e1565b6040516107259190613f3b565b60405180910390f35b610748600480360381019061074391906140d2565b612784565b6040516107559190614077565b60405180910390f35b6107666127a4565b6040516107739190614332565b60405180910390f35b61079660048036038101906107919190613bd4565b6127ca565b6040516107a39190613f3b565b60405180910390f35b6107c660048036038101906107c19190613f96565b612816565b005b6107e260048036038101906107dd9190613f56565b612c9f565b005b606060006107f1836127ca565b905060008167ffffffffffffffff81111561080f5761080e613d06565b5b60405190808252806020026020018201604052801561083d5781602001602082028036833780820191505090505b50905060005b828110156108d957600b60008673ffffffffffffffffffffffffffffffffffffffff1673ffffffffffffffffffffffffffffffffffffffff168152602001908152602001600020818154811061089c5761089b61434d565b5b90600052602060002001548282815181106108ba576108b961434d565b5b60200260200101818152505080806108d1906143ab565b915050610843565b508092505050919050565b6000600a600085815260200190815260200160002060009054906101000a900460ff1615610947576040517f08c379a000000000000000000000000000000000000000000000000000000000815260040161093e9061443f565b60405180910390fd5b600360009054906101000a900473ffffffffffffffffffffffffffffffffffffffff1673ffffffffffffffffffffffffffffffffffffffff166323b872dd33600660009054906101000a900473ffffffffffffffffffffffffffffffffffffffff16678ac7230489e800006040518463ffffffff1660e01b81526004016109d09392919061445f565b6020604051808303816000875af11580156109ef573d6000803e3d6000fd5b505050506040513d601f19601f82011682018060405250810190610a1391906144c2565b506000600460009054906101000a900473ffffffffffffffffffffffffffffffffffffffff1673ffffffffffffffffffffffffffffffffffffffff1663d0def52133856040518363ffffffff1660e01b8152600401610a739291906144ef565b6020604051808303816000875af1158015610a92573d6000803e3d6000fd5b505050506040513d601f19601f82011682018060405250810190610ab69190614534565b905080600760008381526020019081526020016000206000018190555086600760008381526020019081526020016000206001019081610af69190614763565b50336007600083815260200190815260200160002060020160006101000a81548173ffffffffffffffffffffffffffffffffffffffff021916908373ffffffffffffffffffffffffffffffffffffffff16021790555085600760008381526020019081526020016000206003019081610b6f9190614763565b50846007600083815260200190815260200160002060040181905550836007600083815260200190815260200160002060050181905550426007600083815260200190815260200160002060060181905550600960003373ffffffffffffffffffffffffffffffffffffffff1673ffffffffffffffffffffffffffffffffffffffff1681526020019081526020016000208190806001815401808255809150506001900390600052602060002001600090919091909150556001600a600083815260200190815260200160002060006101000a81548160ff021916908315150217905550610c5c336132cb565b803373ffffffffffffffffffffffffffffffffffffffff167f0ecceb572ba8105927655eabee2b476295f9e9f3ebc33a8b21c4f384b47a85c889604051610ca39190614835565b60405180910390a38091505095945050505050565b60008260066001846002610ccc9190614857565b610cd69190614899565b600185610ce39190614899565b85610cee9190614857565b610cf89190614857565b610d0291906148fc565b610d0c9190614857565b905092915050565b60096020528160005260406000208181548110610d3057600080fd5b90600052602060002001600091509150505481565b60015481565b60006020528060005260406000206000915090508060000154908060010154908060020160009054906101000a900473ffffffffffffffffffffffffffffffffffffffff16905083565b600e6020528160005260406000206020528060005260406000206000915091509054906101000a900460ff1681565b600d602052816000526040600020602052806000526040600020600091509150505481565b60008073ffffffffffffffffffffffffffffffffffffffff166000808473ffffffffffffffffffffffffffffffffffffffff1673ffffffffffffffffffffffffffffffffffffffff16815260200190815260200160002060020160009054906101000a900473ffffffffffffffffffffffffffffffffffffffff1673ffffffffffffffffffffffffffffffffffffffff1603610eba576040517f08c379a0000000000000000000000000000000000000000000000000000000008152600401610eb190614979565b60405180910390fd5b600560009054906101000a900473ffffffffffffffffffffffffffffffffffffffff1673ffffffffffffffffffffffffffffffffffffffff16633ba070436000808573ffffffffffffffffffffffffffffffffffffffff1673ffffffffffffffffffffffffffffffffffffffff16815260200190815260200160002060020160009054906101000a900473ffffffffffffffffffffffffffffffffffffffff166040518263ffffffff1660e01b8152600401610f769190614332565b602060405180830381865afa158015610f93573d6000803e3d6000fd5b505050506040513d601f19601f82011682018060405250810190610fb79190614534565b9050919050565b60086020528060005260406000206000915090508060000154908060010154908060020154908060030154905084565b60606000610ffb83611c0f565b905060008167ffffffffffffffff81111561101957611018613d06565b5b6040519080825280602002602001820160405280156110475781602001602082028036833780820191505090505b50905060005b828110156110e357600960008673ffffffffffffffffffffffffffffffffffffffff1673ffffffffffffffffffffffffffffffffffffffff16815260200190815260200160002081815481106110a6576110a561434d565b5b90600052602060002001548282815181106110c4576110c361434d565b5b60200260200101818152505080806110db906143ab565b91505061104d565b508092505050919050565b600560009054906101000a900473ffffffffffffffffffffffffffffffffffffffff1681565b338160008111611159576040517f08c379a0000000000000000000000000000000000000000000000000000000008152600401611150906149e5565b60405180910390fd5b611162826126e1565b8111156111a4576040517f08c379a000000000000000000000000000000000000000000000000000000000815260040161119b90614a51565b60405180910390fd5b60006007600086815260200190815260200160002060020160009054906101000a900473ffffffffffffffffffffffffffffffffffffffff1690503373ffffffffffffffffffffffffffffffffffffffff168173ffffffffffffffffffffffffffffffffffffffff160361124d576040517f08c379a000000000000000000000000000000000000000000000000000000000815260040161124490614abd565b60405180910390fd5b6000600d600087815260200190815260200160002060003373ffffffffffffffffffffffffffffffffffffffff1673ffffffffffffffffffffffffffffffffffffffff16815260200190815260200160002054146112e0576040517f08c379a00000000000000000000000000000000000000000000000000000000081526004016112d790614b29565b60405180910390fd5b60006112eb856115f6565b9050600360009054906101000a900473ffffffffffffffffffffffffffffffffffffffff1673ffffffffffffffffffffffffffffffffffffffff166323b872dd3384846040518463ffffffff1660e01b815260040161134c9392919061445f565b6020604051808303816000875af115801561136b573d6000803e3d6000fd5b505050506040513d601f19601f8201168201806040525081019061138f91906144c2565b5060016000803373ffffffffffffffffffffffffffffffffffffffff1673ffffffffffffffffffffffffffffffffffffffff168152602001908152602001600020600101546113de9190614899565b6000803373ffffffffffffffffffffffffffffffffffffffff1673ffffffffffffffffffffffffffffffffffffffff1681526020019081526020016000206001018190555084600d600088815260200190815260200160002060003373ffffffffffffffffffffffffffffffffffffffff1673ffffffffffffffffffffffffffffffffffffffff1681526020019081526020016000205461147f9190614899565b600d600088815260200190815260200160002060003373ffffffffffffffffffffffffffffffffffffffff1673ffffffffffffffffffffffffffffffffffffffff168152602001908152602001600020819055506114de868683613391565b6114e9823387613491565b6114f2336132cb565b853373ffffffffffffffffffffffffffffffffffffffff167f8acc2ae1fb028a613ff1036318376cf40c2571f6b6b1303bfe7f3b166624683a600760008a815260200190815260200160002060010188604051611550929190614bcd565b60405180910390a3505050505050565b6000611582600760008581526020019081526020016000206005015483610cb8565b905092915050565b60026020528060005260406000206000915054906101000a900460ff1681565b600360009054906101000a900473ffffffffffffffffffffffffffffffffffffffff1681565b600460009054906101000a900473ffffffffffffffffffffffffffffffffffffffff1681565b600061160a670de0b6b3a764000083610cb8565b9050919050565b600b602052816000526040600020818154811061162d57600080fd5b90600052602060002001600091509150505481565b606060108054905067ffffffffffffffff81111561166357611662613d06565b5b6040519080825280602002602001820160405280156116915781602001602082028036833780820191505090505b50905060005b81518110156116f157601081815481106116b4576116b361434d565b5b90600052602060002001548282815181106116d2576116d161434d565b5b60200260200101818152505080806116e9906143ab565b915050611697565b5090565b60008073ffffffffffffffffffffffffffffffffffffffff166000808573ffffffffffffffffffffffffffffffffffffffff1673ffffffffffffffffffffffffffffffffffffffff16815260200190815260200160002060020160009054906101000a900473ffffffffffffffffffffffffffffffffffffffff1673ffffffffffffffffffffffffffffffffffffffff16036117c6576040517f08c379a00000000000000000000000000000000000000000000000000000000081526004016117bd90614979565b60405180910390fd5b600560009054906101000a900473ffffffffffffffffffffffffffffffffffffffff1673ffffffffffffffffffffffffffffffffffffffff1663bd3098ce6000808673ffffffffffffffffffffffffffffffffffffffff1673ffffffffffffffffffffffffffffffffffffffff16815260200190815260200160002060020160009054906101000a900473ffffffffffffffffffffffffffffffffffffffff16846040518363ffffffff1660e01b8152600401611884929190614bfd565b602060405180830381865afa1580156118a1573d6000803e3d6000fd5b505050506040513d601f19601f820116820180604052508101906118c59190614534565b905092915050565b60008060008373ffffffffffffffffffffffffffffffffffffffff1673ffffffffffffffffffffffffffffffffffffffff168152602001908152602001600020600001549050919050565b600073ffffffffffffffffffffffffffffffffffffffff166000803373ffffffffffffffffffffffffffffffffffffffff1673ffffffffffffffffffffffffffffffffffffffff16815260200190815260200160002060020160009054906101000a900473ffffffffffffffffffffffffffffffffffffffff1673ffffffffffffffffffffffffffffffffffffffff16146119e8576040517f08c379a00000000000000000000000000000000000000000000000000000000081526004016119df90614c72565b60405180910390fd5b6000600560009054906101000a900473ffffffffffffffffffffffffffffffffffffffff1673ffffffffffffffffffffffffffffffffffffffff16639c6bb5816040518163ffffffff1660e01b8152600401611a4390614d2a565b6020604051808303816000875af1158015611a62573d6000803e3d6000fd5b505050506040513d601f19601f82011682018060405250810190611a869190614d72565b9050806000803373ffffffffffffffffffffffffffffffffffffffff1673ffffffffffffffffffffffffffffffffffffffff16815260200190815260200160002060020160006101000a81548173ffffffffffffffffffffffffffffffffffffffff021916908373ffffffffffffffffffffffffffffffffffffffff160217905550600560009054906101000a900473ffffffffffffffffffffffffffffffffffffffff1673ffffffffffffffffffffffffffffffffffffffff1663ee1fe2ad82336040518363ffffffff1660e01b8152600401611b65929190614bfd565b6020604051808303816000875af1158015611b84573d6000803e3d6000fd5b505050506040513d601f19601f82011682018060405250810190611ba89190614534565b50611bb2336132cb565b8073ffffffffffffffffffffffffffffffffffffffff163373ffffffffffffffffffffffffffffffffffffffff167f0d68fa50baa20fc97722fa0c9c61448b2e300d82ddd9dd3bf38d3c9ada0f5bc160405160405180910390a350565b6000600960008373ffffffffffffffffffffffffffffffffffffffff1673ffffffffffffffffffffffffffffffffffffffff168152602001908152602001600020805490509050919050565b60008060008373ffffffffffffffffffffffffffffffffffffffff1673ffffffffffffffffffffffffffffffffffffffff16815260200190815260200160002060020160009054906101000a900473ffffffffffffffffffffffffffffffffffffffff169050600073ffffffffffffffffffffffffffffffffffffffff168173ffffffffffffffffffffffffffffffffffffffff1603611d30576040517f08c379a0000000000000000000000000000000000000000000000000000000008152600401611d2790614979565b60405180910390fd5b600e60008373ffffffffffffffffffffffffffffffffffffffff1673ffffffffffffffffffffffffffffffffffffffff16815260200190815260200160002060003373ffffffffffffffffffffffffffffffffffffffff1673ffffffffffffffffffffffffffffffffffffffff16815260200190815260200160002060009054906101000a900460ff16611df9576040517f08c379a0000000000000000000000000000000000000000000000000000000008152600401611df090614deb565b60405180910390fd5b60008173ffffffffffffffffffffffffffffffffffffffff166370a08231336040518263ffffffff1660e01b8152600401611e349190614332565b602060405180830381865afa158015611e51573d6000803e3d6000fd5b505050506040513d601f19601f82011682018060405250810190611e759190614534565b14611eb5576040517f08c379a0000000000000000000000000000000000000000000000000000000008152600401611eac90614e57565b60405180910390fd5b600560009054906101000a900473ffffffffffffffffffffffffffffffffffffffff1673ffffffffffffffffffffffffffffffffffffffff1663ee1fe2ad82336040518363ffffffff1660e01b8152600401611f12929190614bfd565b6020604051808303816000875af1158015611f31573d6000803e3d6000fd5b505050506040513d601f19601f82011682018060405250810190611f559190614534565b50611f5f336132cb565b3373ffffffffffffffffffffffffffffffffffffffff168173ffffffffffffffffffffffffffffffffffffffff168373ffffffffffffffffffffffffffffffffffffffff167f2d4ac4df149678edffe3ce9e1623013a9b6ada2f8dced610de761b618fe997b160405160405180910390a45050565b600c602052816000526040600020602052806000526040600020600091509150505481565b6060600f8054905067ffffffffffffffff81111561201a57612019613d06565b5b6040519080825280602002602001820160405280156120485781602001602082028036833780820191505090505b50905060005b81518110156120a857600f818154811061206b5761206a61434d565b5b90600052602060002001548282815181106120895761208861434d565b5b60200260200101818152505080806120a0906143ab565b91505061204e565b5090565b3373ffffffffffffffffffffffffffffffffffffffff166007600084815260200190815260200160002060020160009054906101000a900473ffffffffffffffffffffffffffffffffffffffff1673ffffffffffffffffffffffffffffffffffffffff1614612150576040517f08c379a000000000000000000000000000000000000000000000000000000000815260040161214790614ec3565b60405180910390fd5b60008060003373ffffffffffffffffffffffffffffffffffffffff1673ffffffffffffffffffffffffffffffffffffffff16815260200190815260200160002060020160009054906101000a900473ffffffffffffffffffffffffffffffffffffffff169050600073ffffffffffffffffffffffffffffffffffffffff168173ffffffffffffffffffffffffffffffffffffffff1603612225576040517f08c379a000000000000000000000000000000000000000000000000000000000815260040161221c90614f2f565b60405180910390fd5b6000600560009054906101000a900473ffffffffffffffffffffffffffffffffffffffff1673ffffffffffffffffffffffffffffffffffffffff16633ba07043836040518263ffffffff1660e01b81526004016122829190614332565b602060405180830381865afa15801561229f573d6000803e3d6000fd5b505050506040513d601f19601f820116820180604052508101906122c39190614534565b905060005b8181101561251d5760008373ffffffffffffffffffffffffffffffffffffffff16636352211e836040518263ffffffff1660e01b815260040161230b9190613f3b565b602060405180830381865afa158015612328573d6000803e3d6000fd5b505050506040513d601f19601f8201168201806040525081019061234c9190614d72565b905084600560009054906101000a900473ffffffffffffffffffffffffffffffffffffffff1673ffffffffffffffffffffffffffffffffffffffff1663bd3098ce86846040518363ffffffff1660e01b81526004016123ac929190614bfd565b602060405180830381865afa1580156123c9573d6000803e3d6000fd5b505050506040513d601f19601f820116820180604052508101906123ed9190614534565b1115612509576000600c600088815260200190815260200160002060008373ffffffffffffffffffffffffffffffffffffffff1673ffffffffffffffffffffffffffffffffffffffff1681526020019081526020016000205403612508576001600c600088815260200190815260200160002060008373ffffffffffffffffffffffffffffffffffffffff1673ffffffffffffffffffffffffffffffffffffffff16815260200190815260200160002081905550600b60008273ffffffffffffffffffffffffffffffffffffffff1673ffffffffffffffffffffffffffffffffffffffff1681526020019081526020016000208690806001815401808255809150506001900390600052602060002001600090919091909150555b5b508080612515906143ab565b9150506122c8565b5050505050565b60008060008373ffffffffffffffffffffffffffffffffffffffff1673ffffffffffffffffffffffffffffffffffffffff168152602001908152602001600020600101549050919050565b600760205280600052604060002060009150905080600001549080600101805461259890614590565b80601f01602080910402602001604051908101604052809291908181526020018280546125c490614590565b80156126115780601f106125e657610100808354040283529160200191612611565b820191906000526020600020905b8154815290600101906020018083116125f457829003601f168201915b5050505050908060020160009054906101000a900473ffffffffffffffffffffffffffffffffffffffff169080600301805461264c90614590565b80601f016020809104026020016040519081016040528092919081815260200182805461267890614590565b80156126c55780601f1061269a576101008083540402835291602001916126c5565b820191906000526020600020905b8154815290600101906020018083116126a857829003601f168201915b5050505050908060040154908060050154908060060154905087565b600060016000808473ffffffffffffffffffffffffffffffffffffffff1673ffffffffffffffffffffffffffffffffffffffff168152602001908152602001600020600101546000808573ffffffffffffffffffffffffffffffffffffffff1673ffffffffffffffffffffffffffffffffffffffff168152602001908152602001600020600001546127739190614899565b61277d9190614899565b9050919050565b600a6020528060005260406000206000915054906101000a900460ff1681565b600660009054906101000a900473ffffffffffffffffffffffffffffffffffffffff1681565b6000600b60008373ffffffffffffffffffffffffffffffffffffffff1673ffffffffffffffffffffffffffffffffffffffff168152602001908152602001600020805490509050919050565b6128556040518060400160405280600b81526020017f626c6f636b6e756d2025640000000000000000000000000000000000000000008152504361364b565b6000601360003373ffffffffffffffffffffffffffffffffffffffff1673ffffffffffffffffffffffffffffffffffffffff1681526020019081526020016000205414806128ee575043601360003373ffffffffffffffffffffffffffffffffffffffff1673ffffffffffffffffffffffffffffffffffffffff168152602001908152602001600020546103e86128ec9190614899565b105b61292d576040517f08c379a000000000000000000000000000000000000000000000000000000000815260040161292490614f9b565b60405180910390fd5b60008060008473ffffffffffffffffffffffffffffffffffffffff1673ffffffffffffffffffffffffffffffffffffffff16815260200190815260200160002060020160009054906101000a900473ffffffffffffffffffffffffffffffffffffffff169050600073ffffffffffffffffffffffffffffffffffffffff168173ffffffffffffffffffffffffffffffffffffffff1614158015612a4a575060008173ffffffffffffffffffffffffffffffffffffffff166370a08231336040518263ffffffff1660e01b8152600401612a069190614332565b602060405180830381865afa158015612a23573d6000803e3d6000fd5b505050506040513d601f19601f82011682018060405250810190612a479190614534565b14155b612a89576040517f08c379a0000000000000000000000000000000000000000000000000000000008152600401612a8090615007565b60405180910390fd5b670de0b6b3a7640000821015612ad4576040517f08c379a0000000000000000000000000000000000000000000000000000000008152600401612acb90615073565b60405180910390fd5b43601360003373ffffffffffffffffffffffffffffffffffffffff1673ffffffffffffffffffffffffffffffffffffffff16815260200190815260200160002081905550600360009054906101000a900473ffffffffffffffffffffffffffffffffffffffff1673ffffffffffffffffffffffffffffffffffffffff166323b872dd3385856040518463ffffffff1660e01b8152600401612b779392919061445f565b6020604051808303816000875af1158015612b96573d6000803e3d6000fd5b505050506040513d601f19601f82011682018060405250810190612bba91906144c2565b50600560009054906101000a900473ffffffffffffffffffffffffffffffffffffffff1673ffffffffffffffffffffffffffffffffffffffff1663bfaf80658233670de0b6b3a764000086612c0f91906148fc565b6040518463ffffffff1660e01b8152600401612c2d9392919061445f565b600060405180830381600087803b158015612c4757600080fd5b505af1158015612c5b573d6000803e3d6000fd5b505050507f386bc05a2408454571efe4cbeeabd68940d5a301c55f31319f2b6aef331fedfc833384604051612c929392919061445f565b60405180910390a1505050565b338160008111612ce4576040517f08c379a0000000000000000000000000000000000000000000000000000000008152600401612cdb906149e5565b60405180910390fd5b612ced826126e1565b811115612d2f576040517f08c379a0000000000000000000000000000000000000000000000000000000008152600401612d2690614a51565b60405180910390fd5b60006007600086815260200190815260200160002060020160009054906101000a900473ffffffffffffffffffffffffffffffffffffffff1690503373ffffffffffffffffffffffffffffffffffffffff168173ffffffffffffffffffffffffffffffffffffffff1603612dd8576040517f08c379a0000000000000000000000000000000000000000000000000000000008152600401612dcf90614abd565b60405180910390fd5b6000600c600087815260200190815260200160002060003373ffffffffffffffffffffffffffffffffffffffff1673ffffffffffffffffffffffffffffffffffffffff1681526020019081526020016000205414612e6b576040517f08c379a0000000000000000000000000000000000000000000000000000000008152600401612e62906150df565b60405180910390fd5b6000612e8d600760008881526020019081526020016000206005015486610cb8565b9050600360009054906101000a900473ffffffffffffffffffffffffffffffffffffffff1673ffffffffffffffffffffffffffffffffffffffff166323b872dd33600460009054906101000a900473ffffffffffffffffffffffffffffffffffffffff1673ffffffffffffffffffffffffffffffffffffffff16636352211e8a6040518263ffffffff1660e01b8152600401612f299190613f3b565b602060405180830381865afa158015612f46573d6000803e3d6000fd5b505050506040513d601f19601f82011682018060405250810190612f6a9190614d72565b846040518463ffffffff1660e01b8152600401612f899392919061445f565b6020604051808303816000875af1158015612fa8573d6000803e3d6000fd5b505050506040513d601f19601f82011682018060405250810190612fcc91906144c2565b5084600c600088815260200190815260200160002060003373ffffffffffffffffffffffffffffffffffffffff1673ffffffffffffffffffffffffffffffffffffffff16815260200190815260200160002081905550600b60003373ffffffffffffffffffffffffffffffffffffffff1673ffffffffffffffffffffffffffffffffffffffff168152602001908152602001600020869080600181540180825580915050600190039060005260206000200160009091909190915055846000803373ffffffffffffffffffffffffffffffffffffffff1673ffffffffffffffffffffffffffffffffffffffff168152602001908152602001600020600001546130d59190614899565b6000803373ffffffffffffffffffffffffffffffffffffffff1673ffffffffffffffffffffffffffffffffffffffff16815260200190815260200160002060000181905550600e60008373ffffffffffffffffffffffffffffffffffffffff1673ffffffffffffffffffffffffffffffffffffffff16815260200190815260200160002060003373ffffffffffffffffffffffffffffffffffffffff1673ffffffffffffffffffffffffffffffffffffffff16815260200190815260200160002060009054906101000a900460ff1661323e576001600e60008473ffffffffffffffffffffffffffffffffffffffff1673ffffffffffffffffffffffffffffffffffffffff16815260200190815260200160002060003373ffffffffffffffffffffffffffffffffffffffff1673ffffffffffffffffffffffffffffffffffffffff16815260200190815260200160002060006101000a81548160ff0219169083151502179055505b6132498686836136e7565b613254823387613491565b61325d336132cb565b853373ffffffffffffffffffffffffffffffffffffffff167f2b07b9c0bc5f1fa9f7d65d82a7d198493b83030602e457c6a8c2d4efb15afb47600760008a8152602001908152602001600020600101886040516132bb929190614bcd565b60405180910390a3505050505050565b600260008273ffffffffffffffffffffffffffffffffffffffff1673ffffffffffffffffffffffffffffffffffffffff16815260200190815260200160002060009054906101000a900460ff1661338e576001600260008373ffffffffffffffffffffffffffffffffffffffff1673ffffffffffffffffffffffffffffffffffffffff16815260200190815260200160002060006101000a81548160ff02191690831515021790555060018060008282546133869190614899565b925050819055505b50565b816008600085815260200190815260200160002060020160008282546133b79190614899565b92505081905550806008600085815260200190815260200160002060030160008282546133e49190614899565b925050819055506133f4836137e7565b61348c57600a60108054905010156134605760108390806001815401808255809150506001900390600052602060002001600090919091909150557febb0c46fb680bda53c10bc28da7323be87ac8dc5549662e61878be0d517ebe9e60405160405180910390a161348b565b6012546008600085815260200190815260200160002060020154111561348a576134898361384f565b5b5b5b505050565b60008060008573ffffffffffffffffffffffffffffffffffffffff1673ffffffffffffffffffffffffffffffffffffffff16815260200190815260200160002060020160009054906101000a900473ffffffffffffffffffffffffffffffffffffffff169050600073ffffffffffffffffffffffffffffffffffffffff168173ffffffffffffffffffffffffffffffffffffffff16141580156135ae575060008173ffffffffffffffffffffffffffffffffffffffff166370a08231856040518263ffffffff1660e01b815260040161356a9190614332565b602060405180830381865afa158015613587573d6000803e3d6000fd5b505050506040513d601f19601f820116820180604052508101906135ab9190614534565b14155b1561364557600560009054906101000a900473ffffffffffffffffffffffffffffffffffffffff1673ffffffffffffffffffffffffffffffffffffffff1663bfaf80658285856040518463ffffffff1660e01b81526004016136129392919061445f565b600060405180830381600087803b15801561362c57600080fd5b505af1158015613640573d6000803e3d6000fd5b505050505b50505050565b6136e382826040516024016136619291906150ff565b6040516020818303038152906040527fb60e72cc000000000000000000000000000000000000000000000000000000007bffffffffffffffffffffffffffffffffffffffffffffffffffffffff19166020820180517bffffffffffffffffffffffffffffffffffffffffffffffffffffffff8381831617835250505050613990565b5050565b8160086000858152602001908152602001600020600001600082825461370d9190614899565b925050819055508060086000858152602001908152602001600020600101600082825461373a9190614899565b9250508190555061374a836139b9565b6137e257600a600f8054905010156137b657600f8390806001815401808255809150506001900390600052602060002001600090919091909150557febb0c46fb680bda53c10bc28da7323be87ac8dc5549662e61878be0d517ebe9e60405160405180910390a16137e1565b601154600860008581526020019081526020016000206000015411156137e0576137df83613a21565b5b5b5b505050565b60008060108054905090506000805b828110156138425784601082815481106138135761381261434d565b5b90600052602060002001540361382f576001935050505061384a565b808061383a906143ab565b9150506137f6565b506000925050505b919050565b600060108054905090506000807fffffffffffffffffffffffffffffffffffffffffffffffffffffffffffffffff905060005b83811015613914578160086000601084815481106138a3576138a261434d565b5b906000526020600020015481526020019081526020016000206002015410156139015780925060086000601083815481106138e1576138e061434d565b5b906000526020600020015481526020019081526020016000206002015491505b808061390c906143ab565b915050613882565b50600860008581526020019081526020016000206002015481101561398a5780601281905550836010838154811061394f5761394e61434d565b5b90600052602060002001819055507febb0c46fb680bda53c10bc28da7323be87ac8dc5549662e61878be0d517ebe9e60405160405180910390a15b50505050565b60008151905060006a636f6e736f6c652e6c6f679050602083016000808483855afa5050505050565b600080600f8054905090506000805b82811015613a145784600f82815481106139e5576139e461434d565b5b906000526020600020015403613a015760019350505050613a1c565b8080613a0c906143ab565b9150506139c8565b506000925050505b919050565b6000600f8054905090506000807fffffffffffffffffffffffffffffffffffffffffffffffffffffffffffffffff905060005b83811015613ae6578160086000600f8481548110613a7557613a7461434d565b5b90600052602060002001548152602001908152602001600020600001541015613ad35780925060086000600f8381548110613ab357613ab261434d565b5b906000526020600020015481526020019081526020016000206000015491505b8080613ade906143ab565b915050613a54565b506008600085815260200190815260200160002060000154811015613b5c578060118190555083600f8381548110613b2157613b2061434d565b5b90600052602060002001819055507febb0c46fb680bda53c10bc28da7323be87ac8dc5549662e61878be0d517ebe9e60405160405180910390a15b50505050565b6000604051905090565b600080fd5b600080fd5b600073ffffffffffffffffffffffffffffffffffffffff82169050919050565b6000613ba182613b76565b9050919050565b613bb181613b96565b8114613bbc57600080fd5b50565b600081359050613bce81613ba8565b92915050565b600060208284031215613bea57613be9613b6c565b5b6000613bf884828501613bbf565b91505092915050565b600081519050919050565b600082825260208201905092915050565b6000819050602082019050919050565b6000819050919050565b613c4081613c2d565b82525050565b6000613c528383613c37565b60208301905092915050565b6000602082019050919050565b6000613c7682613c01565b613c808185613c0c565b9350613c8b83613c1d565b8060005b83811015613cbc578151613ca38882613c46565b9750613cae83613c5e565b925050600181019050613c8f565b5085935050505092915050565b60006020820190508181036000830152613ce38184613c6b565b905092915050565b600080fd5b600080fd5b6000601f19601f8301169050919050565b7f4e487b7100000000000000000000000000000000000000000000000000000000600052604160045260246000fd5b613d3e82613cf5565b810181811067ffffffffffffffff82111715613d5d57613d5c613d06565b5b80604052505050565b6000613d70613b62565b9050613d7c8282613d35565b919050565b600067ffffffffffffffff821115613d9c57613d9b613d06565b5b613da582613cf5565b9050602081019050919050565b82818337600083830152505050565b6000613dd4613dcf84613d81565b613d66565b905082815260208101848484011115613df057613def613cf0565b5b613dfb848285613db2565b509392505050565b600082601f830112613e1857613e17613ceb565b5b8135613e28848260208601613dc1565b91505092915050565b613e3a81613c2d565b8114613e4557600080fd5b50565b600081359050613e5781613e31565b92915050565b600080600080600060a08688031215613e7957613e78613b6c565b5b600086013567ffffffffffffffff811115613e9757613e96613b71565b5b613ea388828901613e03565b955050602086013567ffffffffffffffff811115613ec457613ec3613b71565b5b613ed088828901613e03565b9450506040613ee188828901613e48565b9350506060613ef288828901613e48565b925050608086013567ffffffffffffffff811115613f1357613f12613b71565b5b613f1f88828901613e03565b9150509295509295909350565b613f3581613c2d565b82525050565b6000602082019050613f506000830184613f2c565b92915050565b60008060408385031215613f6d57613f6c613b6c565b5b6000613f7b85828601613e48565b9250506020613f8c85828601613e48565b9150509250929050565b60008060408385031215613fad57613fac613b6c565b5b6000613fbb85828601613bbf565b9250506020613fcc85828601613e48565b9150509250929050565b613fdf81613b96565b82525050565b6000606082019050613ffa6000830186613f2c565b6140076020830185613f2c565b6140146040830184613fd6565b949350505050565b6000806040838503121561403357614032613b6c565b5b600061404185828601613bbf565b925050602061405285828601613bbf565b9150509250929050565b60008115159050919050565b6140718161405c565b82525050565b600060208201905061408c6000830184614068565b92915050565b600080604083850312156140a9576140a8613b6c565b5b60006140b785828601613e48565b92505060206140c885828601613bbf565b9150509250929050565b6000602082840312156140e8576140e7613b6c565b5b60006140f684828501613e48565b91505092915050565b60006080820190506141146000830187613f2c565b6141216020830186613f2c565b61412e6040830185613f2c565b61413b6060830184613f2c565b95945050505050565b6000819050919050565b600061416961416461415f84613b76565b614144565b613b76565b9050919050565b600061417b8261414e565b9050919050565b600061418d82614170565b9050919050565b61419d81614182565b82525050565b60006020820190506141b86000830184614194565b92915050565b60006141c982614170565b9050919050565b6141d9816141be565b82525050565b60006020820190506141f460008301846141d0565b92915050565b600061420582614170565b9050919050565b614215816141fa565b82525050565b6000602082019050614230600083018461420c565b92915050565b600081519050919050565b600082825260208201905092915050565b60005b83811015614270578082015181840152602081019050614255565b60008484015250505050565b600061428782614236565b6142918185614241565b93506142a1818560208601614252565b6142aa81613cf5565b840191505092915050565b600060e0820190506142ca600083018a613f2c565b81810360208301526142dc818961427c565b90506142eb6040830188613fd6565b81810360608301526142fd818761427c565b905061430c6080830186613f2c565b61431960a0830185613f2c565b61432660c0830184613f2c565b98975050505050505050565b60006020820190506143476000830184613fd6565b92915050565b7f4e487b7100000000000000000000000000000000000000000000000000000000600052603260045260246000fd5b7f4e487b7100000000000000000000000000000000000000000000000000000000600052601160045260246000fd5b60006143b682613c2d565b91507fffffffffffffffffffffffffffffffffffffffffffffffffffffffffffffffff82036143e8576143e761437c565b5b600182019050919050565b7f616c72656164792075706c6f6164656400000000000000000000000000000000600082015250565b6000614429601083614241565b9150614434826143f3565b602082019050919050565b600060208201905081810360008301526144588161441c565b9050919050565b60006060820190506144746000830186613fd6565b6144816020830185613fd6565b61448e6040830184613f2c565b949350505050565b61449f8161405c565b81146144aa57600080fd5b50565b6000815190506144bc81614496565b92915050565b6000602082840312156144d8576144d7613b6c565b5b60006144e6848285016144ad565b91505092915050565b60006040820190506145046000830185613fd6565b8181036020830152614516818461427c565b90509392505050565b60008151905061452e81613e31565b92915050565b60006020828403121561454a57614549613b6c565b5b60006145588482850161451f565b91505092915050565b7f4e487b7100000000000000000000000000000000000000000000000000000000600052602260045260246000fd5b600060028204905060018216806145a857607f821691505b6020821081036145bb576145ba614561565b5b50919050565b60008190508160005260206000209050919050565b60006020601f8301049050919050565b600082821b905092915050565b6000600883026146237fffffffffffffffffffffffffffffffffffffffffffffffffffffffffffffffff826145e6565b61462d86836145e6565b95508019841693508086168417925050509392505050565b600061466061465b61465684613c2d565b614144565b613c2d565b9050919050565b6000819050919050565b61467a83614645565b61468e61468682614667565b8484546145f3565b825550505050565b600090565b6146a3614696565b6146ae818484614671565b505050565b5b818110156146d2576146c760008261469b565b6001810190506146b4565b5050565b601f821115614717576146e8816145c1565b6146f1846145d6565b81016020851015614700578190505b61471461470c856145d6565b8301826146b3565b50505b505050565b600082821c905092915050565b600061473a6000198460080261471c565b1980831691505092915050565b60006147538383614729565b9150826002028217905092915050565b61476c82614236565b67ffffffffffffffff81111561478557614784613d06565b5b61478f8254614590565b61479a8282856146d6565b600060209050601f8311600181146147cd57600084156147bb578287015190505b6147c58582614747565b86555061482d565b601f1984166147db866145c1565b60005b82811015614803578489015182556001820191506020850194506020810190506147de565b86831015614820578489015161481c601f891682614729565b8355505b6001600288020188555050505b505050505050565b6000602082019050818103600083015261484f818461427c565b905092915050565b600061486282613c2d565b915061486d83613c2d565b925082820261487b81613c2d565b915082820484148315176148925761489161437c565b5b5092915050565b60006148a482613c2d565b91506148af83613c2d565b92508282019050808211156148c7576148c661437c565b5b92915050565b7f4e487b7100000000000000000000000000000000000000000000000000000000600052601260045260246000fd5b600061490782613c2d565b915061491283613c2d565b925082614922576149216148cd565b5b828204905092915050565b7f6e6f2066616e636c756200000000000000000000000000000000000000000000600082015250565b6000614963600a83614241565b915061496e8261492d565b602082019050919050565b6000602082019050818103600083015261499281614956565b9050919050565b7f696e76616c696420507572636861736520416d6f756e74000000000000000000600082015250565b60006149cf601783614241565b91506149da82614999565b602082019050919050565b600060208201905081810360008301526149fe816149c2565b9050919050565b7f616d6f756e742065786365656473206c696d6974000000000000000000000000600082015250565b6000614a3b601483614241565b9150614a4682614a05565b602082019050919050565b60006020820190508181036000830152614a6a81614a2e565b9050919050565b7f6e6f7420666f7220617574686f72000000000000000000000000000000000000600082015250565b6000614aa7600e83614241565b9150614ab282614a71565b602082019050919050565b60006020820190508181036000830152614ad681614a9a565b9050919050565b7f6f6e6c7920566f7465204f6e6365000000000000000000000000000000000000600082015250565b6000614b13600e83614241565b9150614b1e82614add565b602082019050919050565b60006020820190508181036000830152614b4281614b06565b9050919050565b60008154614b5681614590565b614b608186614241565b94506001821660008114614b7b5760018114614b9157614bc4565b60ff198316865281151560200286019350614bc4565b614b9a856145c1565b60005b83811015614bbc57815481890152600182019150602081019050614b9d565b808801955050505b50505092915050565b60006040820190508181036000830152614be78185614b49565b9050614bf66020830184613f2c565b9392505050565b6000604082019050614c126000830185613fd6565b614c1f6020830184613fd6565b9392505050565b7f616c726561647920637265617465640000000000000000000000000000000000600082015250565b6000614c5c600f83614241565b9150614c6782614c26565b602082019050919050565b60006020820190508181036000830152614c8b81614c4f565b9050919050565b7f46616e4e46540000000000000000000000000000000000000000000000000000600082015250565b6000614cc8600683614241565b9150614cd382614c92565b602082019050919050565b7f4654000000000000000000000000000000000000000000000000000000000000600082015250565b6000614d14600283614241565b9150614d1f82614cde565b602082019050919050565b60006040820190508181036000830152614d4381614cbb565b90508181036020830152614d5681614d07565b9050919050565b600081519050614d6c81613ba8565b92915050565b600060208284031215614d8857614d87613b6c565b5b6000614d9684828501614d5d565b91505092915050565b7f6e6f7420656c696769626c650000000000000000000000000000000000000000600082015250565b6000614dd5600c83614241565b9150614de082614d9f565b602082019050919050565b60006020820190508181036000830152614e0481614dc8565b9050919050565b7f616c72656164792066616e000000000000000000000000000000000000000000600082015250565b6000614e41600b83614241565b9150614e4c82614e0b565b602082019050919050565b60006020820190508181036000830152614e7081614e34565b9050919050565b7f617574686f722072657175697265640000000000000000000000000000000000600082015250565b6000614ead600f83614241565b9150614eb882614e77565b602082019050919050565b60006020820190508181036000830152614edc81614ea0565b9050919050565b7f6e6f2066616e20636c7562000000000000000000000000000000000000000000600082015250565b6000614f19600b83614241565b9150614f2482614ee3565b602082019050919050565b60006020820190508181036000830152614f4881614f0c565b9050919050565b7f646f6e6174696f6e20667265657a696e672074696d6500000000000000000000600082015250565b6000614f85601683614241565b9150614f9082614f4f565b602082019050919050565b60006020820190508181036000830152614fb481614f78565b9050919050565b7f66616e206e656564656400000000000000000000000000000000000000000000600082015250565b6000614ff1600a83614241565b9150614ffc82614fbb565b602082019050919050565b6000602082019050818103600083015261502081614fe4565b9050919050565b7f756e7175616c696669656420616d6f756e740000000000000000000000000000600082015250565b600061505d601283614241565b915061506882615027565b602082019050919050565b6000602082019050818103600083015261508c81615050565b9050919050565b7f6f6e6c79205075726368617365204f6e63650000000000000000000000000000600082015250565b60006150c9601283614241565b91506150d482615093565b602082019050919050565b600060208201905081810360008301526150f8816150bc565b9050919050565b60006040820190508181036000830152615119818561427c565b90506151286020830184613f2c565b939250505056fea2646970667358221220694533a005351eb1714f39f3375d416020eee8007b759744de47e992dcfa3e3f64736f6c63430008120033",
  "linkReferences": {},
  "deployedLinkReferences": {}
}