{
  "_format": "hh-sol-artifact-1",
  "contractName": "FanNFTFactory",
  "sourceName": "contracts/FanNFTFactory.sol",
  "abi": [
    {
      "inputs": [
        {
          "internalType": "string",
          "name": "_tokenURI",
          "type": "string"
        }
      ],
      "stateMutability": "nonpayable",
      "type": "constructor"
    },
    {
      "anonymous": false,
      "inputs": [
        {
          "indexed": true,
          "internalType": "address",
          "name": "user",
          "type": "address"
        },
        {
          "indexed": true,
          "internalType": "address",
          "name": "newOwner",
          "type": "address"
        }
      ],
      "name": "OwnershipTransferred",
      "type": "event"
    },
    {
      "inputs": [
        {
          "internalType": "string",
          "name": "_name",
          "type": "string"
        },
        {
          "internalType": "string",
          "name": "_symbol",
          "type": "string"
        }
      ],
      "name": "createFanToken",
      "outputs": [
        {
          "internalType": "address",
          "name": "",
          "type": "address"
        }
      ],
      "stateMutability": "nonpayable",
      "type": "function"
    },
    {
      "inputs": [
        {
          "internalType": "address",
          "name": "fanNFT",
          "type": "address"
        },
        {
          "internalType": "address",
          "name": "fan",
          "type": "address"
        }
      ],
      "name": "getFanContribution",
      "outputs": [
        {
          "internalType": "uint256",
          "name": "",
          "type": "uint256"
        }
      ],
      "stateMutability": "view",
      "type": "function"
    },
    {
      "inputs": [
        {
          "internalType": "address",
          "name": "fanNFT",
          "type": "address"
        }
      ],
      "name": "getFanNumber",
      "outputs": [
        {
          "internalType": "uint256",
          "name": "",
          "type": "uint256"
        }
      ],
      "stateMutability": "view",
      "type": "function"
    },
    {
      "inputs": [
        {
          "internalType": "address",
          "name": "fanNFT",
          "type": "address"
        },
        {
          "internalType": "address",
          "name": "to",
          "type": "address"
        }
      ],
      "name": "mint",
      "outputs": [
        {
          "internalType": "uint256",
          "name": "",
          "type": "uint256"
        }
      ],
      "stateMutability": "nonpayable",
      "type": "function"
    },
    {
      "inputs": [],
      "name": "owner",
      "outputs": [
        {
          "internalType": "address",
          "name": "",
          "type": "address"
        }
      ],
      "stateMutability": "view",
      "type": "function"
    },
    {
      "inputs": [],
      "name": "tokenURI",
      "outputs": [
        {
          "internalType": "string",
          "name": "",
          "type": "string"
        }
      ],
      "stateMutability": "view",
      "type": "function"
    },
    {
      "inputs": [
        {
          "internalType": "address",
          "name": "newOwner",
          "type": "address"
        }
      ],
      "name": "transferOwnership",
      "outputs": [],
      "stateMutability": "nonpayable",
      "type": "function"
    },
    {
      "inputs": [
        {
          "internalType": "address",
          "name": "fanNFT",
          "type": "address"
        },
        {
          "internalType": "address",
          "name": "to",
          "type": "address"
        },
        {
          "internalType": "uint256",
          "name": "contributeToAdd",
          "type": "uint256"
        }
      ],
      "name": "upgradeFanContribute",
      "outputs": [],
      "stateMutability": "nonpayable",
      "type": "function"
    }
  ],
  "bytecode": "0x60806040523480156200001157600080fd5b5060405162003fc438038062003fc4833981810160405281019062000037919062000280565b33806000806101000a81548173ffffffffffffffffffffffffffffffffffffffff021916908373ffffffffffffffffffffffffffffffffffffffff1602179055508073ffffffffffffffffffffffffffffffffffffffff16600073ffffffffffffffffffffffffffffffffffffffff167f8be0079c531659141344cd1fd0a4f28419497f9722a3daafe3b4186f6b6457e060405160405180910390a3508060019081620000e591906200051c565b505062000603565b6000604051905090565b600080fd5b600080fd5b600080fd5b600080fd5b6000601f19601f8301169050919050565b7f4e487b7100000000000000000000000000000000000000000000000000000000600052604160045260246000fd5b62000156826200010b565b810181811067ffffffffffffffff821117156200017857620001776200011c565b5b80604052505050565b60006200018d620000ed565b90506200019b82826200014b565b919050565b600067ffffffffffffffff821115620001be57620001bd6200011c565b5b620001c9826200010b565b9050602081019050919050565b60005b83811015620001f6578082015181840152602081019050620001d9565b60008484015250505050565b6000620002196200021384620001a0565b62000181565b90508281526020810184848401111562000238576200023762000106565b5b62000245848285620001d6565b509392505050565b600082601f83011262000265576200026462000101565b5b81516200027784826020860162000202565b91505092915050565b600060208284031215620002995762000298620000f7565b5b600082015167ffffffffffffffff811115620002ba57620002b9620000fc565b5b620002c8848285016200024d565b91505092915050565b600081519050919050565b7f4e487b7100000000000000000000000000000000000000000000000000000000600052602260045260246000fd5b600060028204905060018216806200032457607f821691505b6020821081036200033a5762000339620002dc565b5b50919050565b60008190508160005260206000209050919050565b60006020601f8301049050919050565b600082821b905092915050565b600060088302620003a47fffffffffffffffffffffffffffffffffffffffffffffffffffffffffffffffff8262000365565b620003b0868362000365565b95508019841693508086168417925050509392505050565b6000819050919050565b6000819050919050565b6000620003fd620003f7620003f184620003c8565b620003d2565b620003c8565b9050919050565b6000819050919050565b6200041983620003dc565b62000431620004288262000404565b84845462000372565b825550505050565b600090565b6200044862000439565b620004558184846200040e565b505050565b5b818110156200047d57620004716000826200043e565b6001810190506200045b565b5050565b601f821115620004cc57620004968162000340565b620004a18462000355565b81016020851015620004b1578190505b620004c9620004c08562000355565b8301826200045a565b50505b505050565b600082821c905092915050565b6000620004f160001984600802620004d1565b1980831691505092915050565b60006200050c8383620004de565b9150826002028217905092915050565b6200052782620002d1565b67ffffffffffffffff8111156200054357620005426200011c565b5b6200054f82546200030b565b6200055c82828562000481565b600060209050601f8311600181146200059457600084156200057f578287015190505b6200058b8582620004fe565b865550620005fb565b601f198416620005a48662000340565b60005b82811015620005ce57848901518255600182019150602085019450602081019050620005a7565b86831015620005ee5784890151620005ea601f891682620004de565b8355505b6001600288020188555050505b505050505050565b6139b180620006136000396000f3fe60806040523480156200001157600080fd5b5060043610620000945760003560e01c8063bd3098ce1162000063578063bd3098ce1462000149578063bfaf8065146200017f578063ee1fe2ad146200019f578063f2fde38b14620001d55762000094565b80633ba0704314620000995780633c130d9014620000cf5780638da5cb5b14620000f15780639c6bb5811462000113575b600080fd5b620000b76004803603810190620000b19190620009eb565b620001f5565b604051620000c6919062000a38565b60405180910390f35b620000d962000270565b604051620000e8919062000aef565b60405180910390f35b620000fb62000306565b6040516200010a919062000b24565b60405180910390f35b6200013160048036038101906200012b919062000c92565b6200032a565b60405162000140919062000b24565b60405180910390f35b62000167600480360381019062000161919062000d17565b62000407565b60405162000176919062000a38565b60405180910390f35b6200019d600480360381019062000197919062000d8f565b6200050c565b005b620001bd6004803603810190620001b7919062000d17565b6200068f565b604051620001cc919062000a38565b60405180910390f35b620001f36004803603810190620001ed9190620009eb565b62000836565b005b60008173ffffffffffffffffffffffffffffffffffffffff166371ac543b6040518163ffffffff1660e01b8152600401602060405180830381865afa15801562000243573d6000803e3d6000fd5b505050506040513d601f19601f8201168201806040525081019062000269919062000e02565b9050919050565b600180546200027f9062000e63565b80601f0160208091040260200160405190810160405280929190818152602001828054620002ad9062000e63565b8015620002fe5780601f10620002d257610100808354040283529160200191620002fe565b820191906000526020600020905b815481529060010190602001808311620002e057829003601f168201915b505050505081565b60008054906101000a900473ffffffffffffffffffffffffffffffffffffffff1681565b60008060009054906101000a900473ffffffffffffffffffffffffffffffffffffffff1673ffffffffffffffffffffffffffffffffffffffff163373ffffffffffffffffffffffffffffffffffffffff1614620003be576040517f08c379a0000000000000000000000000000000000000000000000000000000008152600401620003b59062000ee8565b60405180910390fd5b60008383604051620003d09062000964565b620003dd92919062000f0a565b604051809103906000f080158015620003fa573d6000803e3d6000fd5b5090508091505092915050565b60008273ffffffffffffffffffffffffffffffffffffffff1663bf295249600260008673ffffffffffffffffffffffffffffffffffffffff1673ffffffffffffffffffffffffffffffffffffffff16815260200190815260200160002060008573ffffffffffffffffffffffffffffffffffffffff1673ffffffffffffffffffffffffffffffffffffffff168152602001908152602001600020546040518263ffffffff1660e01b8152600401620004c0919062000a38565b602060405180830381865afa158015620004de573d6000803e3d6000fd5b505050506040513d601f19601f8201168201806040525081019062000504919062000e02565b905092915050565b60008054906101000a900473ffffffffffffffffffffffffffffffffffffffff1673ffffffffffffffffffffffffffffffffffffffff163373ffffffffffffffffffffffffffffffffffffffff16146200059d576040517f08c379a0000000000000000000000000000000000000000000000000000000008152600401620005949062000ee8565b60405180910390fd5b8273ffffffffffffffffffffffffffffffffffffffff16632fb565e8600260008673ffffffffffffffffffffffffffffffffffffffff1673ffffffffffffffffffffffffffffffffffffffff16815260200190815260200160002060008573ffffffffffffffffffffffffffffffffffffffff1673ffffffffffffffffffffffffffffffffffffffff16815260200190815260200160002054836040518363ffffffff1660e01b81526004016200065692919062000f45565b600060405180830381600087803b1580156200067157600080fd5b505af115801562000686573d6000803e3d6000fd5b50505050505050565b60008060009054906101000a900473ffffffffffffffffffffffffffffffffffffffff1673ffffffffffffffffffffffffffffffffffffffff163373ffffffffffffffffffffffffffffffffffffffff161462000723576040517f08c379a00000000000000000000000000000000000000000000000000000000081526004016200071a9062000ee8565b60405180910390fd5b60008373ffffffffffffffffffffffffffffffffffffffff1663d0def5218460016040518363ffffffff1660e01b81526004016200076392919062001017565b6020604051808303816000875af115801562000783573d6000803e3d6000fd5b505050506040513d601f19601f82011682018060405250810190620007a9919062000e02565b905080600260008673ffffffffffffffffffffffffffffffffffffffff1673ffffffffffffffffffffffffffffffffffffffff16815260200190815260200160002060008573ffffffffffffffffffffffffffffffffffffffff1673ffffffffffffffffffffffffffffffffffffffff168152602001908152602001600020819055508091505092915050565b60008054906101000a900473ffffffffffffffffffffffffffffffffffffffff1673ffffffffffffffffffffffffffffffffffffffff163373ffffffffffffffffffffffffffffffffffffffff1614620008c7576040517f08c379a0000000000000000000000000000000000000000000000000000000008152600401620008be9062000ee8565b60405180910390fd5b806000806101000a81548173ffffffffffffffffffffffffffffffffffffffff021916908373ffffffffffffffffffffffffffffffffffffffff1602179055508073ffffffffffffffffffffffffffffffffffffffff163373ffffffffffffffffffffffffffffffffffffffff167f8be0079c531659141344cd1fd0a4f28419497f9722a3daafe3b4186f6b6457e060405160405180910390a350565b612930806200104c83390190565b6000604051905090565b600080fd5b600080fd5b600073ffffffffffffffffffffffffffffffffffffffff82169050919050565b6000620009b38262000986565b9050919050565b620009c581620009a6565b8114620009d157600080fd5b50565b600081359050620009e581620009ba565b92915050565b60006020828403121562000a045762000a036200097c565b5b600062000a1484828501620009d4565b91505092915050565b6000819050919050565b62000a328162000a1d565b82525050565b600060208201905062000a4f600083018462000a27565b92915050565b600081519050919050565b600082825260208201905092915050565b60005b8381101562000a9157808201518184015260208101905062000a74565b60008484015250505050565b6000601f19601f8301169050919050565b600062000abb8262000a55565b62000ac7818562000a60565b935062000ad981856020860162000a71565b62000ae48162000a9d565b840191505092915050565b6000602082019050818103600083015262000b0b818462000aae565b905092915050565b62000b1e81620009a6565b82525050565b600060208201905062000b3b600083018462000b13565b92915050565b600080fd5b600080fd5b7f4e487b7100000000000000000000000000000000000000000000000000000000600052604160045260246000fd5b62000b858262000a9d565b810181811067ffffffffffffffff8211171562000ba75762000ba662000b4b565b5b80604052505050565b600062000bbc62000972565b905062000bca828262000b7a565b919050565b600067ffffffffffffffff82111562000bed5762000bec62000b4b565b5b62000bf88262000a9d565b9050602081019050919050565b82818337600083830152505050565b600062000c2b62000c258462000bcf565b62000bb0565b90508281526020810184848401111562000c4a5762000c4962000b46565b5b62000c5784828562000c05565b509392505050565b600082601f83011262000c775762000c7662000b41565b5b813562000c8984826020860162000c14565b91505092915050565b6000806040838503121562000cac5762000cab6200097c565b5b600083013567ffffffffffffffff81111562000ccd5762000ccc62000981565b5b62000cdb8582860162000c5f565b925050602083013567ffffffffffffffff81111562000cff5762000cfe62000981565b5b62000d0d8582860162000c5f565b9150509250929050565b6000806040838503121562000d315762000d306200097c565b5b600062000d4185828601620009d4565b925050602062000d5485828601620009d4565b9150509250929050565b62000d698162000a1d565b811462000d7557600080fd5b50565b60008135905062000d898162000d5e565b92915050565b60008060006060848603121562000dab5762000daa6200097c565b5b600062000dbb86828701620009d4565b935050602062000dce86828701620009d4565b925050604062000de18682870162000d78565b9150509250925092565b60008151905062000dfc8162000d5e565b92915050565b60006020828403121562000e1b5762000e1a6200097c565b5b600062000e2b8482850162000deb565b91505092915050565b7f4e487b7100000000000000000000000000000000000000000000000000000000600052602260045260246000fd5b6000600282049050600182168062000e7c57607f821691505b60208210810362000e925762000e9162000e34565b5b50919050565b7f554e415554484f52495a45440000000000000000000000000000000000000000600082015250565b600062000ed0600c8362000a60565b915062000edd8262000e98565b602082019050919050565b6000602082019050818103600083015262000f038162000ec1565b9050919050565b6000604082019050818103600083015262000f26818562000aae565b9050818103602083015262000f3c818462000aae565b90509392505050565b600060408201905062000f5c600083018562000a27565b62000f6b602083018462000a27565b9392505050565b60008190508160005260206000209050919050565b6000815462000f968162000e63565b62000fa2818662000a60565b9450600182166000811462000fc0576001811462000fd7576200100e565b60ff1983168652811515602002860193506200100e565b62000fe28562000f72565b60005b83811015620010065781548189015260018201915060208101905062000fe5565b808801955050505b50505092915050565b60006040820190506200102e600083018562000b13565b818103602083015262001042818462000f87565b9050939250505056fe60806040523480156200001157600080fd5b506040516200293038038062002930833981810160405281019062000037919062000298565b33828281600090816200004b919062000568565b5080600190816200005d919062000568565b50505080600660006101000a81548173ffffffffffffffffffffffffffffffffffffffff021916908373ffffffffffffffffffffffffffffffffffffffff1602179055508073ffffffffffffffffffffffffffffffffffffffff16600073ffffffffffffffffffffffffffffffffffffffff167f8be0079c531659141344cd1fd0a4f28419497f9722a3daafe3b4186f6b6457e060405160405180910390a35050506200064f565b6000604051905090565b600080fd5b600080fd5b600080fd5b600080fd5b6000601f19601f8301169050919050565b7f4e487b7100000000000000000000000000000000000000000000000000000000600052604160045260246000fd5b6200016e8262000123565b810181811067ffffffffffffffff8211171562000190576200018f62000134565b5b80604052505050565b6000620001a562000105565b9050620001b3828262000163565b919050565b600067ffffffffffffffff821115620001d657620001d562000134565b5b620001e18262000123565b9050602081019050919050565b60005b838110156200020e578082015181840152602081019050620001f1565b60008484015250505050565b6000620002316200022b84620001b8565b62000199565b90508281526020810184848401111562000250576200024f6200011e565b5b6200025d848285620001ee565b509392505050565b600082601f8301126200027d576200027c62000119565b5b81516200028f8482602086016200021a565b91505092915050565b60008060408385031215620002b257620002b16200010f565b5b600083015167ffffffffffffffff811115620002d357620002d262000114565b5b620002e18582860162000265565b925050602083015167ffffffffffffffff81111562000305576200030462000114565b5b620003138582860162000265565b9150509250929050565b600081519050919050565b7f4e487b7100000000000000000000000000000000000000000000000000000000600052602260045260246000fd5b600060028204905060018216806200037057607f821691505b60208210810362000386576200038562000328565b5b50919050565b60008190508160005260206000209050919050565b60006020601f8301049050919050565b600082821b905092915050565b600060088302620003f07fffffffffffffffffffffffffffffffffffffffffffffffffffffffffffffffff82620003b1565b620003fc8683620003b1565b95508019841693508086168417925050509392505050565b6000819050919050565b6000819050919050565b600062000449620004436200043d8462000414565b6200041e565b62000414565b9050919050565b6000819050919050565b620004658362000428565b6200047d620004748262000450565b848454620003be565b825550505050565b600090565b6200049462000485565b620004a18184846200045a565b505050565b5b81811015620004c957620004bd6000826200048a565b600181019050620004a7565b5050565b601f8211156200051857620004e2816200038c565b620004ed84620003a1565b81016020851015620004fd578190505b620005156200050c85620003a1565b830182620004a6565b50505b505050565b600082821c905092915050565b60006200053d600019846008026200051d565b1980831691505092915050565b60006200055883836200052a565b9150826002028217905092915050565b62000573826200031d565b67ffffffffffffffff8111156200058f576200058e62000134565b5b6200059b825462000357565b620005a8828285620004cd565b600060209050601f831160018114620005e05760008415620005cb578287015190505b620005d785826200054a565b86555062000647565b601f198416620005f0866200038c565b60005b828110156200061a57848901518255600182019150602085019450602081019050620005f3565b868310156200063a578489015162000636601f8916826200052a565b8355505b6001600288020188555050505b505050505050565b6122d1806200065f6000396000f3fe608060405234801561001057600080fd5b506004361061012c5760003560e01c806371ac543b116100ad578063bf29524911610071578063bf2952491461032d578063c87b56dd1461035d578063d0def5211461038d578063e985e9c5146103bd578063f2fde38b146103ed5761012c565b806371ac543b1461029b5780638da5cb5b146102b957806395d89b41146102d7578063a22cb465146102f5578063b88d4fde146103115761012c565b806323b872dd116100f457806323b872dd146101e75780632fb565e81461020357806342842e0e1461021f5780636352211e1461023b57806370a082311461026b5761012c565b806301ffc9a71461013157806306fdde0314610161578063081812fc1461017f578063095ea7b3146101af578063162094c4146101cb575b600080fd5b61014b60048036038101906101469190611411565b610409565b6040516101589190611459565b60405180910390f35b61016961049b565b6040516101769190611504565b60405180910390f35b6101996004803603810190610194919061155c565b610529565b6040516101a691906115ca565b60405180910390f35b6101c960048036038101906101c49190611611565b61055c565b005b6101e560048036038101906101e09190611786565b610745565b005b61020160048036038101906101fc91906117e2565b6107fa565b005b61021d60048036038101906102189190611835565b610835565b005b610239600480360381019061023491906117e2565b6108f3565b005b6102556004803603810190610250919061155c565b610a2b565b60405161026291906115ca565b60405180910390f35b61028560048036038101906102809190611875565b610ad6565b60405161029291906118b1565b60405180910390f35b6102a3610b8d565b6040516102b091906118b1565b60405180910390f35b6102c1610b9e565b6040516102ce91906115ca565b60405180910390f35b6102df610bc4565b6040516102ec9190611504565b60405180910390f35b61030f600480360381019061030a91906118f8565b610c52565b005b61032b60048036038101906103269190611998565b610d4f565b005b6103476004803603810190610342919061155c565b610e8d565b60405161035491906118b1565b60405180910390f35b6103776004803603810190610372919061155c565b610ea5565b6040516103849190611504565b60405180910390f35b6103a760048036038101906103a29190611a20565b610f4a565b6040516103b491906118b1565b60405180910390f35b6103d760048036038101906103d29190611a7c565b611012565b6040516103e49190611459565b60405180910390f35b61040760048036038101906104029190611875565b611041565b005b60006301ffc9a760e01b827bffffffffffffffffffffffffffffffffffffffffffffffffffffffff1916148061046457506380ac58cd60e01b827bffffffffffffffffffffffffffffffffffffffffffffffffffffffff1916145b806104945750635b5e139f60e01b827bffffffffffffffffffffffffffffffffffffffffffffffffffffffff1916145b9050919050565b600080546104a890611aeb565b80601f01602080910402602001604051908101604052809291908181526020018280546104d490611aeb565b80156105215780601f106104f657610100808354040283529160200191610521565b820191906000526020600020905b81548152906001019060200180831161050457829003601f168201915b505050505081565b60046020528060005260406000206000915054906101000a900473ffffffffffffffffffffffffffffffffffffffff1681565b60006002600083815260200190815260200160002060009054906101000a900473ffffffffffffffffffffffffffffffffffffffff1690508073ffffffffffffffffffffffffffffffffffffffff163373ffffffffffffffffffffffffffffffffffffffff1614806106545750600560008273ffffffffffffffffffffffffffffffffffffffff1673ffffffffffffffffffffffffffffffffffffffff16815260200190815260200160002060003373ffffffffffffffffffffffffffffffffffffffff1673ffffffffffffffffffffffffffffffffffffffff16815260200190815260200160002060009054906101000a900460ff165b610693576040517f08c379a000000000000000000000000000000000000000000000000000000000815260040161068a90611b68565b60405180910390fd5b826004600084815260200190815260200160002060006101000a81548173ffffffffffffffffffffffffffffffffffffffff021916908373ffffffffffffffffffffffffffffffffffffffff160217905550818373ffffffffffffffffffffffffffffffffffffffff168273ffffffffffffffffffffffffffffffffffffffff167f8c5be1e5ebec7d5bd14f71427d1e84f3dd0314c0f7b2291e5b200ac8c7c3b92560405160405180910390a4505050565b600660009054906101000a900473ffffffffffffffffffffffffffffffffffffffff1673ffffffffffffffffffffffffffffffffffffffff163373ffffffffffffffffffffffffffffffffffffffff16146107d5576040517f08c379a00000000000000000000000000000000000000000000000000000000081526004016107cc90611bd4565b60405180910390fd5b806008600084815260200190815260200160002090816107f59190611da0565b505050565b6040517f08c379a000000000000000000000000000000000000000000000000000000000815260040161082c90611ebe565b60405180910390fd5b600660009054906101000a900473ffffffffffffffffffffffffffffffffffffffff1673ffffffffffffffffffffffffffffffffffffffff163373ffffffffffffffffffffffffffffffffffffffff16146108c5576040517f08c379a00000000000000000000000000000000000000000000000000000000081526004016108bc90611bd4565b60405180910390fd5b806009600084815260200190815260200160002060008282546108e89190611f0d565b925050819055505050565b6108fe8383836107fa565b60008273ffffffffffffffffffffffffffffffffffffffff163b14806109e7575063150b7a0260e01b7bffffffffffffffffffffffffffffffffffffffffffffffffffffffff19168273ffffffffffffffffffffffffffffffffffffffff1663150b7a023386856040518463ffffffff1660e01b815260040161098393929190611f78565b6020604051808303816000875af11580156109a2573d6000803e3d6000fd5b505050506040513d601f19601f820116820180604052508101906109c69190611fd7565b7bffffffffffffffffffffffffffffffffffffffffffffffffffffffff1916145b610a26576040517f08c379a0000000000000000000000000000000000000000000000000000000008152600401610a1d90612050565b60405180910390fd5b505050565b60008073ffffffffffffffffffffffffffffffffffffffff166002600084815260200190815260200160002060009054906101000a900473ffffffffffffffffffffffffffffffffffffffff1691508173ffffffffffffffffffffffffffffffffffffffff1603610ad1576040517f08c379a0000000000000000000000000000000000000000000000000000000008152600401610ac8906120bc565b60405180910390fd5b919050565b60008073ffffffffffffffffffffffffffffffffffffffff168273ffffffffffffffffffffffffffffffffffffffff1603610b46576040517f08c379a0000000000000000000000000000000000000000000000000000000008152600401610b3d90612128565b60405180910390fd5b600360008373ffffffffffffffffffffffffffffffffffffffff1673ffffffffffffffffffffffffffffffffffffffff168152602001908152602001600020549050919050565b6000610b99600761116f565b905090565b600660009054906101000a900473ffffffffffffffffffffffffffffffffffffffff1681565b60018054610bd190611aeb565b80601f0160208091040260200160405190810160405280929190818152602001828054610bfd90611aeb565b8015610c4a5780601f10610c1f57610100808354040283529160200191610c4a565b820191906000526020600020905b815481529060010190602001808311610c2d57829003601f168201915b505050505081565b80600560003373ffffffffffffffffffffffffffffffffffffffff1673ffffffffffffffffffffffffffffffffffffffff16815260200190815260200160002060008473ffffffffffffffffffffffffffffffffffffffff1673ffffffffffffffffffffffffffffffffffffffff16815260200190815260200160002060006101000a81548160ff0219169083151502179055508173ffffffffffffffffffffffffffffffffffffffff163373ffffffffffffffffffffffffffffffffffffffff167f17307eab39ab6107e8899845ad3d59bd9653f200f220920489ca2b5937696c3183604051610d439190611459565b60405180910390a35050565b610d5a8585856107fa565b60008473ffffffffffffffffffffffffffffffffffffffff163b1480610e47575063150b7a0260e01b7bffffffffffffffffffffffffffffffffffffffffffffffffffffffff19168473ffffffffffffffffffffffffffffffffffffffff1663150b7a0233888787876040518663ffffffff1660e01b8152600401610de3959493929190612175565b6020604051808303816000875af1158015610e02573d6000803e3d6000fd5b505050506040513d601f19601f82011682018060405250810190610e269190611fd7565b7bffffffffffffffffffffffffffffffffffffffffffffffffffffffff1916145b610e86576040517f08c379a0000000000000000000000000000000000000000000000000000000008152600401610e7d90612050565b60405180910390fd5b5050505050565b60096020528060005260406000206000915090505481565b6060600860008381526020019081526020016000208054610ec590611aeb565b80601f0160208091040260200160405190810160405280929190818152602001828054610ef190611aeb565b8015610f3e5780601f10610f1357610100808354040283529160200191610f3e565b820191906000526020600020905b815481529060010190602001808311610f2157829003601f168201915b50505050509050919050565b6000600660009054906101000a900473ffffffffffffffffffffffffffffffffffffffff1673ffffffffffffffffffffffffffffffffffffffff163373ffffffffffffffffffffffffffffffffffffffff1614610fdc576040517f08c379a0000000000000000000000000000000000000000000000000000000008152600401610fd390611bd4565b60405180910390fd5b6000610fe8600761116f565b9050610ff4848261117d565b610ffe8184610745565b611008600761138f565b8091505092915050565b60056020528160005260406000206020528060005260406000206000915091509054906101000a900460ff1681565b600660009054906101000a900473ffffffffffffffffffffffffffffffffffffffff1673ffffffffffffffffffffffffffffffffffffffff163373ffffffffffffffffffffffffffffffffffffffff16146110d1576040517f08c379a00000000000000000000000000000000000000000000000000000000081526004016110c890611bd4565b60405180910390fd5b80600660006101000a81548173ffffffffffffffffffffffffffffffffffffffff021916908373ffffffffffffffffffffffffffffffffffffffff1602179055508073ffffffffffffffffffffffffffffffffffffffff163373ffffffffffffffffffffffffffffffffffffffff167f8be0079c531659141344cd1fd0a4f28419497f9722a3daafe3b4186f6b6457e060405160405180910390a350565b600081600001549050919050565b600073ffffffffffffffffffffffffffffffffffffffff168273ffffffffffffffffffffffffffffffffffffffff16036111ec576040517f08c379a00000000000000000000000000000000000000000000000000000000081526004016111e39061220f565b60405180910390fd5b600073ffffffffffffffffffffffffffffffffffffffff166002600083815260200190815260200160002060009054906101000a900473ffffffffffffffffffffffffffffffffffffffff1673ffffffffffffffffffffffffffffffffffffffff161461128e576040517f08c379a00000000000000000000000000000000000000000000000000000000081526004016112859061227b565b60405180910390fd5b600360008373ffffffffffffffffffffffffffffffffffffffff1673ffffffffffffffffffffffffffffffffffffffff16815260200190815260200160002060008154809291906001019190505550816002600083815260200190815260200160002060006101000a81548173ffffffffffffffffffffffffffffffffffffffff021916908373ffffffffffffffffffffffffffffffffffffffff160217905550808273ffffffffffffffffffffffffffffffffffffffff16600073ffffffffffffffffffffffffffffffffffffffff167fddf252ad1be2c89b69c2b068fc378daa952ba7f163c4a11628f55a4df523b3ef60405160405180910390a45050565b6001816000016000828254019250508190555050565b6000604051905090565b600080fd5b600080fd5b60007fffffffff0000000000000000000000000000000000000000000000000000000082169050919050565b6113ee816113b9565b81146113f957600080fd5b50565b60008135905061140b816113e5565b92915050565b600060208284031215611427576114266113af565b5b6000611435848285016113fc565b91505092915050565b60008115159050919050565b6114538161143e565b82525050565b600060208201905061146e600083018461144a565b92915050565b600081519050919050565b600082825260208201905092915050565b60005b838110156114ae578082015181840152602081019050611493565b60008484015250505050565b6000601f19601f8301169050919050565b60006114d682611474565b6114e0818561147f565b93506114f0818560208601611490565b6114f9816114ba565b840191505092915050565b6000602082019050818103600083015261151e81846114cb565b905092915050565b6000819050919050565b61153981611526565b811461154457600080fd5b50565b60008135905061155681611530565b92915050565b600060208284031215611572576115716113af565b5b600061158084828501611547565b91505092915050565b600073ffffffffffffffffffffffffffffffffffffffff82169050919050565b60006115b482611589565b9050919050565b6115c4816115a9565b82525050565b60006020820190506115df60008301846115bb565b92915050565b6115ee816115a9565b81146115f957600080fd5b50565b60008135905061160b816115e5565b92915050565b60008060408385031215611628576116276113af565b5b6000611636858286016115fc565b925050602061164785828601611547565b9150509250929050565b600080fd5b600080fd5b7f4e487b7100000000000000000000000000000000000000000000000000000000600052604160045260246000fd5b611693826114ba565b810181811067ffffffffffffffff821117156116b2576116b161165b565b5b80604052505050565b60006116c56113a5565b90506116d1828261168a565b919050565b600067ffffffffffffffff8211156116f1576116f061165b565b5b6116fa826114ba565b9050602081019050919050565b82818337600083830152505050565b6000611729611724846116d6565b6116bb565b90508281526020810184848401111561174557611744611656565b5b611750848285611707565b509392505050565b600082601f83011261176d5761176c611651565b5b813561177d848260208601611716565b91505092915050565b6000806040838503121561179d5761179c6113af565b5b60006117ab85828601611547565b925050602083013567ffffffffffffffff8111156117cc576117cb6113b4565b5b6117d885828601611758565b9150509250929050565b6000806000606084860312156117fb576117fa6113af565b5b6000611809868287016115fc565b935050602061181a868287016115fc565b925050604061182b86828701611547565b9150509250925092565b6000806040838503121561184c5761184b6113af565b5b600061185a85828601611547565b925050602061186b85828601611547565b9150509250929050565b60006020828403121561188b5761188a6113af565b5b6000611899848285016115fc565b91505092915050565b6118ab81611526565b82525050565b60006020820190506118c660008301846118a2565b92915050565b6118d58161143e565b81146118e057600080fd5b50565b6000813590506118f2816118cc565b92915050565b6000806040838503121561190f5761190e6113af565b5b600061191d858286016115fc565b925050602061192e858286016118e3565b9150509250929050565b600080fd5b600080fd5b60008083601f84011261195857611957611651565b5b8235905067ffffffffffffffff81111561197557611974611938565b5b6020830191508360018202830111156119915761199061193d565b5b9250929050565b6000806000806000608086880312156119b4576119b36113af565b5b60006119c2888289016115fc565b95505060206119d3888289016115fc565b94505060406119e488828901611547565b935050606086013567ffffffffffffffff811115611a0557611a046113b4565b5b611a1188828901611942565b92509250509295509295909350565b60008060408385031215611a3757611a366113af565b5b6000611a45858286016115fc565b925050602083013567ffffffffffffffff811115611a6657611a656113b4565b5b611a7285828601611758565b9150509250929050565b60008060408385031215611a9357611a926113af565b5b6000611aa1858286016115fc565b9250506020611ab2858286016115fc565b9150509250929050565b7f4e487b7100000000000000000000000000000000000000000000000000000000600052602260045260246000fd5b60006002820490506001821680611b0357607f821691505b602082108103611b1657611b15611abc565b5b50919050565b7f4e4f545f415554484f52495a4544000000000000000000000000000000000000600082015250565b6000611b52600e8361147f565b9150611b5d82611b1c565b602082019050919050565b60006020820190508181036000830152611b8181611b45565b9050919050565b7f554e415554484f52495a45440000000000000000000000000000000000000000600082015250565b6000611bbe600c8361147f565b9150611bc982611b88565b602082019050919050565b60006020820190508181036000830152611bed81611bb1565b9050919050565b60008190508160005260206000209050919050565b60006020601f8301049050919050565b600082821b905092915050565b600060088302611c567fffffffffffffffffffffffffffffffffffffffffffffffffffffffffffffffff82611c19565b611c608683611c19565b95508019841693508086168417925050509392505050565b6000819050919050565b6000611c9d611c98611c9384611526565b611c78565b611526565b9050919050565b6000819050919050565b611cb783611c82565b611ccb611cc382611ca4565b848454611c26565b825550505050565b600090565b611ce0611cd3565b611ceb818484611cae565b505050565b5b81811015611d0f57611d04600082611cd8565b600181019050611cf1565b5050565b601f821115611d5457611d2581611bf4565b611d2e84611c09565b81016020851015611d3d578190505b611d51611d4985611c09565b830182611cf0565b50505b505050565b600082821c905092915050565b6000611d7760001984600802611d59565b1980831691505092915050565b6000611d908383611d66565b9150826002028217905092915050565b611da982611474565b67ffffffffffffffff811115611dc257611dc161165b565b5b611dcc8254611aeb565b611dd7828285611d13565b600060209050601f831160018114611e0a5760008415611df8578287015190505b611e028582611d84565b865550611e6a565b601f198416611e1886611bf4565b60005b82811015611e4057848901518255600182019150602085019450602081019050611e1b565b86831015611e5d5784890151611e59601f891682611d66565b8355505b6001600288020188555050505b505050505050565b7f43616e742074726164652046616e4e4654000000000000000000000000000000600082015250565b6000611ea860118361147f565b9150611eb382611e72565b602082019050919050565b60006020820190508181036000830152611ed781611e9b565b9050919050565b7f4e487b7100000000000000000000000000000000000000000000000000000000600052601160045260246000fd5b6000611f1882611526565b9150611f2383611526565b9250828201905080821115611f3b57611f3a611ede565b5b92915050565b600082825260208201905092915050565b50565b6000611f62600083611f41565b9150611f6d82611f52565b600082019050919050565b6000608082019050611f8d60008301866115bb565b611f9a60208301856115bb565b611fa760408301846118a2565b8181036060830152611fb881611f55565b9050949350505050565b600081519050611fd1816113e5565b92915050565b600060208284031215611fed57611fec6113af565b5b6000611ffb84828501611fc2565b91505092915050565b7f554e534146455f524543495049454e5400000000000000000000000000000000600082015250565b600061203a60108361147f565b915061204582612004565b602082019050919050565b600060208201905081810360008301526120698161202d565b9050919050565b7f4e4f545f4d494e54454400000000000000000000000000000000000000000000600082015250565b60006120a6600a8361147f565b91506120b182612070565b602082019050919050565b600060208201905081810360008301526120d581612099565b9050919050565b7f5a45524f5f414444524553530000000000000000000000000000000000000000600082015250565b6000612112600c8361147f565b915061211d826120dc565b602082019050919050565b6000602082019050818103600083015261214181612105565b9050919050565b60006121548385611f41565b9350612161838584611707565b61216a836114ba565b840190509392505050565b600060808201905061218a60008301886115bb565b61219760208301876115bb565b6121a460408301866118a2565b81810360608301526121b7818486612148565b90509695505050505050565b7f494e56414c49445f524543495049454e54000000000000000000000000000000600082015250565b60006121f960118361147f565b9150612204826121c3565b602082019050919050565b60006020820190508181036000830152612228816121ec565b9050919050565b7f414c52454144595f4d494e544544000000000000000000000000000000000000600082015250565b6000612265600e8361147f565b91506122708261222f565b602082019050919050565b6000602082019050818103600083015261229481612258565b905091905056fea2646970667358221220e26245b738e24f0e80d8f6f08fc126d514102bea179c961913a75a9592e625fb64736f6c63430008120033a2646970667358221220a9970644a1ad495858d5ddfaed5a9eea8871f4730c59a15371af238b35bee4c164736f6c63430008120033",
  "linkReferences": {},
  "deployedLinkReferences": {}
}