{
  "_format": "hh-sol-artifact-1",
  "contractName": "MusicVault",
  "sourceName": "contracts/MusicVault.sol",
  "abi": [
    {
      "inputs": [
        {
          "internalType": "address",
          "name": "_vaultToken",
          "type": "address"
        },
        {
          "internalType": "address",
          "name": "_vaultNFT",
          "type": "address"
        },
        {
          "internalType": "address",
          "name": "_factory",
          "type": "address"
        }
      ],
      "stateMutability": "nonpayable",
      "type": "constructor"
    },
    {
      "anonymous": false,
      "inputs": [
        {
          "indexed": false,
          "internalType": "address",
          "name": "author",
          "type": "address"
        },
        {
          "indexed": false,
          "internalType": "uint256",
          "name": "musicId",
          "type": "uint256"
        }
      ],
      "name": "airdrop",
      "type": "event"
    },
    {
      "anonymous": false,
      "inputs": [
        {
          "indexed": false,
          "internalType": "address",
          "name": "author",
          "type": "address"
        },
        {
          "indexed": false,
          "internalType": "address",
          "name": "fan",
          "type": "address"
        },
        {
          "indexed": false,
          "internalType": "uint256",
          "name": "amount",
          "type": "uint256"
        }
      ],
      "name": "donate",
      "type": "event"
    },
    {
      "anonymous": false,
      "inputs": [
        {
          "indexed": true,
          "internalType": "address",
          "name": "musician",
          "type": "address"
        },
        {
          "indexed": true,
          "internalType": "address",
          "name": "fanNFT",
          "type": "address"
        }
      ],
      "name": "fanClubCreate",
      "type": "event"
    },
    {
      "anonymous": false,
      "inputs": [
        {
          "indexed": true,
          "internalType": "address",
          "name": "musician",
          "type": "address"
        },
        {
          "indexed": true,
          "internalType": "address",
          "name": "fanNFT",
          "type": "address"
        },
        {
          "indexed": true,
          "internalType": "address",
          "name": "fan",
          "type": "address"
        }
      ],
      "name": "fanClubJoin",
      "type": "event"
    },
    {
      "anonymous": false,
      "inputs": [],
      "name": "leaderBoardRefresh",
      "type": "event"
    },
    {
      "anonymous": false,
      "inputs": [
        {
          "indexed": true,
          "internalType": "address",
          "name": "buyer",
          "type": "address"
        },
        {
          "indexed": true,
          "internalType": "uint256",
          "name": "musicId",
          "type": "uint256"
        },
        {
          "indexed": false,
          "internalType": "string",
          "name": "musicName",
          "type": "string"
        },
        {
          "indexed": false,
          "internalType": "uint256",
          "name": "amount",
          "type": "uint256"
        }
      ],
      "name": "musicPurchase",
      "type": "event"
    },
    {
      "anonymous": false,
      "inputs": [
        {
          "indexed": true,
          "internalType": "address",
          "name": "musician",
          "type": "address"
        },
        {
          "indexed": true,
          "internalType": "uint256",
          "name": "musicId",
          "type": "uint256"
        },
        {
          "indexed": false,
          "internalType": "string",
          "name": "musicName",
          "type": "string"
        }
      ],
      "name": "musicUpload",
      "type": "event"
    },
    {
      "anonymous": false,
      "inputs": [
        {
          "indexed": true,
          "internalType": "address",
          "name": "buyer",
          "type": "address"
        },
        {
          "indexed": true,
          "internalType": "uint256",
          "name": "musicId",
          "type": "uint256"
        },
        {
          "indexed": false,
          "internalType": "string",
          "name": "musicName",
          "type": "string"
        },
        {
          "indexed": false,
          "internalType": "uint256",
          "name": "amount",
          "type": "uint256"
        }
      ],
      "name": "musicVote",
      "type": "event"
    },
    {
      "inputs": [
        {
          "internalType": "address",
          "name": "",
          "type": "address"
        }
      ],
      "name": "address2IsUserMapping",
      "outputs": [
        {
          "internalType": "bool",
          "name": "",
          "type": "bool"
        }
      ],
      "stateMutability": "view",
      "type": "function"
    },
    {
      "inputs": [
        {
          "internalType": "address",
          "name": "",
          "type": "address"
        }
      ],
      "name": "address2UserMapping",
      "outputs": [
        {
          "internalType": "uint256",
          "name": "purchase",
          "type": "uint256"
        },
        {
          "internalType": "uint256",
          "name": "vote",
          "type": "uint256"
        },
        {
          "internalType": "uint256",
          "name": "totalExpense",
          "type": "uint256"
        },
        {
          "internalType": "uint256",
          "name": "totalRevenue",
          "type": "uint256"
        },
        {
          "internalType": "uint256",
          "name": "soldCopy",
          "type": "uint256"
        },
        {
          "internalType": "uint256",
          "name": "receivedVote",
          "type": "uint256"
        },
        {
          "internalType": "address",
          "name": "fanNFT",
          "type": "address"
        },
        {
          "internalType": "string",
          "name": "chatId",
          "type": "string"
        }
      ],
      "stateMutability": "view",
      "type": "function"
    },
    {
      "inputs": [
        {
          "internalType": "uint256",
          "name": "musicId",
          "type": "uint256"
        },
        {
          "internalType": "uint256",
          "name": "contributeEntry",
          "type": "uint256"
        }
      ],
      "name": "airdropMusic",
      "outputs": [],
      "stateMutability": "nonpayable",
      "type": "function"
    },
    {
      "inputs": [
        {
          "internalType": "address",
          "name": "",
          "type": "address"
        },
        {
          "internalType": "address",
          "name": "",
          "type": "address"
        }
      ],
      "name": "author2userEligibleMapping",
      "outputs": [
        {
          "internalType": "bool",
          "name": "",
          "type": "bool"
        }
      ],
      "stateMutability": "view",
      "type": "function"
    },
    {
      "inputs": [
        {
          "internalType": "uint256",
          "name": "musicId",
          "type": "uint256"
        },
        {
          "internalType": "uint256",
          "name": "amount",
          "type": "uint256"
        }
      ],
      "name": "calculatePurchaseFee",
      "outputs": [
        {
          "internalType": "uint256",
          "name": "",
          "type": "uint256"
        }
      ],
      "stateMutability": "view",
      "type": "function"
    },
    {
      "inputs": [
        {
          "internalType": "uint256",
          "name": "baseFee",
          "type": "uint256"
        },
        {
          "internalType": "uint256",
          "name": "amount",
          "type": "uint256"
        }
      ],
      "name": "calculateSquaredFee",
      "outputs": [
        {
          "internalType": "uint256",
          "name": "",
          "type": "uint256"
        }
      ],
      "stateMutability": "pure",
      "type": "function"
    },
    {
      "inputs": [
        {
          "internalType": "uint256",
          "name": "amount",
          "type": "uint256"
        }
      ],
      "name": "calculateVoteFee",
      "outputs": [
        {
          "internalType": "uint256",
          "name": "",
          "type": "uint256"
        }
      ],
      "stateMutability": "pure",
      "type": "function"
    },
    {
      "inputs": [
        {
          "internalType": "address",
          "name": "author",
          "type": "address"
        }
      ],
      "name": "canBeFollowed",
      "outputs": [
        {
          "internalType": "bool",
          "name": "",
          "type": "bool"
        }
      ],
      "stateMutability": "view",
      "type": "function"
    },
    {
      "inputs": [
        {
          "internalType": "address",
          "name": "",
          "type": "address"
        },
        {
          "internalType": "uint256",
          "name": "",
          "type": "uint256"
        }
      ],
      "name": "collector2MusicIdMapping",
      "outputs": [
        {
          "internalType": "uint256",
          "name": "",
          "type": "uint256"
        }
      ],
      "stateMutability": "view",
      "type": "function"
    },
    {
      "inputs": [
        {
          "internalType": "string",
          "name": "",
          "type": "string"
        }
      ],
      "name": "contentUploadedMapping",
      "outputs": [
        {
          "internalType": "bool",
          "name": "",
          "type": "bool"
        }
      ],
      "stateMutability": "view",
      "type": "function"
    },
    {
      "inputs": [
        {
          "internalType": "string",
          "name": "fanNFTName",
          "type": "string"
        }
      ],
      "name": "createFanNFT",
      "outputs": [],
      "stateMutability": "nonpayable",
      "type": "function"
    },
    {
      "inputs": [
        {
          "internalType": "address",
          "name": "author",
          "type": "address"
        },
        {
          "internalType": "uint256",
          "name": "amount",
          "type": "uint256"
        }
      ],
      "name": "donateToAuthor",
      "outputs": [],
      "stateMutability": "nonpayable",
      "type": "function"
    },
    {
      "inputs": [],
      "name": "fanNFTFactory",
      "outputs": [
        {
          "internalType": "contract IFanNFTFactory",
          "name": "",
          "type": "address"
        }
      ],
      "stateMutability": "view",
      "type": "function"
    },
    {
      "inputs": [
        {
          "internalType": "address",
          "name": "author",
          "type": "address"
        }
      ],
      "name": "followMusician",
      "outputs": [],
      "stateMutability": "nonpayable",
      "type": "function"
    },
    {
      "inputs": [
        {
          "internalType": "address",
          "name": "_user",
          "type": "address"
        }
      ],
      "name": "getCollectorMusicIdList",
      "outputs": [
        {
          "internalType": "uint256[]",
          "name": "",
          "type": "uint256[]"
        }
      ],
      "stateMutability": "view",
      "type": "function"
    },
    {
      "inputs": [
        {
          "internalType": "address",
          "name": "_user",
          "type": "address"
        }
      ],
      "name": "getCollectorMusicNumber",
      "outputs": [
        {
          "internalType": "uint256",
          "name": "",
          "type": "uint256"
        }
      ],
      "stateMutability": "view",
      "type": "function"
    },
    {
      "inputs": [
        {
          "internalType": "address",
          "name": "_author",
          "type": "address"
        },
        {
          "internalType": "address",
          "name": "_fan",
          "type": "address"
        }
      ],
      "name": "getFanContribution",
      "outputs": [
        {
          "internalType": "uint256",
          "name": "",
          "type": "uint256"
        }
      ],
      "stateMutability": "view",
      "type": "function"
    },
    {
      "inputs": [
        {
          "internalType": "address",
          "name": "_user",
          "type": "address"
        }
      ],
      "name": "getFanNumber",
      "outputs": [
        {
          "internalType": "uint256",
          "name": "",
          "type": "uint256"
        }
      ],
      "stateMutability": "view",
      "type": "function"
    },
    {
      "inputs": [
        {
          "internalType": "address",
          "name": "_user",
          "type": "address"
        }
      ],
      "name": "getOwnerMusicIdList",
      "outputs": [
        {
          "internalType": "uint256[]",
          "name": "",
          "type": "uint256[]"
        }
      ],
      "stateMutability": "view",
      "type": "function"
    },
    {
      "inputs": [
        {
          "internalType": "address",
          "name": "_user",
          "type": "address"
        }
      ],
      "name": "getOwnerMusicNumber",
      "outputs": [
        {
          "internalType": "uint256",
          "name": "",
          "type": "uint256"
        }
      ],
      "stateMutability": "view",
      "type": "function"
    },
    {
      "inputs": [],
      "name": "getPurchaseLeaderboard",
      "outputs": [
        {
          "internalType": "uint256[]",
          "name": "list",
          "type": "uint256[]"
        }
      ],
      "stateMutability": "view",
      "type": "function"
    },
    {
      "inputs": [
        {
          "internalType": "address",
          "name": "_user",
          "type": "address"
        }
      ],
      "name": "getUserCredit",
      "outputs": [
        {
          "internalType": "uint256",
          "name": "",
          "type": "uint256"
        }
      ],
      "stateMutability": "view",
      "type": "function"
    },
    {
      "inputs": [
        {
          "internalType": "address",
          "name": "_user",
          "type": "address"
        }
      ],
      "name": "getUserPurchase",
      "outputs": [
        {
          "internalType": "uint256",
          "name": "",
          "type": "uint256"
        }
      ],
      "stateMutability": "view",
      "type": "function"
    },
    {
      "inputs": [
        {
          "internalType": "address",
          "name": "_user",
          "type": "address"
        }
      ],
      "name": "getUserVote",
      "outputs": [
        {
          "internalType": "uint256",
          "name": "",
          "type": "uint256"
        }
      ],
      "stateMutability": "view",
      "type": "function"
    },
    {
      "inputs": [],
      "name": "getVoteLeaderboard",
      "outputs": [
        {
          "internalType": "uint256[]",
          "name": "list",
          "type": "uint256[]"
        }
      ],
      "stateMutability": "view",
      "type": "function"
    },
    {
      "inputs": [
        {
          "internalType": "address",
          "name": "author",
          "type": "address"
        },
        {
          "internalType": "address",
          "name": "fan",
          "type": "address"
        }
      ],
      "name": "isFollower",
      "outputs": [
        {
          "internalType": "bool",
          "name": "",
          "type": "bool"
        }
      ],
      "stateMutability": "view",
      "type": "function"
    },
    {
      "inputs": [
        {
          "internalType": "uint256",
          "name": "",
          "type": "uint256"
        },
        {
          "internalType": "address",
          "name": "",
          "type": "address"
        }
      ],
      "name": "musicId2CollectorAmountMapping",
      "outputs": [
        {
          "internalType": "uint256",
          "name": "",
          "type": "uint256"
        }
      ],
      "stateMutability": "view",
      "type": "function"
    },
    {
      "inputs": [
        {
          "internalType": "uint256",
          "name": "",
          "type": "uint256"
        },
        {
          "internalType": "address",
          "name": "",
          "type": "address"
        }
      ],
      "name": "musicId2CollectorVoteAmountMapping",
      "outputs": [
        {
          "internalType": "uint256",
          "name": "",
          "type": "uint256"
        }
      ],
      "stateMutability": "view",
      "type": "function"
    },
    {
      "inputs": [
        {
          "internalType": "uint256",
          "name": "",
          "type": "uint256"
        }
      ],
      "name": "musicId2MusicMapping",
      "outputs": [
        {
          "internalType": "uint256",
          "name": "musicId",
          "type": "uint256"
        },
        {
          "internalType": "string",
          "name": "musicName",
          "type": "string"
        },
        {
          "internalType": "address",
          "name": "author",
          "type": "address"
        },
        {
          "internalType": "string",
          "name": "musicDescription",
          "type": "string"
        },
        {
          "internalType": "string",
          "name": "cid",
          "type": "string"
        },
        {
          "internalType": "uint256",
          "name": "purchaseFee",
          "type": "uint256"
        },
        {
          "internalType": "uint256",
          "name": "uploadTimestamp",
          "type": "uint256"
        },
        {
          "internalType": "uint256",
          "name": "purchaseAmount",
          "type": "uint256"
        },
        {
          "internalType": "uint256",
          "name": "purchaseRevenue",
          "type": "uint256"
        },
        {
          "internalType": "uint256",
          "name": "voteAmount",
          "type": "uint256"
        },
        {
          "internalType": "uint256",
          "name": "voteRevenue",
          "type": "uint256"
        }
      ],
      "stateMutability": "view",
      "type": "function"
    },
    {
      "inputs": [],
      "name": "musicNumber",
      "outputs": [
        {
          "internalType": "uint256",
          "name": "",
          "type": "uint256"
        }
      ],
      "stateMutability": "view",
      "type": "function"
    },
    {
      "inputs": [
        {
          "internalType": "address",
          "name": "",
          "type": "address"
        },
        {
          "internalType": "uint256",
          "name": "",
          "type": "uint256"
        }
      ],
      "name": "owner2MusicIdMapping",
      "outputs": [
        {
          "internalType": "uint256",
          "name": "",
          "type": "uint256"
        }
      ],
      "stateMutability": "view",
      "type": "function"
    },
    {
      "inputs": [
        {
          "internalType": "uint256",
          "name": "musicId",
          "type": "uint256"
        },
        {
          "internalType": "uint256",
          "name": "amount",
          "type": "uint256"
        }
      ],
      "name": "purchaseMusic",
      "outputs": [],
      "stateMutability": "nonpayable",
      "type": "function"
    },
    {
      "inputs": [],
      "name": "purchaseNumer",
      "outputs": [
        {
          "internalType": "uint256",
          "name": "",
          "type": "uint256"
        }
      ],
      "stateMutability": "view",
      "type": "function"
    },
    {
      "inputs": [],
      "name": "purchaseTokenAmount",
      "outputs": [
        {
          "internalType": "uint256",
          "name": "",
          "type": "uint256"
        }
      ],
      "stateMutability": "view",
      "type": "function"
    },
    {
      "inputs": [
        {
          "internalType": "string",
          "name": "fanchatId",
          "type": "string"
        }
      ],
      "name": "setFanChatId",
      "outputs": [],
      "stateMutability": "nonpayable",
      "type": "function"
    },
    {
      "inputs": [],
      "name": "tokenVaultWalletAddress",
      "outputs": [
        {
          "internalType": "address",
          "name": "",
          "type": "address"
        }
      ],
      "stateMutability": "view",
      "type": "function"
    },
    {
      "inputs": [
        {
          "internalType": "string",
          "name": "musicName",
          "type": "string"
        },
        {
          "internalType": "string",
          "name": "musicDescription",
          "type": "string"
        },
        {
          "internalType": "string",
          "name": "cid",
          "type": "string"
        },
        {
          "internalType": "uint256",
          "name": "purchaseFee",
          "type": "uint256"
        },
        {
          "internalType": "string",
          "name": "tokenURI",
          "type": "string"
        }
      ],
      "name": "uploadMusic",
      "outputs": [
        {
          "internalType": "uint256",
          "name": "",
          "type": "uint256"
        }
      ],
      "stateMutability": "nonpayable",
      "type": "function"
    },
    {
      "inputs": [],
      "name": "userNumber",
      "outputs": [
        {
          "internalType": "uint256",
          "name": "",
          "type": "uint256"
        }
      ],
      "stateMutability": "view",
      "type": "function"
    },
    {
      "inputs": [],
      "name": "vaultNFT",
      "outputs": [
        {
          "internalType": "contract IERC721",
          "name": "",
          "type": "address"
        }
      ],
      "stateMutability": "view",
      "type": "function"
    },
    {
      "inputs": [],
      "name": "vaultToken",
      "outputs": [
        {
          "internalType": "contract IERC20",
          "name": "",
          "type": "address"
        }
      ],
      "stateMutability": "view",
      "type": "function"
    },
    {
      "inputs": [
        {
          "internalType": "uint256",
          "name": "musicId",
          "type": "uint256"
        },
        {
          "internalType": "uint256",
          "name": "amount",
          "type": "uint256"
        }
      ],
      "name": "voteMusic",
      "outputs": [],
      "stateMutability": "nonpayable",
      "type": "function"
    }
  ],
  "bytecode": "0x6080604052600067ffffffffffffffff81111562000022576200002162000297565b5b604051908082528060200260200182016040528015620000515781602001602082028036833780820191505090505b50601190805190602001906200006992919062000226565b50600067ffffffffffffffff81111562000088576200008762000297565b5b604051908082528060200260200182016040528015620000b75781602001602082028036833780820191505090505b5060129080519060200190620000cf92919062000226565b5060006013556000601455348015620000e757600080fd5b5060405162005c1338038062005c1383398181016040528101906200010d919062000330565b82828282828282600660006101000a81548173ffffffffffffffffffffffffffffffffffffffff021916908373ffffffffffffffffffffffffffffffffffffffff16021790555081600760006101000a81548173ffffffffffffffffffffffffffffffffffffffff021916908373ffffffffffffffffffffffffffffffffffffffff16021790555080600860006101000a81548173ffffffffffffffffffffffffffffffffffffffff021916908373ffffffffffffffffffffffffffffffffffffffff16021790555033600960006101000a81548173ffffffffffffffffffffffffffffffffffffffff021916908373ffffffffffffffffffffffffffffffffffffffff1602179055505050505050505050506200038c565b82805482825590600052602060002090810192821562000265579160200282015b828111156200026457825182559160200191906001019062000247565b5b50905062000274919062000278565b5090565b5b808211156200029357600081600090555060010162000279565b5090565b7f4e487b7100000000000000000000000000000000000000000000000000000000600052604160045260246000fd5b600080fd5b600073ffffffffffffffffffffffffffffffffffffffff82169050919050565b6000620002f882620002cb565b9050919050565b6200030a81620002eb565b81146200031657600080fd5b50565b6000815190506200032a81620002ff565b92915050565b6000806000606084860312156200034c576200034b620002c6565b5b60006200035c8682870162000319565b93505060206200036f8682870162000319565b9250506040620003828682870162000319565b9150509250925092565b615877806200039c6000396000f3fe608060405234801561001057600080fd5b50600436106102535760003560e01c806380c7bfd611610146578063d00deb51116100c3578063dad6f0dc11610087578063dad6f0dc14610805578063e5fe947714610835578063f0df047914610865578063f23533e914610883578063fb9de14c1461089f578063fff6bb9b146108bd57610253565b8063d00deb5114610745578063d3152dac14610761578063d439f59f1461077f578063d4923d4e1461079b578063d5eef6c1146107cb57610253565b8063a97060f51161010a578063a97060f514610667578063b872eb2514610697578063bd3098ce146106b5578063bda235da146106e5578063c84852f21461071557610253565b806380c7bfd6146105af57806384dea1a1146105cb5780638983ad7e146105e95780638a2b7ce2146106195780639e94f6dd1461064957610253565b8063442600ac116101d457806362b744bd1161019857806362b744bd146104e55780636961135c146105155780636b45eb6914610545578063703bafd514610561578063703fce161461057f57610253565b8063442600ac1461041b578063519cc0a71461044b5780635d730d21146104695780636042c3c21461049957806360bb4fa7146104b557610253565b806323db573d1161021b57806323db573d146103365780632b4e8413146103665780632e66cbb0146103845780632f945a5d146103bb5780633ba07043146103eb57610253565b80630ae7772a146102585780630fa7a5be14610288578063193e13fe146102b85780631e68934a146102d65780632102b65114610306575b600080fd5b610272600480360381019061026d91906142ce565b6108d9565b60405161027f919061431d565b60405180910390f35b6102a2600480360381019061029d9190614338565b6108fe565b6040516102af919061431d565b60405180910390f35b6102c061094a565b6040516102cd919061431d565b60405180910390f35b6102f060048036038101906102eb9190614365565b610950565b6040516102fd919061431d565b60405180910390f35b610320600480360381019061031b91906143a5565b6109ac565b60405161032d919061431d565b60405180910390f35b610350600480360381019061034b91906143a5565b6109dd565b60405161035d919061431d565b60405180910390f35b61036e610a0e565b60405161037b919061431d565b60405180910390f35b61039e60048036038101906103999190614338565b610a14565b6040516103b2989796959493929190614484565b60405180910390f35b6103d560048036038101906103d09190614509565b610b04565b6040516103e29190614564565b60405180910390f35b61040560048036038101906104009190614338565b610b33565b604051610412919061431d565b60405180910390f35b610435600480360381019061043091906146b4565b610cd7565b604051610442919061431d565b60405180910390f35b6104536111f6565b60405161046091906147fe565b60405180910390f35b610483600480360381019061047e9190614338565b61121c565b60405161049091906148d7565b60405180910390f35b6104b360048036038101906104ae9190614365565b61131c565b005b6104cf60048036038101906104ca9190614338565b61176d565b6040516104dc9190614564565b60405180910390f35b6104ff60048036038101906104fa9190614365565b611807565b60405161050c919061431d565b60405180910390f35b61052f600480360381019061052a9190614338565b611831565b60405161053c9190614564565b60405180910390f35b61055f600480360381019061055a91906148f9565b611851565b005b610569611973565b6040516105769190614963565b60405180910390f35b61059960048036038101906105949190614338565b611999565b6040516105a691906148d7565b60405180910390f35b6105c960048036038101906105c491906148f9565b611a99565b005b6105d3611d93565b6040516105e0919061499f565b60405180910390f35b61060360048036038101906105fe91906142ce565b611db9565b604051610610919061431d565b60405180910390f35b610633600480360381019061062e91906148f9565b611dde565b6040516106409190614564565b60405180910390f35b610651611e14565b60405161065e919061431d565b60405180910390f35b610681600480360381019061067c91906149ba565b611e1a565b60405161068e919061431d565b60405180910390f35b61069f611e35565b6040516106ac91906148d7565b60405180910390f35b6106cf60048036038101906106ca9190614509565b611ee8565b6040516106dc919061431d565b60405180910390f35b6106ff60048036038101906106fa9190614338565b6120c0565b60405161070c919061431d565b60405180910390f35b61072f600480360381019061072a9190614338565b61210b565b60405161073c919061431d565b60405180910390f35b61075f600480360381019061075a9190614338565b612157565b005b6107696124d0565b60405161077691906148d7565b60405180910390f35b61079960048036038101906107949190614365565b612583565b005b6107b560048036038101906107b09190614338565b6129fb565b6040516107c2919061431d565b60405180910390f35b6107e560048036038101906107e091906149ba565b612a46565b6040516107fc9b9a999897969594939291906149e7565b60405180910390f35b61081f600480360381019061081a9190614338565b612c58565b60405161082c919061431d565b60405180910390f35b61084f600480360381019061084a9190614509565b612cfb565b60405161085c9190614564565b60405180910390f35b61086d612e22565b60405161087a9190614aa7565b60405180910390f35b61089d600480360381019061089891906143a5565b612e48565b005b6108a76132d1565b6040516108b4919061431d565b60405180910390f35b6108d760048036038101906108d29190614365565b6132d7565b005b600e602052816000526040600020602052806000526040600020600091509150505481565b6000600d60008373ffffffffffffffffffffffffffffffffffffffff1673ffffffffffffffffffffffffffffffffffffffff168152602001908152602001600020805490509050919050565b60055481565b600082600660018460026109649190614af1565b61096e9190614b33565b60018561097b9190614b33565b856109869190614af1565b6109909190614af1565b61099a9190614b96565b6109a49190614af1565b905092915050565b600b60205281600052604060002081815481106109c857600080fd5b90600052602060002001600091509150505481565b600d60205281600052604060002081815481106109f957600080fd5b90600052602060002001600091509150505481565b60015481565b60006020528060005260406000206000915090508060000154908060010154908060020154908060030154908060040154908060050154908060060160009054906101000a900473ffffffffffffffffffffffffffffffffffffffff1690806007018054610a8190614bf6565b80601f0160208091040260200160405190810160405280929190818152602001828054610aad90614bf6565b8015610afa5780601f10610acf57610100808354040283529160200191610afa565b820191906000526020600020905b815481529060010190602001808311610add57829003601f168201915b5050505050905088565b60106020528160005260406000206020528060005260406000206000915091509054906101000a900460ff1681565b60008073ffffffffffffffffffffffffffffffffffffffff166000808473ffffffffffffffffffffffffffffffffffffffff1673ffffffffffffffffffffffffffffffffffffffff16815260200190815260200160002060060160009054906101000a900473ffffffffffffffffffffffffffffffffffffffff1673ffffffffffffffffffffffffffffffffffffffff1603610bd25760009050610cd2565b600860009054906101000a900473ffffffffffffffffffffffffffffffffffffffff1673ffffffffffffffffffffffffffffffffffffffff16633ba070436000808573ffffffffffffffffffffffffffffffffffffffff1673ffffffffffffffffffffffffffffffffffffffff16815260200190815260200160002060060160009054906101000a900473ffffffffffffffffffffffffffffffffffffffff166040518263ffffffff1660e01b8152600401610c8e9190614aa7565b602060405180830381865afa158015610cab573d6000803e3d6000fd5b505050506040513d601f19601f82011682018060405250810190610ccf9190614c3c565b90505b919050565b6000600c84604051610ce99190614ca5565b908152602001604051809103902060009054906101000a900460ff1615610d45576040517f08c379a0000000000000000000000000000000000000000000000000000000008152600401610d3c90614d08565b60405180910390fd5b600660009054906101000a900473ffffffffffffffffffffffffffffffffffffffff1673ffffffffffffffffffffffffffffffffffffffff166323b872dd33600960009054906101000a900473ffffffffffffffffffffffffffffffffffffffff16678ac7230489e800006040518463ffffffff1660e01b8152600401610dce93929190614d28565b6020604051808303816000875af1158015610ded573d6000803e3d6000fd5b505050506040513d601f19601f82011682018060405250810190610e119190614d8b565b506000600760009054906101000a900473ffffffffffffffffffffffffffffffffffffffff1673ffffffffffffffffffffffffffffffffffffffff1663d0def52133856040518363ffffffff1660e01b8152600401610e71929190614db8565b6020604051808303816000875af1158015610e90573d6000803e3d6000fd5b505050506040513d601f19601f82011682018060405250810190610eb49190614c3c565b905080600a60008381526020019081526020016000206000018190555086600a60008381526020019081526020016000206001019081610ef49190614f8a565b5033600a600083815260200190815260200160002060020160006101000a81548173ffffffffffffffffffffffffffffffffffffffff021916908373ffffffffffffffffffffffffffffffffffffffff16021790555085600a60008381526020019081526020016000206003019081610f6d9190614f8a565b5084600a60008381526020019081526020016000206004019081610f919190614f8a565b5083600a60008381526020019081526020016000206005018190555042600a600083815260200190815260200160002060060181905550600b60003373ffffffffffffffffffffffffffffffffffffffff1673ffffffffffffffffffffffffffffffffffffffff168152602001908152602001600020819080600181540180825580915050600190039060005260206000200160009091909190915055600d60003373ffffffffffffffffffffffffffffffffffffffff1673ffffffffffffffffffffffffffffffffffffffff1681526020019081526020016000208190806001815401808255809150506001900390600052602060002001600090919091909150556001600e600083815260200190815260200160002060003373ffffffffffffffffffffffffffffffffffffffff1673ffffffffffffffffffffffffffffffffffffffff168152602001908152602001600020819055506001600f600083815260200190815260200160002060003373ffffffffffffffffffffffffffffffffffffffff1673ffffffffffffffffffffffffffffffffffffffff168152602001908152602001600020819055506001600c866040516111529190614ca5565b908152602001604051809103902060006101000a81548160ff02191690831515021790555060016003600082825461118a9190614b33565b9250508190555061119a33613995565b803373ffffffffffffffffffffffffffffffffffffffff167f0ecceb572ba8105927655eabee2b476295f9e9f3ebc33a8b21c4f384b47a85c8896040516111e1919061505c565b60405180910390a38091505095945050505050565b600860009054906101000a900473ffffffffffffffffffffffffffffffffffffffff1681565b606060006112298361210b565b905060008167ffffffffffffffff81111561124757611246614589565b5b6040519080825280602002602001820160405280156112755781602001602082028036833780820191505090505b50905060005b8281101561131157600b60008673ffffffffffffffffffffffffffffffffffffffff1673ffffffffffffffffffffffffffffffffffffffff16815260200190815260200160002081815481106112d4576112d361507e565b5b90600052602060002001548282815181106112f2576112f161507e565b5b6020026020010181815250508080611309906150ad565b91505061127b565b508092505050919050565b338160008111611361576040517f08c379a000000000000000000000000000000000000000000000000000000000815260040161135890615141565b60405180910390fd5b61136a82612c58565b8111156113ac576040517f08c379a00000000000000000000000000000000000000000000000000000000081526004016113a3906151ad565b60405180910390fd5b6000600a600086815260200190815260200160002060020160009054906101000a900473ffffffffffffffffffffffffffffffffffffffff1690506000600f600087815260200190815260200160002060003373ffffffffffffffffffffffffffffffffffffffff1673ffffffffffffffffffffffffffffffffffffffff168152602001908152602001600020541461147a576040517f08c379a000000000000000000000000000000000000000000000000000000000815260040161147190615219565b60405180910390fd5b600061148585611e1a565b9050600660009054906101000a900473ffffffffffffffffffffffffffffffffffffffff1673ffffffffffffffffffffffffffffffffffffffff166323b872dd3384846040518463ffffffff1660e01b81526004016114e693929190614d28565b6020604051808303816000875af1158015611505573d6000803e3d6000fd5b505050506040513d601f19601f820116820180604052508101906115299190614d8b565b5084600f600088815260200190815260200160002060003373ffffffffffffffffffffffffffffffffffffffff1673ffffffffffffffffffffffffffffffffffffffff1681526020019081526020016000208190555060016000803373ffffffffffffffffffffffffffffffffffffffff1673ffffffffffffffffffffffffffffffffffffffff16815260200190815260200160002060010160008282546115d19190614b33565b92505081905550806000803373ffffffffffffffffffffffffffffffffffffffff1673ffffffffffffffffffffffffffffffffffffffff16815260200190815260200160002060020160008282546116299190614b33565b92505081905550846000808473ffffffffffffffffffffffffffffffffffffffff1673ffffffffffffffffffffffffffffffffffffffff16815260200190815260200160002060050160008282546116819190614b33565b92505081905550806000808473ffffffffffffffffffffffffffffffffffffffff1673ffffffffffffffffffffffffffffffffffffffff16815260200190815260200160002060030160008282546116d99190614b33565b925050819055506116eb868683613a5b565b6116f6823387613b5b565b6116ff33613995565b853373ffffffffffffffffffffffffffffffffffffffff167f8acc2ae1fb028a613ff1036318376cf40c2571f6b6b1303bfe7f3b166624683a600a60008a81526020019081526020016000206001018860405161175d9291906152bd565b60405180910390a3505050505050565b60008073ffffffffffffffffffffffffffffffffffffffff166000808473ffffffffffffffffffffffffffffffffffffffff1673ffffffffffffffffffffffffffffffffffffffff16815260200190815260200160002060060160009054906101000a900473ffffffffffffffffffffffffffffffffffffffff1673ffffffffffffffffffffffffffffffffffffffff1614159050919050565b6000611829600a60008581526020019081526020016000206005015483610950565b905092915050565b60026020528060005260406000206000915054906101000a900460ff1681565b600073ffffffffffffffffffffffffffffffffffffffff166000803373ffffffffffffffffffffffffffffffffffffffff1673ffffffffffffffffffffffffffffffffffffffff16815260200190815260200160002060060160009054906101000a900473ffffffffffffffffffffffffffffffffffffffff1673ffffffffffffffffffffffffffffffffffffffff1603611921576040517f08c379a000000000000000000000000000000000000000000000000000000000815260040161191890615339565b60405180910390fd5b806000803373ffffffffffffffffffffffffffffffffffffffff1673ffffffffffffffffffffffffffffffffffffffff168152602001908152602001600020600701908161196f9190614f8a565b5050565b600660009054906101000a900473ffffffffffffffffffffffffffffffffffffffff1681565b606060006119a6836108fe565b905060008167ffffffffffffffff8111156119c4576119c3614589565b5b6040519080825280602002602001820160405280156119f25781602001602082028036833780820191505090505b50905060005b82811015611a8e57600d60008673ffffffffffffffffffffffffffffffffffffffff1673ffffffffffffffffffffffffffffffffffffffff1681526020019081526020016000208181548110611a5157611a5061507e565b5b9060005260206000200154828281518110611a6f57611a6e61507e565b5b6020026020010181815250508080611a86906150ad565b9150506119f8565b508092505050919050565b600073ffffffffffffffffffffffffffffffffffffffff166000803373ffffffffffffffffffffffffffffffffffffffff1673ffffffffffffffffffffffffffffffffffffffff16815260200190815260200160002060060160009054906101000a900473ffffffffffffffffffffffffffffffffffffffff1673ffffffffffffffffffffffffffffffffffffffff1614611b69576040517f08c379a0000000000000000000000000000000000000000000000000000000008152600401611b60906153a5565b60405180910390fd5b6000600860009054906101000a900473ffffffffffffffffffffffffffffffffffffffff1673ffffffffffffffffffffffffffffffffffffffff16639c6bb581836040518263ffffffff1660e01b8152600401611bc69190615411565b6020604051808303816000875af1158015611be5573d6000803e3d6000fd5b505050506040513d601f19601f82011682018060405250810190611c09919061545b565b9050806000803373ffffffffffffffffffffffffffffffffffffffff1673ffffffffffffffffffffffffffffffffffffffff16815260200190815260200160002060060160006101000a81548173ffffffffffffffffffffffffffffffffffffffff021916908373ffffffffffffffffffffffffffffffffffffffff160217905550600860009054906101000a900473ffffffffffffffffffffffffffffffffffffffff1673ffffffffffffffffffffffffffffffffffffffff1663ee1fe2ad82336040518363ffffffff1660e01b8152600401611ce8929190615488565b6020604051808303816000875af1158015611d07573d6000803e3d6000fd5b505050506040513d601f19601f82011682018060405250810190611d2b9190614c3c565b50611d3533613995565b8073ffffffffffffffffffffffffffffffffffffffff163373ffffffffffffffffffffffffffffffffffffffff167f0d68fa50baa20fc97722fa0c9c61448b2e300d82ddd9dd3bf38d3c9ada0f5bc160405160405180910390a35050565b600760009054906101000a900473ffffffffffffffffffffffffffffffffffffffff1681565b600f602052816000526040600020602052806000526040600020600091509150505481565b600c818051602081018201805184825260208301602085012081835280955050505050506000915054906101000a900460ff1681565b60045481565b6000611e2e670de0b6b3a764000083610950565b9050919050565b606060128054905067ffffffffffffffff811115611e5657611e55614589565b5b604051908082528060200260200182016040528015611e845781602001602082028036833780820191505090505b50905060005b8151811015611ee45760128181548110611ea757611ea661507e565b5b9060005260206000200154828281518110611ec557611ec461507e565b5b6020026020010181815250508080611edc906150ad565b915050611e8a565b5090565b60008073ffffffffffffffffffffffffffffffffffffffff166000808573ffffffffffffffffffffffffffffffffffffffff1673ffffffffffffffffffffffffffffffffffffffff16815260200190815260200160002060060160009054906101000a900473ffffffffffffffffffffffffffffffffffffffff1673ffffffffffffffffffffffffffffffffffffffff1603611fb9576040517f08c379a0000000000000000000000000000000000000000000000000000000008152600401611fb090615339565b60405180910390fd5b600860009054906101000a900473ffffffffffffffffffffffffffffffffffffffff1673ffffffffffffffffffffffffffffffffffffffff1663bd3098ce6000808673ffffffffffffffffffffffffffffffffffffffff1673ffffffffffffffffffffffffffffffffffffffff16815260200190815260200160002060060160009054906101000a900473ffffffffffffffffffffffffffffffffffffffff16846040518363ffffffff1660e01b8152600401612077929190615488565b602060405180830381865afa158015612094573d6000803e3d6000fd5b505050506040513d601f19601f820116820180604052508101906120b89190614c3c565b905092915050565b60008060008373ffffffffffffffffffffffffffffffffffffffff1673ffffffffffffffffffffffffffffffffffffffff168152602001908152602001600020600001549050919050565b6000600b60008373ffffffffffffffffffffffffffffffffffffffff1673ffffffffffffffffffffffffffffffffffffffff168152602001908152602001600020805490509050919050565b60008060008373ffffffffffffffffffffffffffffffffffffffff1673ffffffffffffffffffffffffffffffffffffffff16815260200190815260200160002060060160009054906101000a900473ffffffffffffffffffffffffffffffffffffffff169050600073ffffffffffffffffffffffffffffffffffffffff168173ffffffffffffffffffffffffffffffffffffffff160361222c576040517f08c379a000000000000000000000000000000000000000000000000000000000815260040161222390615339565b60405180910390fd5b601060008373ffffffffffffffffffffffffffffffffffffffff1673ffffffffffffffffffffffffffffffffffffffff16815260200190815260200160002060003373ffffffffffffffffffffffffffffffffffffffff1673ffffffffffffffffffffffffffffffffffffffff16815260200190815260200160002060009054906101000a900460ff166122f5576040517f08c379a00000000000000000000000000000000000000000000000000000000081526004016122ec906154fd565b60405180910390fd5b60008173ffffffffffffffffffffffffffffffffffffffff166370a08231336040518263ffffffff1660e01b81526004016123309190614aa7565b602060405180830381865afa15801561234d573d6000803e3d6000fd5b505050506040513d601f19601f820116820180604052508101906123719190614c3c565b146123b1576040517f08c379a00000000000000000000000000000000000000000000000000000000081526004016123a890615569565b60405180910390fd5b600860009054906101000a900473ffffffffffffffffffffffffffffffffffffffff1673ffffffffffffffffffffffffffffffffffffffff1663ee1fe2ad82336040518363ffffffff1660e01b815260040161240e929190615488565b6020604051808303816000875af115801561242d573d6000803e3d6000fd5b505050506040513d601f19601f820116820180604052508101906124519190614c3c565b5061245b33613995565b3373ffffffffffffffffffffffffffffffffffffffff168173ffffffffffffffffffffffffffffffffffffffff168373ffffffffffffffffffffffffffffffffffffffff167f2d4ac4df149678edffe3ce9e1623013a9b6ada2f8dced610de761b618fe997b160405160405180910390a45050565b606060118054905067ffffffffffffffff8111156124f1576124f0614589565b5b60405190808252806020026020018201604052801561251f5781602001602082028036833780820191505090505b50905060005b815181101561257f57601181815481106125425761254161507e565b5b90600052602060002001548282815181106125605761255f61507e565b5b6020026020010181815250508080612577906150ad565b915050612525565b5090565b3373ffffffffffffffffffffffffffffffffffffffff16600a600084815260200190815260200160002060020160009054906101000a900473ffffffffffffffffffffffffffffffffffffffff1673ffffffffffffffffffffffffffffffffffffffff1614612627576040517f08c379a000000000000000000000000000000000000000000000000000000000815260040161261e906155d5565b60405180910390fd5b60008060003373ffffffffffffffffffffffffffffffffffffffff1673ffffffffffffffffffffffffffffffffffffffff16815260200190815260200160002060060160009054906101000a900473ffffffffffffffffffffffffffffffffffffffff169050600073ffffffffffffffffffffffffffffffffffffffff168173ffffffffffffffffffffffffffffffffffffffff16036126fc576040517f08c379a00000000000000000000000000000000000000000000000000000000081526004016126f390615641565b60405180910390fd5b6000600860009054906101000a900473ffffffffffffffffffffffffffffffffffffffff1673ffffffffffffffffffffffffffffffffffffffff16633ba07043836040518263ffffffff1660e01b81526004016127599190614aa7565b602060405180830381865afa158015612776573d6000803e3d6000fd5b505050506040513d601f19601f8201168201806040525081019061279a9190614c3c565b905060005b818110156129f45760008373ffffffffffffffffffffffffffffffffffffffff16636352211e836040518263ffffffff1660e01b81526004016127e2919061431d565b602060405180830381865afa1580156127ff573d6000803e3d6000fd5b505050506040513d601f19601f82011682018060405250810190612823919061545b565b905084600860009054906101000a900473ffffffffffffffffffffffffffffffffffffffff1673ffffffffffffffffffffffffffffffffffffffff1663bd3098ce86846040518363ffffffff1660e01b8152600401612883929190615488565b602060405180830381865afa1580156128a0573d6000803e3d6000fd5b505050506040513d601f19601f820116820180604052508101906128c49190614c3c565b11156129e0576000600e600088815260200190815260200160002060008373ffffffffffffffffffffffffffffffffffffffff1673ffffffffffffffffffffffffffffffffffffffff16815260200190815260200160002054036129df576001600e600088815260200190815260200160002060008373ffffffffffffffffffffffffffffffffffffffff1673ffffffffffffffffffffffffffffffffffffffff16815260200190815260200160002081905550600d60008273ffffffffffffffffffffffffffffffffffffffff1673ffffffffffffffffffffffffffffffffffffffff1681526020019081526020016000208690806001815401808255809150506001900390600052602060002001600090919091909150555b5b5080806129ec906150ad565b91505061279f565b5050505050565b60008060008373ffffffffffffffffffffffffffffffffffffffff1673ffffffffffffffffffffffffffffffffffffffff168152602001908152602001600020600101549050919050565b600a602052806000526040600020600091509050806000015490806001018054612a6f90614bf6565b80601f0160208091040260200160405190810160405280929190818152602001828054612a9b90614bf6565b8015612ae85780601f10612abd57610100808354040283529160200191612ae8565b820191906000526020600020905b815481529060010190602001808311612acb57829003601f168201915b5050505050908060020160009054906101000a900473ffffffffffffffffffffffffffffffffffffffff1690806003018054612b2390614bf6565b80601f0160208091040260200160405190810160405280929190818152602001828054612b4f90614bf6565b8015612b9c5780601f10612b7157610100808354040283529160200191612b9c565b820191906000526020600020905b815481529060010190602001808311612b7f57829003601f168201915b505050505090806004018054612bb190614bf6565b80601f0160208091040260200160405190810160405280929190818152602001828054612bdd90614bf6565b8015612c2a5780601f10612bff57610100808354040283529160200191612c2a565b820191906000526020600020905b815481529060010190602001808311612c0d57829003601f168201915b50505050509080600501549080600601549080600701549080600801549080600901549080600a015490508b565b600060016000808473ffffffffffffffffffffffffffffffffffffffff1673ffffffffffffffffffffffffffffffffffffffff168152602001908152602001600020600101546000808573ffffffffffffffffffffffffffffffffffffffff1673ffffffffffffffffffffffffffffffffffffffff16815260200190815260200160002060000154612cea9190614b33565b612cf49190614b33565b9050919050565b6000806000808573ffffffffffffffffffffffffffffffffffffffff1673ffffffffffffffffffffffffffffffffffffffff16815260200190815260200160002060060160009054906101000a900473ffffffffffffffffffffffffffffffffffffffff169050600073ffffffffffffffffffffffffffffffffffffffff168173ffffffffffffffffffffffffffffffffffffffff1614158015612e19575060008173ffffffffffffffffffffffffffffffffffffffff166370a08231856040518263ffffffff1660e01b8152600401612dd59190614aa7565b602060405180830381865afa158015612df2573d6000803e3d6000fd5b505050506040513d601f19601f82011682018060405250810190612e169190614c3c565b14155b91505092915050565b600960009054906101000a900473ffffffffffffffffffffffffffffffffffffffff1681565b612e876040518060400160405280600b81526020017f626c6f636b6e756d20256400000000000000000000000000000000000000000081525043613d15565b6000601560003373ffffffffffffffffffffffffffffffffffffffff1673ffffffffffffffffffffffffffffffffffffffff168152602001908152602001600020541480612f20575043601560003373ffffffffffffffffffffffffffffffffffffffff1673ffffffffffffffffffffffffffffffffffffffff168152602001908152602001600020546103e8612f1e9190614b33565b105b612f5f576040517f08c379a0000000000000000000000000000000000000000000000000000000008152600401612f56906156ad565b60405180910390fd5b60008060008473ffffffffffffffffffffffffffffffffffffffff1673ffffffffffffffffffffffffffffffffffffffff16815260200190815260200160002060060160009054906101000a900473ffffffffffffffffffffffffffffffffffffffff169050600073ffffffffffffffffffffffffffffffffffffffff168173ffffffffffffffffffffffffffffffffffffffff161415801561307c575060008173ffffffffffffffffffffffffffffffffffffffff166370a08231336040518263ffffffff1660e01b81526004016130389190614aa7565b602060405180830381865afa158015613055573d6000803e3d6000fd5b505050506040513d601f19601f820116820180604052508101906130799190614c3c565b14155b6130bb576040517f08c379a00000000000000000000000000000000000000000000000000000000081526004016130b290615719565b60405180910390fd5b670de0b6b3a7640000821015613106576040517f08c379a00000000000000000000000000000000000000000000000000000000081526004016130fd90615785565b60405180910390fd5b43601560003373ffffffffffffffffffffffffffffffffffffffff1673ffffffffffffffffffffffffffffffffffffffff16815260200190815260200160002081905550600660009054906101000a900473ffffffffffffffffffffffffffffffffffffffff1673ffffffffffffffffffffffffffffffffffffffff166323b872dd3385856040518463ffffffff1660e01b81526004016131a993929190614d28565b6020604051808303816000875af11580156131c8573d6000803e3d6000fd5b505050506040513d601f19601f820116820180604052508101906131ec9190614d8b565b50600860009054906101000a900473ffffffffffffffffffffffffffffffffffffffff1673ffffffffffffffffffffffffffffffffffffffff1663bfaf80658233670de0b6b3a7640000866132419190614b96565b6040518463ffffffff1660e01b815260040161325f93929190614d28565b600060405180830381600087803b15801561327957600080fd5b505af115801561328d573d6000803e3d6000fd5b505050507f386bc05a2408454571efe4cbeeabd68940d5a301c55f31319f2b6aef331fedfc8333846040516132c493929190614d28565b60405180910390a1505050565b60035481565b33816000811161331c576040517f08c379a000000000000000000000000000000000000000000000000000000000815260040161331390615141565b60405180910390fd5b61332582612c58565b811115613367576040517f08c379a000000000000000000000000000000000000000000000000000000000815260040161335e906151ad565b60405180910390fd5b6000600a600086815260200190815260200160002060020160009054906101000a900473ffffffffffffffffffffffffffffffffffffffff1690506000600e600087815260200190815260200160002060003373ffffffffffffffffffffffffffffffffffffffff1673ffffffffffffffffffffffffffffffffffffffff1681526020019081526020016000205414613435576040517f08c379a000000000000000000000000000000000000000000000000000000000815260040161342c906157f1565b60405180910390fd5b6000613457600a60008881526020019081526020016000206005015486610950565b9050600660009054906101000a900473ffffffffffffffffffffffffffffffffffffffff1673ffffffffffffffffffffffffffffffffffffffff166323b872dd33600760009054906101000a900473ffffffffffffffffffffffffffffffffffffffff1673ffffffffffffffffffffffffffffffffffffffff16636352211e8a6040518263ffffffff1660e01b81526004016134f3919061431d565b602060405180830381865afa158015613510573d6000803e3d6000fd5b505050506040513d601f19601f82011682018060405250810190613534919061545b565b846040518463ffffffff1660e01b815260040161355393929190614d28565b6020604051808303816000875af1158015613572573d6000803e3d6000fd5b505050506040513d601f19601f820116820180604052508101906135969190614d8b565b5084600e600088815260200190815260200160002060003373ffffffffffffffffffffffffffffffffffffffff1673ffffffffffffffffffffffffffffffffffffffff16815260200190815260200160002081905550600d60003373ffffffffffffffffffffffffffffffffffffffff1673ffffffffffffffffffffffffffffffffffffffff168152602001908152602001600020869080600181540180825580915050600190039060005260206000200160009091909190915055846000803373ffffffffffffffffffffffffffffffffffffffff1673ffffffffffffffffffffffffffffffffffffffff16815260200190815260200160002060000160008282546136a39190614b33565b92505081905550806000803373ffffffffffffffffffffffffffffffffffffffff1673ffffffffffffffffffffffffffffffffffffffff16815260200190815260200160002060020160008282546136fb9190614b33565b92505081905550846000808473ffffffffffffffffffffffffffffffffffffffff1673ffffffffffffffffffffffffffffffffffffffff16815260200190815260200160002060040160008282546137539190614b33565b92505081905550806000808473ffffffffffffffffffffffffffffffffffffffff1673ffffffffffffffffffffffffffffffffffffffff16815260200190815260200160002060030160008282546137ab9190614b33565b9250508190555084600460008282546137c49190614b33565b9250508190555080600560008282546137dd9190614b33565b92505081905550601060008373ffffffffffffffffffffffffffffffffffffffff1673ffffffffffffffffffffffffffffffffffffffff16815260200190815260200160002060003373ffffffffffffffffffffffffffffffffffffffff1673ffffffffffffffffffffffffffffffffffffffff16815260200190815260200160002060009054906101000a900460ff16613908576001601060008473ffffffffffffffffffffffffffffffffffffffff1673ffffffffffffffffffffffffffffffffffffffff16815260200190815260200160002060003373ffffffffffffffffffffffffffffffffffffffff1673ffffffffffffffffffffffffffffffffffffffff16815260200190815260200160002060006101000a81548160ff0219169083151502179055505b613913868683613db1565b61391e823387613b5b565b61392733613995565b853373ffffffffffffffffffffffffffffffffffffffff167f2b07b9c0bc5f1fa9f7d65d82a7d198493b83030602e457c6a8c2d4efb15afb47600a60008a8152602001908152602001600020600101886040516139859291906152bd565b60405180910390a3505050505050565b600260008273ffffffffffffffffffffffffffffffffffffffff1673ffffffffffffffffffffffffffffffffffffffff16815260200190815260200160002060009054906101000a900460ff16613a58576001600260008373ffffffffffffffffffffffffffffffffffffffff1673ffffffffffffffffffffffffffffffffffffffff16815260200190815260200160002060006101000a81548160ff0219169083151502179055506001806000828254613a509190614b33565b925050819055505b50565b81600a60008581526020019081526020016000206009016000828254613a819190614b33565b9250508190555080600a6000858152602001908152602001600020600a016000828254613aae9190614b33565b92505081905550613abe83613eb1565b613b5657600a6012805490501015613b2a5760128390806001815401808255809150506001900390600052602060002001600090919091909150557ffc71ef5ab0e6681c5141e684224d7187ef650e1e09cf736d3313a8bc7d4020ca60405160405180910390a1613b55565b601454600a6000858152602001908152602001600020600901541115613b5457613b5383613f16565b5b5b5b505050565b60008060008573ffffffffffffffffffffffffffffffffffffffff1673ffffffffffffffffffffffffffffffffffffffff16815260200190815260200160002060060160009054906101000a900473ffffffffffffffffffffffffffffffffffffffff169050600073ffffffffffffffffffffffffffffffffffffffff168173ffffffffffffffffffffffffffffffffffffffff1614158015613c78575060008173ffffffffffffffffffffffffffffffffffffffff166370a08231856040518263ffffffff1660e01b8152600401613c349190614aa7565b602060405180830381865afa158015613c51573d6000803e3d6000fd5b505050506040513d601f19601f82011682018060405250810190613c759190614c3c565b14155b15613d0f57600860009054906101000a900473ffffffffffffffffffffffffffffffffffffffff1673ffffffffffffffffffffffffffffffffffffffff1663bfaf80658285856040518463ffffffff1660e01b8152600401613cdc93929190614d28565b600060405180830381600087803b158015613cf657600080fd5b505af1158015613d0a573d6000803e3d6000fd5b505050505b50505050565b613dad8282604051602401613d2b929190615811565b6040516020818303038152906040527fb60e72cc000000000000000000000000000000000000000000000000000000007bffffffffffffffffffffffffffffffffffffffffffffffffffffffff19166020820180517bffffffffffffffffffffffffffffffffffffffffffffffffffffffff8381831617835250505050614057565b5050565b81600a60008581526020019081526020016000206007016000828254613dd79190614b33565b9250508190555080600a60008581526020019081526020016000206008016000828254613e049190614b33565b92505081905550613e1483614080565b613eac57600a6011805490501015613e805760118390806001815401808255809150506001900390600052602060002001600090919091909150557ffc71ef5ab0e6681c5141e684224d7187ef650e1e09cf736d3313a8bc7d4020ca60405160405180910390a1613eab565b601354600a6000858152602001908152602001600020600701541115613eaa57613ea9836140e5565b5b5b5b505050565b600080601280549050905060005b81811015613f0a578360128281548110613edc57613edb61507e565b5b906000526020600020015403613ef757600192505050613f11565b8080613f02906150ad565b915050613ebf565b5060009150505b919050565b600060128054905090506000807fffffffffffffffffffffffffffffffffffffffffffffffffffffffffffffffff905060005b83811015613fdb5781600a600060128481548110613f6a57613f6961507e565b5b90600052602060002001548152602001908152602001600020600901541015613fc857809250600a600060128381548110613fa857613fa761507e565b5b906000526020600020015481526020019081526020016000206009015491505b8080613fd3906150ad565b915050613f49565b50600a600085815260200190815260200160002060090154811015614051578060148190555083601283815481106140165761401561507e565b5b90600052602060002001819055507ffc71ef5ab0e6681c5141e684224d7187ef650e1e09cf736d3313a8bc7d4020ca60405160405180910390a15b50505050565b60008151905060006a636f6e736f6c652e6c6f679050602083016000808483855afa5050505050565b600080601180549050905060005b818110156140d95783601182815481106140ab576140aa61507e565b5b9060005260206000200154036140c6576001925050506140e0565b80806140d1906150ad565b91505061408e565b5060009150505b919050565b600060118054905090506000807fffffffffffffffffffffffffffffffffffffffffffffffffffffffffffffffff905060005b838110156141aa5781600a6000601184815481106141395761413861507e565b5b9060005260206000200154815260200190815260200160002060070154101561419757809250600a6000601183815481106141775761417661507e565b5b906000526020600020015481526020019081526020016000206007015491505b80806141a2906150ad565b915050614118565b50600a600085815260200190815260200160002060070154811015614220578060138190555083601183815481106141e5576141e461507e565b5b90600052602060002001819055507ffc71ef5ab0e6681c5141e684224d7187ef650e1e09cf736d3313a8bc7d4020ca60405160405180910390a15b50505050565b6000604051905090565b600080fd5b600080fd5b6000819050919050565b61424d8161423a565b811461425857600080fd5b50565b60008135905061426a81614244565b92915050565b600073ffffffffffffffffffffffffffffffffffffffff82169050919050565b600061429b82614270565b9050919050565b6142ab81614290565b81146142b657600080fd5b50565b6000813590506142c8816142a2565b92915050565b600080604083850312156142e5576142e4614230565b5b60006142f38582860161425b565b9250506020614304858286016142b9565b9150509250929050565b6143178161423a565b82525050565b6000602082019050614332600083018461430e565b92915050565b60006020828403121561434e5761434d614230565b5b600061435c848285016142b9565b91505092915050565b6000806040838503121561437c5761437b614230565b5b600061438a8582860161425b565b925050602061439b8582860161425b565b9150509250929050565b600080604083850312156143bc576143bb614230565b5b60006143ca858286016142b9565b92505060206143db8582860161425b565b9150509250929050565b6143ee81614290565b82525050565b600081519050919050565b600082825260208201905092915050565b60005b8381101561442e578082015181840152602081019050614413565b60008484015250505050565b6000601f19601f8301169050919050565b6000614456826143f4565b61446081856143ff565b9350614470818560208601614410565b6144798161443a565b840191505092915050565b60006101008201905061449a600083018b61430e565b6144a7602083018a61430e565b6144b4604083018961430e565b6144c1606083018861430e565b6144ce608083018761430e565b6144db60a083018661430e565b6144e860c08301856143e5565b81810360e08301526144fa818461444b565b90509998505050505050505050565b600080604083850312156145205761451f614230565b5b600061452e858286016142b9565b925050602061453f858286016142b9565b9150509250929050565b60008115159050919050565b61455e81614549565b82525050565b60006020820190506145796000830184614555565b92915050565b600080fd5b600080fd5b7f4e487b7100000000000000000000000000000000000000000000000000000000600052604160045260246000fd5b6145c18261443a565b810181811067ffffffffffffffff821117156145e0576145df614589565b5b80604052505050565b60006145f3614226565b90506145ff82826145b8565b919050565b600067ffffffffffffffff82111561461f5761461e614589565b5b6146288261443a565b9050602081019050919050565b82818337600083830152505050565b600061465761465284614604565b6145e9565b90508281526020810184848401111561467357614672614584565b5b61467e848285614635565b509392505050565b600082601f83011261469b5761469a61457f565b5b81356146ab848260208601614644565b91505092915050565b600080600080600060a086880312156146d0576146cf614230565b5b600086013567ffffffffffffffff8111156146ee576146ed614235565b5b6146fa88828901614686565b955050602086013567ffffffffffffffff81111561471b5761471a614235565b5b61472788828901614686565b945050604086013567ffffffffffffffff81111561474857614747614235565b5b61475488828901614686565b93505060606147658882890161425b565b925050608086013567ffffffffffffffff81111561478657614785614235565b5b61479288828901614686565b9150509295509295909350565b6000819050919050565b60006147c46147bf6147ba84614270565b61479f565b614270565b9050919050565b60006147d6826147a9565b9050919050565b60006147e8826147cb565b9050919050565b6147f8816147dd565b82525050565b600060208201905061481360008301846147ef565b92915050565b600081519050919050565b600082825260208201905092915050565b6000819050602082019050919050565b61484e8161423a565b82525050565b60006148608383614845565b60208301905092915050565b6000602082019050919050565b600061488482614819565b61488e8185614824565b935061489983614835565b8060005b838110156148ca5781516148b18882614854565b97506148bc8361486c565b92505060018101905061489d565b5085935050505092915050565b600060208201905081810360008301526148f18184614879565b905092915050565b60006020828403121561490f5761490e614230565b5b600082013567ffffffffffffffff81111561492d5761492c614235565b5b61493984828501614686565b91505092915050565b600061494d826147cb565b9050919050565b61495d81614942565b82525050565b60006020820190506149786000830184614954565b92915050565b6000614989826147cb565b9050919050565b6149998161497e565b82525050565b60006020820190506149b46000830184614990565b92915050565b6000602082840312156149d0576149cf614230565b5b60006149de8482850161425b565b91505092915050565b6000610160820190506149fd600083018e61430e565b8181036020830152614a0f818d61444b565b9050614a1e604083018c6143e5565b8181036060830152614a30818b61444b565b90508181036080830152614a44818a61444b565b9050614a5360a083018961430e565b614a6060c083018861430e565b614a6d60e083018761430e565b614a7b61010083018661430e565b614a8961012083018561430e565b614a9761014083018461430e565b9c9b505050505050505050505050565b6000602082019050614abc60008301846143e5565b92915050565b7f4e487b7100000000000000000000000000000000000000000000000000000000600052601160045260246000fd5b6000614afc8261423a565b9150614b078361423a565b9250828202614b158161423a565b91508282048414831517614b2c57614b2b614ac2565b5b5092915050565b6000614b3e8261423a565b9150614b498361423a565b9250828201905080821115614b6157614b60614ac2565b5b92915050565b7f4e487b7100000000000000000000000000000000000000000000000000000000600052601260045260246000fd5b6000614ba18261423a565b9150614bac8361423a565b925082614bbc57614bbb614b67565b5b828204905092915050565b7f4e487b7100000000000000000000000000000000000000000000000000000000600052602260045260246000fd5b60006002820490506001821680614c0e57607f821691505b602082108103614c2157614c20614bc7565b5b50919050565b600081519050614c3681614244565b92915050565b600060208284031215614c5257614c51614230565b5b6000614c6084828501614c27565b91505092915050565b600081905092915050565b6000614c7f826143f4565b614c898185614c69565b9350614c99818560208601614410565b80840191505092915050565b6000614cb18284614c74565b915081905092915050565b7f616c72656164792075706c6f6164656400000000000000000000000000000000600082015250565b6000614cf26010836143ff565b9150614cfd82614cbc565b602082019050919050565b60006020820190508181036000830152614d2181614ce5565b9050919050565b6000606082019050614d3d60008301866143e5565b614d4a60208301856143e5565b614d57604083018461430e565b949350505050565b614d6881614549565b8114614d7357600080fd5b50565b600081519050614d8581614d5f565b92915050565b600060208284031215614da157614da0614230565b5b6000614daf84828501614d76565b91505092915050565b6000604082019050614dcd60008301856143e5565b8181036020830152614ddf818461444b565b90509392505050565b60008190508160005260206000209050919050565b60006020601f8301049050919050565b600082821b905092915050565b600060088302614e4a7fffffffffffffffffffffffffffffffffffffffffffffffffffffffffffffffff82614e0d565b614e548683614e0d565b95508019841693508086168417925050509392505050565b6000614e87614e82614e7d8461423a565b61479f565b61423a565b9050919050565b6000819050919050565b614ea183614e6c565b614eb5614ead82614e8e565b848454614e1a565b825550505050565b600090565b614eca614ebd565b614ed5818484614e98565b505050565b5b81811015614ef957614eee600082614ec2565b600181019050614edb565b5050565b601f821115614f3e57614f0f81614de8565b614f1884614dfd565b81016020851015614f27578190505b614f3b614f3385614dfd565b830182614eda565b50505b505050565b600082821c905092915050565b6000614f6160001984600802614f43565b1980831691505092915050565b6000614f7a8383614f50565b9150826002028217905092915050565b614f93826143f4565b67ffffffffffffffff811115614fac57614fab614589565b5b614fb68254614bf6565b614fc1828285614efd565b600060209050601f831160018114614ff45760008415614fe2578287015190505b614fec8582614f6e565b865550615054565b601f19841661500286614de8565b60005b8281101561502a57848901518255600182019150602085019450602081019050615005565b868310156150475784890151615043601f891682614f50565b8355505b6001600288020188555050505b505050505050565b60006020820190508181036000830152615076818461444b565b905092915050565b7f4e487b7100000000000000000000000000000000000000000000000000000000600052603260045260246000fd5b60006150b88261423a565b91507fffffffffffffffffffffffffffffffffffffffffffffffffffffffffffffffff82036150ea576150e9614ac2565b5b600182019050919050565b7f696e76616c696420507572636861736520416d6f756e74000000000000000000600082015250565b600061512b6017836143ff565b9150615136826150f5565b602082019050919050565b6000602082019050818103600083015261515a8161511e565b9050919050565b7f616d6f756e742065786365656473206c696d6974000000000000000000000000600082015250565b60006151976014836143ff565b91506151a282615161565b602082019050919050565b600060208201905081810360008301526151c68161518a565b9050919050565b7f616c726561647920766f74656400000000000000000000000000000000000000600082015250565b6000615203600d836143ff565b915061520e826151cd565b602082019050919050565b60006020820190508181036000830152615232816151f6565b9050919050565b6000815461524681614bf6565b61525081866143ff565b9450600182166000811461526b5760018114615281576152b4565b60ff1983168652811515602002860193506152b4565b61528a85614de8565b60005b838110156152ac5781548189015260018201915060208101905061528d565b808801955050505b50505092915050565b600060408201905081810360008301526152d78185615239565b90506152e6602083018461430e565b9392505050565b7f6e6f2066616e636c756200000000000000000000000000000000000000000000600082015250565b6000615323600a836143ff565b915061532e826152ed565b602082019050919050565b6000602082019050818103600083015261535281615316565b9050919050565b7f616c726561647920637265617465640000000000000000000000000000000000600082015250565b600061538f600f836143ff565b915061539a82615359565b602082019050919050565b600060208201905081810360008301526153be81615382565b9050919050565b7f4654000000000000000000000000000000000000000000000000000000000000600082015250565b60006153fb6002836143ff565b9150615406826153c5565b602082019050919050565b6000604082019050818103600083015261542b818461444b565b9050818103602083015261543e816153ee565b905092915050565b600081519050615455816142a2565b92915050565b60006020828403121561547157615470614230565b5b600061547f84828501615446565b91505092915050565b600060408201905061549d60008301856143e5565b6154aa60208301846143e5565b9392505050565b7f6e6f7420656c696769626c650000000000000000000000000000000000000000600082015250565b60006154e7600c836143ff565b91506154f2826154b1565b602082019050919050565b60006020820190508181036000830152615516816154da565b9050919050565b7f616c72656164792066616e000000000000000000000000000000000000000000600082015250565b6000615553600b836143ff565b915061555e8261551d565b602082019050919050565b6000602082019050818103600083015261558281615546565b9050919050565b7f617574686f722072657175697265640000000000000000000000000000000000600082015250565b60006155bf600f836143ff565b91506155ca82615589565b602082019050919050565b600060208201905081810360008301526155ee816155b2565b9050919050565b7f6e6f2066616e20636c7562000000000000000000000000000000000000000000600082015250565b600061562b600b836143ff565b9150615636826155f5565b602082019050919050565b6000602082019050818103600083015261565a8161561e565b9050919050565b7f646f6e6174696f6e20667265657a696e672074696d6500000000000000000000600082015250565b60006156976016836143ff565b91506156a282615661565b602082019050919050565b600060208201905081810360008301526156c68161568a565b9050919050565b7f66616e206e656564656400000000000000000000000000000000000000000000600082015250565b6000615703600a836143ff565b915061570e826156cd565b602082019050919050565b60006020820190508181036000830152615732816156f6565b9050919050565b7f756e7175616c696669656420616d6f756e740000000000000000000000000000600082015250565b600061576f6012836143ff565b915061577a82615739565b602082019050919050565b6000602082019050818103600083015261579e81615762565b9050919050565b7f616c7265616479206f776e656400000000000000000000000000000000000000600082015250565b60006157db600d836143ff565b91506157e6826157a5565b602082019050919050565b6000602082019050818103600083015261580a816157ce565b9050919050565b6000604082019050818103600083015261582b818561444b565b905061583a602083018461430e565b939250505056fea2646970667358221220adcc18a54cef84b0c78d9c10cfb0f91b63a46a0c58439e90a08d0e888ee30aa764736f6c63430008120033",
  "linkReferences": {},
  "deployedLinkReferences": {}
}