{
  "_format": "hh-sol-artifact-1",
  "contractName": "MusicVault",
  "sourceName": "contracts/MusicVault.sol",
  "abi": [
    {
      "inputs": [
        {
          "internalType": "address",
          "name": "_vaultToken",
          "type": "address"
        },
        {
          "internalType": "address",
          "name": "_vaultNFT",
          "type": "address"
        },
        {
          "internalType": "address",
          "name": "_factory",
          "type": "address"
        }
      ],
      "stateMutability": "nonpayable",
      "type": "constructor"
    },
    {
      "anonymous": false,
      "inputs": [
        {
          "indexed": false,
          "internalType": "address",
          "name": "author",
          "type": "address"
        },
        {
          "indexed": false,
          "internalType": "uint256",
          "name": "musicId",
          "type": "uint256"
        }
      ],
      "name": "airdrop",
      "type": "event"
    },
    {
      "anonymous": false,
      "inputs": [
        {
          "indexed": false,
          "internalType": "address",
          "name": "author",
          "type": "address"
        },
        {
          "indexed": false,
          "internalType": "address",
          "name": "fan",
          "type": "address"
        },
        {
          "indexed": false,
          "internalType": "uint256",
          "name": "amount",
          "type": "uint256"
        }
      ],
      "name": "donate",
      "type": "event"
    },
    {
      "anonymous": false,
      "inputs": [
        {
          "indexed": true,
          "internalType": "address",
          "name": "musician",
          "type": "address"
        },
        {
          "indexed": true,
          "internalType": "address",
          "name": "fanNFT",
          "type": "address"
        }
      ],
      "name": "fanClubCreate",
      "type": "event"
    },
    {
      "anonymous": false,
      "inputs": [
        {
          "indexed": true,
          "internalType": "address",
          "name": "musician",
          "type": "address"
        },
        {
          "indexed": true,
          "internalType": "address",
          "name": "fanNFT",
          "type": "address"
        },
        {
          "indexed": true,
          "internalType": "address",
          "name": "fan",
          "type": "address"
        }
      ],
      "name": "fanClubJoin",
      "type": "event"
    },
    {
      "anonymous": false,
      "inputs": [],
      "name": "leaderBoardRefresh",
      "type": "event"
    },
    {
      "anonymous": false,
      "inputs": [
        {
          "indexed": true,
          "internalType": "address",
          "name": "buyer",
          "type": "address"
        },
        {
          "indexed": true,
          "internalType": "uint256",
          "name": "musicId",
          "type": "uint256"
        },
        {
          "indexed": false,
          "internalType": "string",
          "name": "musicName",
          "type": "string"
        },
        {
          "indexed": false,
          "internalType": "uint256",
          "name": "amount",
          "type": "uint256"
        }
      ],
      "name": "musicPurchase",
      "type": "event"
    },
    {
      "anonymous": false,
      "inputs": [
        {
          "indexed": true,
          "internalType": "address",
          "name": "musician",
          "type": "address"
        },
        {
          "indexed": true,
          "internalType": "uint256",
          "name": "musicId",
          "type": "uint256"
        },
        {
          "indexed": false,
          "internalType": "string",
          "name": "musicName",
          "type": "string"
        }
      ],
      "name": "musicUpload",
      "type": "event"
    },
    {
      "anonymous": false,
      "inputs": [
        {
          "indexed": true,
          "internalType": "address",
          "name": "buyer",
          "type": "address"
        },
        {
          "indexed": true,
          "internalType": "uint256",
          "name": "musicId",
          "type": "uint256"
        },
        {
          "indexed": false,
          "internalType": "string",
          "name": "musicName",
          "type": "string"
        },
        {
          "indexed": false,
          "internalType": "uint256",
          "name": "amount",
          "type": "uint256"
        }
      ],
      "name": "musicVote",
      "type": "event"
    },
    {
      "inputs": [
        {
          "internalType": "address",
          "name": "",
          "type": "address"
        }
      ],
      "name": "address2IsUserMapping",
      "outputs": [
        {
          "internalType": "bool",
          "name": "",
          "type": "bool"
        }
      ],
      "stateMutability": "view",
      "type": "function"
    },
    {
      "inputs": [
        {
          "internalType": "address",
          "name": "",
          "type": "address"
        }
      ],
      "name": "address2UserMapping",
      "outputs": [
        {
          "internalType": "uint256",
          "name": "purchase",
          "type": "uint256"
        },
        {
          "internalType": "uint256",
          "name": "vote",
          "type": "uint256"
        },
        {
          "internalType": "uint256",
          "name": "totalExpense",
          "type": "uint256"
        },
        {
          "internalType": "uint256",
          "name": "totalRevenue",
          "type": "uint256"
        },
        {
          "internalType": "uint256",
          "name": "soldCopy",
          "type": "uint256"
        },
        {
          "internalType": "uint256",
          "name": "receivedVote",
          "type": "uint256"
        },
        {
          "internalType": "address",
          "name": "fanNFT",
          "type": "address"
        },
        {
          "internalType": "string",
          "name": "chatId",
          "type": "string"
        }
      ],
      "stateMutability": "view",
      "type": "function"
    },
    {
      "inputs": [
        {
          "internalType": "uint256",
          "name": "musicId",
          "type": "uint256"
        },
        {
          "internalType": "uint256",
          "name": "contributeEntry",
          "type": "uint256"
        }
      ],
      "name": "airdropMusic",
      "outputs": [],
      "stateMutability": "nonpayable",
      "type": "function"
    },
    {
      "inputs": [
        {
          "internalType": "address",
          "name": "",
          "type": "address"
        },
        {
          "internalType": "address",
          "name": "",
          "type": "address"
        }
      ],
      "name": "author2userEligibleMapping",
      "outputs": [
        {
          "internalType": "bool",
          "name": "",
          "type": "bool"
        }
      ],
      "stateMutability": "view",
      "type": "function"
    },
    {
      "inputs": [
        {
          "internalType": "uint256",
          "name": "musicId",
          "type": "uint256"
        },
        {
          "internalType": "uint256",
          "name": "amount",
          "type": "uint256"
        }
      ],
      "name": "calculatePurchaseFee",
      "outputs": [
        {
          "internalType": "uint256",
          "name": "",
          "type": "uint256"
        }
      ],
      "stateMutability": "view",
      "type": "function"
    },
    {
      "inputs": [
        {
          "internalType": "uint256",
          "name": "baseFee",
          "type": "uint256"
        },
        {
          "internalType": "uint256",
          "name": "amount",
          "type": "uint256"
        }
      ],
      "name": "calculateSquaredFee",
      "outputs": [
        {
          "internalType": "uint256",
          "name": "",
          "type": "uint256"
        }
      ],
      "stateMutability": "pure",
      "type": "function"
    },
    {
      "inputs": [
        {
          "internalType": "uint256",
          "name": "amount",
          "type": "uint256"
        }
      ],
      "name": "calculateVoteFee",
      "outputs": [
        {
          "internalType": "uint256",
          "name": "",
          "type": "uint256"
        }
      ],
      "stateMutability": "pure",
      "type": "function"
    },
    {
      "inputs": [
        {
          "internalType": "address",
          "name": "author",
          "type": "address"
        }
      ],
      "name": "canBeFollowed",
      "outputs": [
        {
          "internalType": "bool",
          "name": "",
          "type": "bool"
        }
      ],
      "stateMutability": "view",
      "type": "function"
    },
    {
      "inputs": [
        {
          "internalType": "address",
          "name": "",
          "type": "address"
        },
        {
          "internalType": "uint256",
          "name": "",
          "type": "uint256"
        }
      ],
      "name": "collector2MusicIdMapping",
      "outputs": [
        {
          "internalType": "uint256",
          "name": "",
          "type": "uint256"
        }
      ],
      "stateMutability": "view",
      "type": "function"
    },
    {
      "inputs": [
        {
          "internalType": "string",
          "name": "",
          "type": "string"
        }
      ],
      "name": "contentUploadedMapping",
      "outputs": [
        {
          "internalType": "bool",
          "name": "",
          "type": "bool"
        }
      ],
      "stateMutability": "view",
      "type": "function"
    },
    {
      "inputs": [
        {
          "internalType": "string",
          "name": "fanNFTName",
          "type": "string"
        }
      ],
      "name": "createFanNFT",
      "outputs": [],
      "stateMutability": "nonpayable",
      "type": "function"
    },
    {
      "inputs": [
        {
          "internalType": "address",
          "name": "author",
          "type": "address"
        },
        {
          "internalType": "uint256",
          "name": "amount",
          "type": "uint256"
        }
      ],
      "name": "donateToAuthor",
      "outputs": [],
      "stateMutability": "nonpayable",
      "type": "function"
    },
    {
      "inputs": [],
      "name": "fanNFTFactory",
      "outputs": [
        {
          "internalType": "contract IFanNFTFactory",
          "name": "",
          "type": "address"
        }
      ],
      "stateMutability": "view",
      "type": "function"
    },
    {
      "inputs": [
        {
          "internalType": "address",
          "name": "author",
          "type": "address"
        }
      ],
      "name": "followMusician",
      "outputs": [],
      "stateMutability": "nonpayable",
      "type": "function"
    },
    {
      "inputs": [
        {
          "internalType": "address",
          "name": "_user",
          "type": "address"
        }
      ],
      "name": "getCollectorMusicIdList",
      "outputs": [
        {
          "internalType": "uint256[]",
          "name": "",
          "type": "uint256[]"
        }
      ],
      "stateMutability": "view",
      "type": "function"
    },
    {
      "inputs": [
        {
          "internalType": "address",
          "name": "_user",
          "type": "address"
        }
      ],
      "name": "getCollectorMusicNumber",
      "outputs": [
        {
          "internalType": "uint256",
          "name": "",
          "type": "uint256"
        }
      ],
      "stateMutability": "view",
      "type": "function"
    },
    {
      "inputs": [
        {
          "internalType": "address",
          "name": "_author",
          "type": "address"
        },
        {
          "internalType": "address",
          "name": "_fan",
          "type": "address"
        }
      ],
      "name": "getFanContribution",
      "outputs": [
        {
          "internalType": "uint256",
          "name": "",
          "type": "uint256"
        }
      ],
      "stateMutability": "view",
      "type": "function"
    },
    {
      "inputs": [
        {
          "internalType": "address",
          "name": "_user",
          "type": "address"
        }
      ],
      "name": "getFanNumber",
      "outputs": [
        {
          "internalType": "uint256",
          "name": "",
          "type": "uint256"
        }
      ],
      "stateMutability": "view",
      "type": "function"
    },
    {
      "inputs": [
        {
          "internalType": "address",
          "name": "_user",
          "type": "address"
        }
      ],
      "name": "getOwnerMusicIdList",
      "outputs": [
        {
          "internalType": "uint256[]",
          "name": "",
          "type": "uint256[]"
        }
      ],
      "stateMutability": "view",
      "type": "function"
    },
    {
      "inputs": [
        {
          "internalType": "address",
          "name": "_user",
          "type": "address"
        }
      ],
      "name": "getOwnerMusicNumber",
      "outputs": [
        {
          "internalType": "uint256",
          "name": "",
          "type": "uint256"
        }
      ],
      "stateMutability": "view",
      "type": "function"
    },
    {
      "inputs": [],
      "name": "getPurchaseLeaderboard",
      "outputs": [
        {
          "internalType": "uint256[]",
          "name": "list",
          "type": "uint256[]"
        }
      ],
      "stateMutability": "view",
      "type": "function"
    },
    {
      "inputs": [
        {
          "internalType": "address",
          "name": "_user",
          "type": "address"
        }
      ],
      "name": "getUserCredit",
      "outputs": [
        {
          "internalType": "uint256",
          "name": "",
          "type": "uint256"
        }
      ],
      "stateMutability": "view",
      "type": "function"
    },
    {
      "inputs": [
        {
          "internalType": "address",
          "name": "_user",
          "type": "address"
        }
      ],
      "name": "getUserPurchase",
      "outputs": [
        {
          "internalType": "uint256",
          "name": "",
          "type": "uint256"
        }
      ],
      "stateMutability": "view",
      "type": "function"
    },
    {
      "inputs": [
        {
          "internalType": "address",
          "name": "_user",
          "type": "address"
        }
      ],
      "name": "getUserVote",
      "outputs": [
        {
          "internalType": "uint256",
          "name": "",
          "type": "uint256"
        }
      ],
      "stateMutability": "view",
      "type": "function"
    },
    {
      "inputs": [],
      "name": "getVoteLeaderboard",
      "outputs": [
        {
          "internalType": "uint256[]",
          "name": "list",
          "type": "uint256[]"
        }
      ],
      "stateMutability": "view",
      "type": "function"
    },
    {
      "inputs": [
        {
          "internalType": "address",
          "name": "author",
          "type": "address"
        },
        {
          "internalType": "address",
          "name": "fan",
          "type": "address"
        }
      ],
      "name": "isFollower",
      "outputs": [
        {
          "internalType": "bool",
          "name": "",
          "type": "bool"
        }
      ],
      "stateMutability": "view",
      "type": "function"
    },
    {
      "inputs": [
        {
          "internalType": "uint256",
          "name": "",
          "type": "uint256"
        },
        {
          "internalType": "address",
          "name": "",
          "type": "address"
        }
      ],
      "name": "musicId2CollectorAmountMapping",
      "outputs": [
        {
          "internalType": "uint256",
          "name": "",
          "type": "uint256"
        }
      ],
      "stateMutability": "view",
      "type": "function"
    },
    {
      "inputs": [
        {
          "internalType": "uint256",
          "name": "",
          "type": "uint256"
        },
        {
          "internalType": "address",
          "name": "",
          "type": "address"
        }
      ],
      "name": "musicId2CollectorVoteAmountMapping",
      "outputs": [
        {
          "internalType": "uint256",
          "name": "",
          "type": "uint256"
        }
      ],
      "stateMutability": "view",
      "type": "function"
    },
    {
      "inputs": [
        {
          "internalType": "uint256",
          "name": "",
          "type": "uint256"
        }
      ],
      "name": "musicId2MusicMapping",
      "outputs": [
        {
          "internalType": "uint256",
          "name": "musicId",
          "type": "uint256"
        },
        {
          "internalType": "string",
          "name": "musicName",
          "type": "string"
        },
        {
          "internalType": "address",
          "name": "author",
          "type": "address"
        },
        {
          "internalType": "string",
          "name": "musicDescription",
          "type": "string"
        },
        {
          "internalType": "string",
          "name": "cid",
          "type": "string"
        },
        {
          "internalType": "uint256",
          "name": "purchaseFee",
          "type": "uint256"
        },
        {
          "internalType": "uint256",
          "name": "uploadTimestamp",
          "type": "uint256"
        },
        {
          "internalType": "uint256",
          "name": "purchaseAmount",
          "type": "uint256"
        },
        {
          "internalType": "uint256",
          "name": "purchaseRevenue",
          "type": "uint256"
        },
        {
          "internalType": "uint256",
          "name": "voteAmount",
          "type": "uint256"
        },
        {
          "internalType": "uint256",
          "name": "voteRevenue",
          "type": "uint256"
        }
      ],
      "stateMutability": "view",
      "type": "function"
    },
    {
      "inputs": [],
      "name": "musicNumber",
      "outputs": [
        {
          "internalType": "uint256",
          "name": "",
          "type": "uint256"
        }
      ],
      "stateMutability": "view",
      "type": "function"
    },
    {
      "inputs": [
        {
          "internalType": "address",
          "name": "",
          "type": "address"
        },
        {
          "internalType": "uint256",
          "name": "",
          "type": "uint256"
        }
      ],
      "name": "owner2MusicIdMapping",
      "outputs": [
        {
          "internalType": "uint256",
          "name": "",
          "type": "uint256"
        }
      ],
      "stateMutability": "view",
      "type": "function"
    },
    {
      "inputs": [
        {
          "internalType": "uint256",
          "name": "musicId",
          "type": "uint256"
        },
        {
          "internalType": "uint256",
          "name": "amount",
          "type": "uint256"
        }
      ],
      "name": "purchaseMusic",
      "outputs": [],
      "stateMutability": "nonpayable",
      "type": "function"
    },
    {
      "inputs": [],
      "name": "purchaseNumer",
      "outputs": [
        {
          "internalType": "uint256",
          "name": "",
          "type": "uint256"
        }
      ],
      "stateMutability": "view",
      "type": "function"
    },
    {
      "inputs": [],
      "name": "purchaseTokenAmount",
      "outputs": [
        {
          "internalType": "uint256",
          "name": "",
          "type": "uint256"
        }
      ],
      "stateMutability": "view",
      "type": "function"
    },
    {
      "inputs": [
        {
          "internalType": "string",
          "name": "fanchatId",
          "type": "string"
        }
      ],
      "name": "setFanChatId",
      "outputs": [],
      "stateMutability": "nonpayable",
      "type": "function"
    },
    {
      "inputs": [],
      "name": "tokenVaultWalletAddress",
      "outputs": [
        {
          "internalType": "address",
          "name": "",
          "type": "address"
        }
      ],
      "stateMutability": "view",
      "type": "function"
    },
    {
      "inputs": [
        {
          "internalType": "string",
          "name": "musicName",
          "type": "string"
        },
        {
          "internalType": "string",
          "name": "musicDescription",
          "type": "string"
        },
        {
          "internalType": "string",
          "name": "cid",
          "type": "string"
        },
        {
          "internalType": "uint256",
          "name": "purchaseFee",
          "type": "uint256"
        },
        {
          "internalType": "string",
          "name": "tokenURI",
          "type": "string"
        }
      ],
      "name": "uploadMusic",
      "outputs": [
        {
          "internalType": "uint256",
          "name": "",
          "type": "uint256"
        }
      ],
      "stateMutability": "nonpayable",
      "type": "function"
    },
    {
      "inputs": [],
      "name": "userNumber",
      "outputs": [
        {
          "internalType": "uint256",
          "name": "",
          "type": "uint256"
        }
      ],
      "stateMutability": "view",
      "type": "function"
    },
    {
      "inputs": [],
      "name": "vaultNFT",
      "outputs": [
        {
          "internalType": "contract IERC721",
          "name": "",
          "type": "address"
        }
      ],
      "stateMutability": "view",
      "type": "function"
    },
    {
      "inputs": [],
      "name": "vaultToken",
      "outputs": [
        {
          "internalType": "contract IERC20",
          "name": "",
          "type": "address"
        }
      ],
      "stateMutability": "view",
      "type": "function"
    },
    {
      "inputs": [
        {
          "internalType": "uint256",
          "name": "musicId",
          "type": "uint256"
        },
        {
          "internalType": "uint256",
          "name": "amount",
          "type": "uint256"
        }
      ],
      "name": "voteMusic",
      "outputs": [],
      "stateMutability": "nonpayable",
      "type": "function"
    }
  ],
  "bytecode": "0x6080604052600067ffffffffffffffff81111562000022576200002162000297565b5b604051908082528060200260200182016040528015620000515781602001602082028036833780820191505090505b50601190805190602001906200006992919062000226565b50600067ffffffffffffffff81111562000088576200008762000297565b5b604051908082528060200260200182016040528015620000b75781602001602082028036833780820191505090505b5060129080519060200190620000cf92919062000226565b5060006013556000601455348015620000e757600080fd5b5060405162005c4438038062005c4483398181016040528101906200010d919062000330565b82828282828282600660006101000a81548173ffffffffffffffffffffffffffffffffffffffff021916908373ffffffffffffffffffffffffffffffffffffffff16021790555081600760006101000a81548173ffffffffffffffffffffffffffffffffffffffff021916908373ffffffffffffffffffffffffffffffffffffffff16021790555080600860006101000a81548173ffffffffffffffffffffffffffffffffffffffff021916908373ffffffffffffffffffffffffffffffffffffffff16021790555033600960006101000a81548173ffffffffffffffffffffffffffffffffffffffff021916908373ffffffffffffffffffffffffffffffffffffffff1602179055505050505050505050506200038c565b82805482825590600052602060002090810192821562000265579160200282015b828111156200026457825182559160200191906001019062000247565b5b50905062000274919062000278565b5090565b5b808211156200029357600081600090555060010162000279565b5090565b7f4e487b7100000000000000000000000000000000000000000000000000000000600052604160045260246000fd5b600080fd5b600073ffffffffffffffffffffffffffffffffffffffff82169050919050565b6000620002f882620002cb565b9050919050565b6200030a81620002eb565b81146200031657600080fd5b50565b6000815190506200032a81620002ff565b92915050565b6000806000606084860312156200034c576200034b620002c6565b5b60006200035c8682870162000319565b93505060206200036f8682870162000319565b9250506040620003828682870162000319565b9150509250925092565b6158a8806200039c6000396000f3fe608060405234801561001057600080fd5b50600436106102535760003560e01c806380c7bfd611610146578063d00deb51116100c3578063dad6f0dc11610087578063dad6f0dc14610805578063e5fe947714610835578063f0df047914610865578063f23533e914610883578063fb9de14c1461089f578063fff6bb9b146108bd57610253565b8063d00deb5114610745578063d3152dac14610761578063d439f59f1461077f578063d4923d4e1461079b578063d5eef6c1146107cb57610253565b8063a97060f51161010a578063a97060f514610667578063b872eb2514610697578063bd3098ce146106b5578063bda235da146106e5578063c84852f21461071557610253565b806380c7bfd6146105af57806384dea1a1146105cb5780638983ad7e146105e95780638a2b7ce2146106195780639e94f6dd1461064957610253565b8063442600ac116101d457806362b744bd1161019857806362b744bd146104e55780636961135c146105155780636b45eb6914610545578063703bafd514610561578063703fce161461057f57610253565b8063442600ac1461041b578063519cc0a71461044b5780635d730d21146104695780636042c3c21461049957806360bb4fa7146104b557610253565b806323db573d1161021b57806323db573d146103365780632b4e8413146103665780632e66cbb0146103845780632f945a5d146103bb5780633ba07043146103eb57610253565b80630ae7772a146102585780630fa7a5be14610288578063193e13fe146102b85780631e68934a146102d65780632102b65114610306575b600080fd5b610272600480360381019061026d91906142ff565b6108d9565b60405161027f919061434e565b60405180910390f35b6102a2600480360381019061029d9190614369565b6108fe565b6040516102af919061434e565b60405180910390f35b6102c061094a565b6040516102cd919061434e565b60405180910390f35b6102f060048036038101906102eb9190614396565b610950565b6040516102fd919061434e565b60405180910390f35b610320600480360381019061031b91906143d6565b6109ac565b60405161032d919061434e565b60405180910390f35b610350600480360381019061034b91906143d6565b6109dd565b60405161035d919061434e565b60405180910390f35b61036e610a0e565b60405161037b919061434e565b60405180910390f35b61039e60048036038101906103999190614369565b610a14565b6040516103b29897969594939291906144b5565b60405180910390f35b6103d560048036038101906103d0919061453a565b610b04565b6040516103e29190614595565b60405180910390f35b61040560048036038101906104009190614369565b610b33565b604051610412919061434e565b60405180910390f35b610435600480360381019061043091906146e5565b610d08565b604051610442919061434e565b60405180910390f35b610453611227565b604051610460919061482f565b60405180910390f35b610483600480360381019061047e9190614369565b61124d565b6040516104909190614908565b60405180910390f35b6104b360048036038101906104ae9190614396565b61134d565b005b6104cf60048036038101906104ca9190614369565b61179e565b6040516104dc9190614595565b60405180910390f35b6104ff60048036038101906104fa9190614396565b611838565b60405161050c919061434e565b60405180910390f35b61052f600480360381019061052a9190614369565b611862565b60405161053c9190614595565b60405180910390f35b61055f600480360381019061055a919061492a565b611882565b005b6105696119a4565b6040516105769190614994565b60405180910390f35b61059960048036038101906105949190614369565b6119ca565b6040516105a69190614908565b60405180910390f35b6105c960048036038101906105c4919061492a565b611aca565b005b6105d3611dc4565b6040516105e091906149d0565b60405180910390f35b61060360048036038101906105fe91906142ff565b611dea565b604051610610919061434e565b60405180910390f35b610633600480360381019061062e919061492a565b611e0f565b6040516106409190614595565b60405180910390f35b610651611e45565b60405161065e919061434e565b60405180910390f35b610681600480360381019061067c91906149eb565b611e4b565b60405161068e919061434e565b60405180910390f35b61069f611e66565b6040516106ac9190614908565b60405180910390f35b6106cf60048036038101906106ca919061453a565b611f19565b6040516106dc919061434e565b60405180910390f35b6106ff60048036038101906106fa9190614369565b6120f1565b60405161070c919061434e565b60405180910390f35b61072f600480360381019061072a9190614369565b61213c565b60405161073c919061434e565b60405180910390f35b61075f600480360381019061075a9190614369565b612188565b005b610769612501565b6040516107769190614908565b60405180910390f35b61079960048036038101906107949190614396565b6125b4565b005b6107b560048036038101906107b09190614369565b612a2c565b6040516107c2919061434e565b60405180910390f35b6107e560048036038101906107e091906149eb565b612a77565b6040516107fc9b9a99989796959493929190614a18565b60405180910390f35b61081f600480360381019061081a9190614369565b612c89565b60405161082c919061434e565b60405180910390f35b61084f600480360381019061084a919061453a565b612d2c565b60405161085c9190614595565b60405180910390f35b61086d612e53565b60405161087a9190614ad8565b60405180910390f35b61089d600480360381019061089891906143d6565b612e79565b005b6108a7613302565b6040516108b4919061434e565b60405180910390f35b6108d760048036038101906108d29190614396565b613308565b005b600e602052816000526040600020602052806000526040600020600091509150505481565b6000600d60008373ffffffffffffffffffffffffffffffffffffffff1673ffffffffffffffffffffffffffffffffffffffff168152602001908152602001600020805490509050919050565b60055481565b600082600660018460026109649190614b22565b61096e9190614b64565b60018561097b9190614b64565b856109869190614b22565b6109909190614b22565b61099a9190614bc7565b6109a49190614b22565b905092915050565b600b60205281600052604060002081815481106109c857600080fd5b90600052602060002001600091509150505481565b600d60205281600052604060002081815481106109f957600080fd5b90600052602060002001600091509150505481565b60015481565b60006020528060005260406000206000915090508060000154908060010154908060020154908060030154908060040154908060050154908060060160009054906101000a900473ffffffffffffffffffffffffffffffffffffffff1690806007018054610a8190614c27565b80601f0160208091040260200160405190810160405280929190818152602001828054610aad90614c27565b8015610afa5780601f10610acf57610100808354040283529160200191610afa565b820191906000526020600020905b815481529060010190602001808311610add57829003601f168201915b5050505050905088565b60106020528160005260406000206020528060005260406000206000915091509054906101000a900460ff1681565b60008073ffffffffffffffffffffffffffffffffffffffff166000808473ffffffffffffffffffffffffffffffffffffffff1673ffffffffffffffffffffffffffffffffffffffff16815260200190815260200160002060060160009054906101000a900473ffffffffffffffffffffffffffffffffffffffff1673ffffffffffffffffffffffffffffffffffffffff1603610c04576040517f08c379a0000000000000000000000000000000000000000000000000000000008152600401610bfb90614ca4565b60405180910390fd5b600860009054906101000a900473ffffffffffffffffffffffffffffffffffffffff1673ffffffffffffffffffffffffffffffffffffffff16633ba070436000808573ffffffffffffffffffffffffffffffffffffffff1673ffffffffffffffffffffffffffffffffffffffff16815260200190815260200160002060060160009054906101000a900473ffffffffffffffffffffffffffffffffffffffff166040518263ffffffff1660e01b8152600401610cc09190614ad8565b602060405180830381865afa158015610cdd573d6000803e3d6000fd5b505050506040513d601f19601f82011682018060405250810190610d019190614cd9565b9050919050565b6000600c84604051610d1a9190614d42565b908152602001604051809103902060009054906101000a900460ff1615610d76576040517f08c379a0000000000000000000000000000000000000000000000000000000008152600401610d6d90614da5565b60405180910390fd5b600660009054906101000a900473ffffffffffffffffffffffffffffffffffffffff1673ffffffffffffffffffffffffffffffffffffffff166323b872dd33600960009054906101000a900473ffffffffffffffffffffffffffffffffffffffff16678ac7230489e800006040518463ffffffff1660e01b8152600401610dff93929190614dc5565b6020604051808303816000875af1158015610e1e573d6000803e3d6000fd5b505050506040513d601f19601f82011682018060405250810190610e429190614e28565b506000600760009054906101000a900473ffffffffffffffffffffffffffffffffffffffff1673ffffffffffffffffffffffffffffffffffffffff1663d0def52133856040518363ffffffff1660e01b8152600401610ea2929190614e55565b6020604051808303816000875af1158015610ec1573d6000803e3d6000fd5b505050506040513d601f19601f82011682018060405250810190610ee59190614cd9565b905080600a60008381526020019081526020016000206000018190555086600a60008381526020019081526020016000206001019081610f259190615027565b5033600a600083815260200190815260200160002060020160006101000a81548173ffffffffffffffffffffffffffffffffffffffff021916908373ffffffffffffffffffffffffffffffffffffffff16021790555085600a60008381526020019081526020016000206003019081610f9e9190615027565b5084600a60008381526020019081526020016000206004019081610fc29190615027565b5083600a60008381526020019081526020016000206005018190555042600a600083815260200190815260200160002060060181905550600b60003373ffffffffffffffffffffffffffffffffffffffff1673ffffffffffffffffffffffffffffffffffffffff168152602001908152602001600020819080600181540180825580915050600190039060005260206000200160009091909190915055600d60003373ffffffffffffffffffffffffffffffffffffffff1673ffffffffffffffffffffffffffffffffffffffff1681526020019081526020016000208190806001815401808255809150506001900390600052602060002001600090919091909150556001600e600083815260200190815260200160002060003373ffffffffffffffffffffffffffffffffffffffff1673ffffffffffffffffffffffffffffffffffffffff168152602001908152602001600020819055506001600f600083815260200190815260200160002060003373ffffffffffffffffffffffffffffffffffffffff1673ffffffffffffffffffffffffffffffffffffffff168152602001908152602001600020819055506001600c866040516111839190614d42565b908152602001604051809103902060006101000a81548160ff0219169083151502179055506001600360008282546111bb9190614b64565b925050819055506111cb336139c6565b803373ffffffffffffffffffffffffffffffffffffffff167f0ecceb572ba8105927655eabee2b476295f9e9f3ebc33a8b21c4f384b47a85c88960405161121291906150f9565b60405180910390a38091505095945050505050565b600860009054906101000a900473ffffffffffffffffffffffffffffffffffffffff1681565b6060600061125a8361213c565b905060008167ffffffffffffffff811115611278576112776145ba565b5b6040519080825280602002602001820160405280156112a65781602001602082028036833780820191505090505b50905060005b8281101561134257600b60008673ffffffffffffffffffffffffffffffffffffffff1673ffffffffffffffffffffffffffffffffffffffff16815260200190815260200160002081815481106113055761130461511b565b5b90600052602060002001548282815181106113235761132261511b565b5b602002602001018181525050808061133a9061514a565b9150506112ac565b508092505050919050565b338160008111611392576040517f08c379a0000000000000000000000000000000000000000000000000000000008152600401611389906151de565b60405180910390fd5b61139b82612c89565b8111156113dd576040517f08c379a00000000000000000000000000000000000000000000000000000000081526004016113d49061524a565b60405180910390fd5b6000600a600086815260200190815260200160002060020160009054906101000a900473ffffffffffffffffffffffffffffffffffffffff1690506000600f600087815260200190815260200160002060003373ffffffffffffffffffffffffffffffffffffffff1673ffffffffffffffffffffffffffffffffffffffff16815260200190815260200160002054146114ab576040517f08c379a00000000000000000000000000000000000000000000000000000000081526004016114a2906152b6565b60405180910390fd5b60006114b685611e4b565b9050600660009054906101000a900473ffffffffffffffffffffffffffffffffffffffff1673ffffffffffffffffffffffffffffffffffffffff166323b872dd3384846040518463ffffffff1660e01b815260040161151793929190614dc5565b6020604051808303816000875af1158015611536573d6000803e3d6000fd5b505050506040513d601f19601f8201168201806040525081019061155a9190614e28565b5084600f600088815260200190815260200160002060003373ffffffffffffffffffffffffffffffffffffffff1673ffffffffffffffffffffffffffffffffffffffff1681526020019081526020016000208190555060016000803373ffffffffffffffffffffffffffffffffffffffff1673ffffffffffffffffffffffffffffffffffffffff16815260200190815260200160002060010160008282546116029190614b64565b92505081905550806000803373ffffffffffffffffffffffffffffffffffffffff1673ffffffffffffffffffffffffffffffffffffffff168152602001908152602001600020600201600082825461165a9190614b64565b92505081905550846000808473ffffffffffffffffffffffffffffffffffffffff1673ffffffffffffffffffffffffffffffffffffffff16815260200190815260200160002060050160008282546116b29190614b64565b92505081905550806000808473ffffffffffffffffffffffffffffffffffffffff1673ffffffffffffffffffffffffffffffffffffffff168152602001908152602001600020600301600082825461170a9190614b64565b9250508190555061171c868683613a8c565b611727823387613b8c565b611730336139c6565b853373ffffffffffffffffffffffffffffffffffffffff167f8acc2ae1fb028a613ff1036318376cf40c2571f6b6b1303bfe7f3b166624683a600a60008a81526020019081526020016000206001018860405161178e92919061535a565b60405180910390a3505050505050565b60008073ffffffffffffffffffffffffffffffffffffffff166000808473ffffffffffffffffffffffffffffffffffffffff1673ffffffffffffffffffffffffffffffffffffffff16815260200190815260200160002060060160009054906101000a900473ffffffffffffffffffffffffffffffffffffffff1673ffffffffffffffffffffffffffffffffffffffff1614159050919050565b600061185a600a60008581526020019081526020016000206005015483610950565b905092915050565b60026020528060005260406000206000915054906101000a900460ff1681565b600073ffffffffffffffffffffffffffffffffffffffff166000803373ffffffffffffffffffffffffffffffffffffffff1673ffffffffffffffffffffffffffffffffffffffff16815260200190815260200160002060060160009054906101000a900473ffffffffffffffffffffffffffffffffffffffff1673ffffffffffffffffffffffffffffffffffffffff1603611952576040517f08c379a000000000000000000000000000000000000000000000000000000000815260040161194990614ca4565b60405180910390fd5b806000803373ffffffffffffffffffffffffffffffffffffffff1673ffffffffffffffffffffffffffffffffffffffff16815260200190815260200160002060070190816119a09190615027565b5050565b600660009054906101000a900473ffffffffffffffffffffffffffffffffffffffff1681565b606060006119d7836108fe565b905060008167ffffffffffffffff8111156119f5576119f46145ba565b5b604051908082528060200260200182016040528015611a235781602001602082028036833780820191505090505b50905060005b82811015611abf57600d60008673ffffffffffffffffffffffffffffffffffffffff1673ffffffffffffffffffffffffffffffffffffffff1681526020019081526020016000208181548110611a8257611a8161511b565b5b9060005260206000200154828281518110611aa057611a9f61511b565b5b6020026020010181815250508080611ab79061514a565b915050611a29565b508092505050919050565b600073ffffffffffffffffffffffffffffffffffffffff166000803373ffffffffffffffffffffffffffffffffffffffff1673ffffffffffffffffffffffffffffffffffffffff16815260200190815260200160002060060160009054906101000a900473ffffffffffffffffffffffffffffffffffffffff1673ffffffffffffffffffffffffffffffffffffffff1614611b9a576040517f08c379a0000000000000000000000000000000000000000000000000000000008152600401611b91906153d6565b60405180910390fd5b6000600860009054906101000a900473ffffffffffffffffffffffffffffffffffffffff1673ffffffffffffffffffffffffffffffffffffffff16639c6bb581836040518263ffffffff1660e01b8152600401611bf79190615442565b6020604051808303816000875af1158015611c16573d6000803e3d6000fd5b505050506040513d601f19601f82011682018060405250810190611c3a919061548c565b9050806000803373ffffffffffffffffffffffffffffffffffffffff1673ffffffffffffffffffffffffffffffffffffffff16815260200190815260200160002060060160006101000a81548173ffffffffffffffffffffffffffffffffffffffff021916908373ffffffffffffffffffffffffffffffffffffffff160217905550600860009054906101000a900473ffffffffffffffffffffffffffffffffffffffff1673ffffffffffffffffffffffffffffffffffffffff1663ee1fe2ad82336040518363ffffffff1660e01b8152600401611d199291906154b9565b6020604051808303816000875af1158015611d38573d6000803e3d6000fd5b505050506040513d601f19601f82011682018060405250810190611d5c9190614cd9565b50611d66336139c6565b8073ffffffffffffffffffffffffffffffffffffffff163373ffffffffffffffffffffffffffffffffffffffff167f0d68fa50baa20fc97722fa0c9c61448b2e300d82ddd9dd3bf38d3c9ada0f5bc160405160405180910390a35050565b600760009054906101000a900473ffffffffffffffffffffffffffffffffffffffff1681565b600f602052816000526040600020602052806000526040600020600091509150505481565b600c818051602081018201805184825260208301602085012081835280955050505050506000915054906101000a900460ff1681565b60045481565b6000611e5f670de0b6b3a764000083610950565b9050919050565b606060128054905067ffffffffffffffff811115611e8757611e866145ba565b5b604051908082528060200260200182016040528015611eb55781602001602082028036833780820191505090505b50905060005b8151811015611f155760128181548110611ed857611ed761511b565b5b9060005260206000200154828281518110611ef657611ef561511b565b5b6020026020010181815250508080611f0d9061514a565b915050611ebb565b5090565b60008073ffffffffffffffffffffffffffffffffffffffff166000808573ffffffffffffffffffffffffffffffffffffffff1673ffffffffffffffffffffffffffffffffffffffff16815260200190815260200160002060060160009054906101000a900473ffffffffffffffffffffffffffffffffffffffff1673ffffffffffffffffffffffffffffffffffffffff1603611fea576040517f08c379a0000000000000000000000000000000000000000000000000000000008152600401611fe190614ca4565b60405180910390fd5b600860009054906101000a900473ffffffffffffffffffffffffffffffffffffffff1673ffffffffffffffffffffffffffffffffffffffff1663bd3098ce6000808673ffffffffffffffffffffffffffffffffffffffff1673ffffffffffffffffffffffffffffffffffffffff16815260200190815260200160002060060160009054906101000a900473ffffffffffffffffffffffffffffffffffffffff16846040518363ffffffff1660e01b81526004016120a89291906154b9565b602060405180830381865afa1580156120c5573d6000803e3d6000fd5b505050506040513d601f19601f820116820180604052508101906120e99190614cd9565b905092915050565b60008060008373ffffffffffffffffffffffffffffffffffffffff1673ffffffffffffffffffffffffffffffffffffffff168152602001908152602001600020600001549050919050565b6000600b60008373ffffffffffffffffffffffffffffffffffffffff1673ffffffffffffffffffffffffffffffffffffffff168152602001908152602001600020805490509050919050565b60008060008373ffffffffffffffffffffffffffffffffffffffff1673ffffffffffffffffffffffffffffffffffffffff16815260200190815260200160002060060160009054906101000a900473ffffffffffffffffffffffffffffffffffffffff169050600073ffffffffffffffffffffffffffffffffffffffff168173ffffffffffffffffffffffffffffffffffffffff160361225d576040517f08c379a000000000000000000000000000000000000000000000000000000000815260040161225490614ca4565b60405180910390fd5b601060008373ffffffffffffffffffffffffffffffffffffffff1673ffffffffffffffffffffffffffffffffffffffff16815260200190815260200160002060003373ffffffffffffffffffffffffffffffffffffffff1673ffffffffffffffffffffffffffffffffffffffff16815260200190815260200160002060009054906101000a900460ff16612326576040517f08c379a000000000000000000000000000000000000000000000000000000000815260040161231d9061552e565b60405180910390fd5b60008173ffffffffffffffffffffffffffffffffffffffff166370a08231336040518263ffffffff1660e01b81526004016123619190614ad8565b602060405180830381865afa15801561237e573d6000803e3d6000fd5b505050506040513d601f19601f820116820180604052508101906123a29190614cd9565b146123e2576040517f08c379a00000000000000000000000000000000000000000000000000000000081526004016123d99061559a565b60405180910390fd5b600860009054906101000a900473ffffffffffffffffffffffffffffffffffffffff1673ffffffffffffffffffffffffffffffffffffffff1663ee1fe2ad82336040518363ffffffff1660e01b815260040161243f9291906154b9565b6020604051808303816000875af115801561245e573d6000803e3d6000fd5b505050506040513d601f19601f820116820180604052508101906124829190614cd9565b5061248c336139c6565b3373ffffffffffffffffffffffffffffffffffffffff168173ffffffffffffffffffffffffffffffffffffffff168373ffffffffffffffffffffffffffffffffffffffff167f2d4ac4df149678edffe3ce9e1623013a9b6ada2f8dced610de761b618fe997b160405160405180910390a45050565b606060118054905067ffffffffffffffff811115612522576125216145ba565b5b6040519080825280602002602001820160405280156125505781602001602082028036833780820191505090505b50905060005b81518110156125b057601181815481106125735761257261511b565b5b90600052602060002001548282815181106125915761259061511b565b5b60200260200101818152505080806125a89061514a565b915050612556565b5090565b3373ffffffffffffffffffffffffffffffffffffffff16600a600084815260200190815260200160002060020160009054906101000a900473ffffffffffffffffffffffffffffffffffffffff1673ffffffffffffffffffffffffffffffffffffffff1614612658576040517f08c379a000000000000000000000000000000000000000000000000000000000815260040161264f90615606565b60405180910390fd5b60008060003373ffffffffffffffffffffffffffffffffffffffff1673ffffffffffffffffffffffffffffffffffffffff16815260200190815260200160002060060160009054906101000a900473ffffffffffffffffffffffffffffffffffffffff169050600073ffffffffffffffffffffffffffffffffffffffff168173ffffffffffffffffffffffffffffffffffffffff160361272d576040517f08c379a000000000000000000000000000000000000000000000000000000000815260040161272490615672565b60405180910390fd5b6000600860009054906101000a900473ffffffffffffffffffffffffffffffffffffffff1673ffffffffffffffffffffffffffffffffffffffff16633ba07043836040518263ffffffff1660e01b815260040161278a9190614ad8565b602060405180830381865afa1580156127a7573d6000803e3d6000fd5b505050506040513d601f19601f820116820180604052508101906127cb9190614cd9565b905060005b81811015612a255760008373ffffffffffffffffffffffffffffffffffffffff16636352211e836040518263ffffffff1660e01b8152600401612813919061434e565b602060405180830381865afa158015612830573d6000803e3d6000fd5b505050506040513d601f19601f82011682018060405250810190612854919061548c565b905084600860009054906101000a900473ffffffffffffffffffffffffffffffffffffffff1673ffffffffffffffffffffffffffffffffffffffff1663bd3098ce86846040518363ffffffff1660e01b81526004016128b49291906154b9565b602060405180830381865afa1580156128d1573d6000803e3d6000fd5b505050506040513d601f19601f820116820180604052508101906128f59190614cd9565b1115612a11576000600e600088815260200190815260200160002060008373ffffffffffffffffffffffffffffffffffffffff1673ffffffffffffffffffffffffffffffffffffffff1681526020019081526020016000205403612a10576001600e600088815260200190815260200160002060008373ffffffffffffffffffffffffffffffffffffffff1673ffffffffffffffffffffffffffffffffffffffff16815260200190815260200160002081905550600d60008273ffffffffffffffffffffffffffffffffffffffff1673ffffffffffffffffffffffffffffffffffffffff1681526020019081526020016000208690806001815401808255809150506001900390600052602060002001600090919091909150555b5b508080612a1d9061514a565b9150506127d0565b5050505050565b60008060008373ffffffffffffffffffffffffffffffffffffffff1673ffffffffffffffffffffffffffffffffffffffff168152602001908152602001600020600101549050919050565b600a602052806000526040600020600091509050806000015490806001018054612aa090614c27565b80601f0160208091040260200160405190810160405280929190818152602001828054612acc90614c27565b8015612b195780601f10612aee57610100808354040283529160200191612b19565b820191906000526020600020905b815481529060010190602001808311612afc57829003601f168201915b5050505050908060020160009054906101000a900473ffffffffffffffffffffffffffffffffffffffff1690806003018054612b5490614c27565b80601f0160208091040260200160405190810160405280929190818152602001828054612b8090614c27565b8015612bcd5780601f10612ba257610100808354040283529160200191612bcd565b820191906000526020600020905b815481529060010190602001808311612bb057829003601f168201915b505050505090806004018054612be290614c27565b80601f0160208091040260200160405190810160405280929190818152602001828054612c0e90614c27565b8015612c5b5780601f10612c3057610100808354040283529160200191612c5b565b820191906000526020600020905b815481529060010190602001808311612c3e57829003601f168201915b50505050509080600501549080600601549080600701549080600801549080600901549080600a015490508b565b600060016000808473ffffffffffffffffffffffffffffffffffffffff1673ffffffffffffffffffffffffffffffffffffffff168152602001908152602001600020600101546000808573ffffffffffffffffffffffffffffffffffffffff1673ffffffffffffffffffffffffffffffffffffffff16815260200190815260200160002060000154612d1b9190614b64565b612d259190614b64565b9050919050565b6000806000808573ffffffffffffffffffffffffffffffffffffffff1673ffffffffffffffffffffffffffffffffffffffff16815260200190815260200160002060060160009054906101000a900473ffffffffffffffffffffffffffffffffffffffff169050600073ffffffffffffffffffffffffffffffffffffffff168173ffffffffffffffffffffffffffffffffffffffff1614158015612e4a575060008173ffffffffffffffffffffffffffffffffffffffff166370a08231856040518263ffffffff1660e01b8152600401612e069190614ad8565b602060405180830381865afa158015612e23573d6000803e3d6000fd5b505050506040513d601f19601f82011682018060405250810190612e479190614cd9565b14155b91505092915050565b600960009054906101000a900473ffffffffffffffffffffffffffffffffffffffff1681565b612eb86040518060400160405280600b81526020017f626c6f636b6e756d20256400000000000000000000000000000000000000000081525043613d46565b6000601560003373ffffffffffffffffffffffffffffffffffffffff1673ffffffffffffffffffffffffffffffffffffffff168152602001908152602001600020541480612f51575043601560003373ffffffffffffffffffffffffffffffffffffffff1673ffffffffffffffffffffffffffffffffffffffff168152602001908152602001600020546103e8612f4f9190614b64565b105b612f90576040517f08c379a0000000000000000000000000000000000000000000000000000000008152600401612f87906156de565b60405180910390fd5b60008060008473ffffffffffffffffffffffffffffffffffffffff1673ffffffffffffffffffffffffffffffffffffffff16815260200190815260200160002060060160009054906101000a900473ffffffffffffffffffffffffffffffffffffffff169050600073ffffffffffffffffffffffffffffffffffffffff168173ffffffffffffffffffffffffffffffffffffffff16141580156130ad575060008173ffffffffffffffffffffffffffffffffffffffff166370a08231336040518263ffffffff1660e01b81526004016130699190614ad8565b602060405180830381865afa158015613086573d6000803e3d6000fd5b505050506040513d601f19601f820116820180604052508101906130aa9190614cd9565b14155b6130ec576040517f08c379a00000000000000000000000000000000000000000000000000000000081526004016130e39061574a565b60405180910390fd5b670de0b6b3a7640000821015613137576040517f08c379a000000000000000000000000000000000000000000000000000000000815260040161312e906157b6565b60405180910390fd5b43601560003373ffffffffffffffffffffffffffffffffffffffff1673ffffffffffffffffffffffffffffffffffffffff16815260200190815260200160002081905550600660009054906101000a900473ffffffffffffffffffffffffffffffffffffffff1673ffffffffffffffffffffffffffffffffffffffff166323b872dd3385856040518463ffffffff1660e01b81526004016131da93929190614dc5565b6020604051808303816000875af11580156131f9573d6000803e3d6000fd5b505050506040513d601f19601f8201168201806040525081019061321d9190614e28565b50600860009054906101000a900473ffffffffffffffffffffffffffffffffffffffff1673ffffffffffffffffffffffffffffffffffffffff1663bfaf80658233670de0b6b3a7640000866132729190614bc7565b6040518463ffffffff1660e01b815260040161329093929190614dc5565b600060405180830381600087803b1580156132aa57600080fd5b505af11580156132be573d6000803e3d6000fd5b505050507f386bc05a2408454571efe4cbeeabd68940d5a301c55f31319f2b6aef331fedfc8333846040516132f593929190614dc5565b60405180910390a1505050565b60035481565b33816000811161334d576040517f08c379a0000000000000000000000000000000000000000000000000000000008152600401613344906151de565b60405180910390fd5b61335682612c89565b811115613398576040517f08c379a000000000000000000000000000000000000000000000000000000000815260040161338f9061524a565b60405180910390fd5b6000600a600086815260200190815260200160002060020160009054906101000a900473ffffffffffffffffffffffffffffffffffffffff1690506000600e600087815260200190815260200160002060003373ffffffffffffffffffffffffffffffffffffffff1673ffffffffffffffffffffffffffffffffffffffff1681526020019081526020016000205414613466576040517f08c379a000000000000000000000000000000000000000000000000000000000815260040161345d90615822565b60405180910390fd5b6000613488600a60008881526020019081526020016000206005015486610950565b9050600660009054906101000a900473ffffffffffffffffffffffffffffffffffffffff1673ffffffffffffffffffffffffffffffffffffffff166323b872dd33600760009054906101000a900473ffffffffffffffffffffffffffffffffffffffff1673ffffffffffffffffffffffffffffffffffffffff16636352211e8a6040518263ffffffff1660e01b8152600401613524919061434e565b602060405180830381865afa158015613541573d6000803e3d6000fd5b505050506040513d601f19601f82011682018060405250810190613565919061548c565b846040518463ffffffff1660e01b815260040161358493929190614dc5565b6020604051808303816000875af11580156135a3573d6000803e3d6000fd5b505050506040513d601f19601f820116820180604052508101906135c79190614e28565b5084600e600088815260200190815260200160002060003373ffffffffffffffffffffffffffffffffffffffff1673ffffffffffffffffffffffffffffffffffffffff16815260200190815260200160002081905550600d60003373ffffffffffffffffffffffffffffffffffffffff1673ffffffffffffffffffffffffffffffffffffffff168152602001908152602001600020869080600181540180825580915050600190039060005260206000200160009091909190915055846000803373ffffffffffffffffffffffffffffffffffffffff1673ffffffffffffffffffffffffffffffffffffffff16815260200190815260200160002060000160008282546136d49190614b64565b92505081905550806000803373ffffffffffffffffffffffffffffffffffffffff1673ffffffffffffffffffffffffffffffffffffffff168152602001908152602001600020600201600082825461372c9190614b64565b92505081905550846000808473ffffffffffffffffffffffffffffffffffffffff1673ffffffffffffffffffffffffffffffffffffffff16815260200190815260200160002060040160008282546137849190614b64565b92505081905550806000808473ffffffffffffffffffffffffffffffffffffffff1673ffffffffffffffffffffffffffffffffffffffff16815260200190815260200160002060030160008282546137dc9190614b64565b9250508190555084600460008282546137f59190614b64565b92505081905550806005600082825461380e9190614b64565b92505081905550601060008373ffffffffffffffffffffffffffffffffffffffff1673ffffffffffffffffffffffffffffffffffffffff16815260200190815260200160002060003373ffffffffffffffffffffffffffffffffffffffff1673ffffffffffffffffffffffffffffffffffffffff16815260200190815260200160002060009054906101000a900460ff16613939576001601060008473ffffffffffffffffffffffffffffffffffffffff1673ffffffffffffffffffffffffffffffffffffffff16815260200190815260200160002060003373ffffffffffffffffffffffffffffffffffffffff1673ffffffffffffffffffffffffffffffffffffffff16815260200190815260200160002060006101000a81548160ff0219169083151502179055505b613944868683613de2565b61394f823387613b8c565b613958336139c6565b853373ffffffffffffffffffffffffffffffffffffffff167f2b07b9c0bc5f1fa9f7d65d82a7d198493b83030602e457c6a8c2d4efb15afb47600a60008a8152602001908152602001600020600101886040516139b692919061535a565b60405180910390a3505050505050565b600260008273ffffffffffffffffffffffffffffffffffffffff1673ffffffffffffffffffffffffffffffffffffffff16815260200190815260200160002060009054906101000a900460ff16613a89576001600260008373ffffffffffffffffffffffffffffffffffffffff1673ffffffffffffffffffffffffffffffffffffffff16815260200190815260200160002060006101000a81548160ff0219169083151502179055506001806000828254613a819190614b64565b925050819055505b50565b81600a60008581526020019081526020016000206009016000828254613ab29190614b64565b9250508190555080600a6000858152602001908152602001600020600a016000828254613adf9190614b64565b92505081905550613aef83613ee2565b613b8757600a6012805490501015613b5b5760128390806001815401808255809150506001900390600052602060002001600090919091909150557ffc71ef5ab0e6681c5141e684224d7187ef650e1e09cf736d3313a8bc7d4020ca60405160405180910390a1613b86565b601454600a6000858152602001908152602001600020600901541115613b8557613b8483613f47565b5b5b5b505050565b60008060008573ffffffffffffffffffffffffffffffffffffffff1673ffffffffffffffffffffffffffffffffffffffff16815260200190815260200160002060060160009054906101000a900473ffffffffffffffffffffffffffffffffffffffff169050600073ffffffffffffffffffffffffffffffffffffffff168173ffffffffffffffffffffffffffffffffffffffff1614158015613ca9575060008173ffffffffffffffffffffffffffffffffffffffff166370a08231856040518263ffffffff1660e01b8152600401613c659190614ad8565b602060405180830381865afa158015613c82573d6000803e3d6000fd5b505050506040513d601f19601f82011682018060405250810190613ca69190614cd9565b14155b15613d4057600860009054906101000a900473ffffffffffffffffffffffffffffffffffffffff1673ffffffffffffffffffffffffffffffffffffffff1663bfaf80658285856040518463ffffffff1660e01b8152600401613d0d93929190614dc5565b600060405180830381600087803b158015613d2757600080fd5b505af1158015613d3b573d6000803e3d6000fd5b505050505b50505050565b613dde8282604051602401613d5c929190615842565b6040516020818303038152906040527fb60e72cc000000000000000000000000000000000000000000000000000000007bffffffffffffffffffffffffffffffffffffffffffffffffffffffff19166020820180517bffffffffffffffffffffffffffffffffffffffffffffffffffffffff8381831617835250505050614088565b5050565b81600a60008581526020019081526020016000206007016000828254613e089190614b64565b9250508190555080600a60008581526020019081526020016000206008016000828254613e359190614b64565b92505081905550613e45836140b1565b613edd57600a6011805490501015613eb15760118390806001815401808255809150506001900390600052602060002001600090919091909150557ffc71ef5ab0e6681c5141e684224d7187ef650e1e09cf736d3313a8bc7d4020ca60405160405180910390a1613edc565b601354600a6000858152602001908152602001600020600701541115613edb57613eda83614116565b5b5b5b505050565b600080601280549050905060005b81811015613f3b578360128281548110613f0d57613f0c61511b565b5b906000526020600020015403613f2857600192505050613f42565b8080613f339061514a565b915050613ef0565b5060009150505b919050565b600060128054905090506000807fffffffffffffffffffffffffffffffffffffffffffffffffffffffffffffffff905060005b8381101561400c5781600a600060128481548110613f9b57613f9a61511b565b5b90600052602060002001548152602001908152602001600020600901541015613ff957809250600a600060128381548110613fd957613fd861511b565b5b906000526020600020015481526020019081526020016000206009015491505b80806140049061514a565b915050613f7a565b50600a600085815260200190815260200160002060090154811015614082578060148190555083601283815481106140475761404661511b565b5b90600052602060002001819055507ffc71ef5ab0e6681c5141e684224d7187ef650e1e09cf736d3313a8bc7d4020ca60405160405180910390a15b50505050565b60008151905060006a636f6e736f6c652e6c6f679050602083016000808483855afa5050505050565b600080601180549050905060005b8181101561410a5783601182815481106140dc576140db61511b565b5b9060005260206000200154036140f757600192505050614111565b80806141029061514a565b9150506140bf565b5060009150505b919050565b600060118054905090506000807fffffffffffffffffffffffffffffffffffffffffffffffffffffffffffffffff905060005b838110156141db5781600a60006011848154811061416a5761416961511b565b5b906000526020600020015481526020019081526020016000206007015410156141c857809250600a6000601183815481106141a8576141a761511b565b5b906000526020600020015481526020019081526020016000206007015491505b80806141d39061514a565b915050614149565b50600a600085815260200190815260200160002060070154811015614251578060138190555083601183815481106142165761421561511b565b5b90600052602060002001819055507ffc71ef5ab0e6681c5141e684224d7187ef650e1e09cf736d3313a8bc7d4020ca60405160405180910390a15b50505050565b6000604051905090565b600080fd5b600080fd5b6000819050919050565b61427e8161426b565b811461428957600080fd5b50565b60008135905061429b81614275565b92915050565b600073ffffffffffffffffffffffffffffffffffffffff82169050919050565b60006142cc826142a1565b9050919050565b6142dc816142c1565b81146142e757600080fd5b50565b6000813590506142f9816142d3565b92915050565b6000806040838503121561431657614315614261565b5b60006143248582860161428c565b9250506020614335858286016142ea565b9150509250929050565b6143488161426b565b82525050565b6000602082019050614363600083018461433f565b92915050565b60006020828403121561437f5761437e614261565b5b600061438d848285016142ea565b91505092915050565b600080604083850312156143ad576143ac614261565b5b60006143bb8582860161428c565b92505060206143cc8582860161428c565b9150509250929050565b600080604083850312156143ed576143ec614261565b5b60006143fb858286016142ea565b925050602061440c8582860161428c565b9150509250929050565b61441f816142c1565b82525050565b600081519050919050565b600082825260208201905092915050565b60005b8381101561445f578082015181840152602081019050614444565b60008484015250505050565b6000601f19601f8301169050919050565b600061448782614425565b6144918185614430565b93506144a1818560208601614441565b6144aa8161446b565b840191505092915050565b6000610100820190506144cb600083018b61433f565b6144d8602083018a61433f565b6144e5604083018961433f565b6144f2606083018861433f565b6144ff608083018761433f565b61450c60a083018661433f565b61451960c0830185614416565b81810360e083015261452b818461447c565b90509998505050505050505050565b6000806040838503121561455157614550614261565b5b600061455f858286016142ea565b9250506020614570858286016142ea565b9150509250929050565b60008115159050919050565b61458f8161457a565b82525050565b60006020820190506145aa6000830184614586565b92915050565b600080fd5b600080fd5b7f4e487b7100000000000000000000000000000000000000000000000000000000600052604160045260246000fd5b6145f28261446b565b810181811067ffffffffffffffff82111715614611576146106145ba565b5b80604052505050565b6000614624614257565b905061463082826145e9565b919050565b600067ffffffffffffffff8211156146505761464f6145ba565b5b6146598261446b565b9050602081019050919050565b82818337600083830152505050565b600061468861468384614635565b61461a565b9050828152602081018484840111156146a4576146a36145b5565b5b6146af848285614666565b509392505050565b600082601f8301126146cc576146cb6145b0565b5b81356146dc848260208601614675565b91505092915050565b600080600080600060a0868803121561470157614700614261565b5b600086013567ffffffffffffffff81111561471f5761471e614266565b5b61472b888289016146b7565b955050602086013567ffffffffffffffff81111561474c5761474b614266565b5b614758888289016146b7565b945050604086013567ffffffffffffffff81111561477957614778614266565b5b614785888289016146b7565b93505060606147968882890161428c565b925050608086013567ffffffffffffffff8111156147b7576147b6614266565b5b6147c3888289016146b7565b9150509295509295909350565b6000819050919050565b60006147f56147f06147eb846142a1565b6147d0565b6142a1565b9050919050565b6000614807826147da565b9050919050565b6000614819826147fc565b9050919050565b6148298161480e565b82525050565b60006020820190506148446000830184614820565b92915050565b600081519050919050565b600082825260208201905092915050565b6000819050602082019050919050565b61487f8161426b565b82525050565b60006148918383614876565b60208301905092915050565b6000602082019050919050565b60006148b58261484a565b6148bf8185614855565b93506148ca83614866565b8060005b838110156148fb5781516148e28882614885565b97506148ed8361489d565b9250506001810190506148ce565b5085935050505092915050565b6000602082019050818103600083015261492281846148aa565b905092915050565b6000602082840312156149405761493f614261565b5b600082013567ffffffffffffffff81111561495e5761495d614266565b5b61496a848285016146b7565b91505092915050565b600061497e826147fc565b9050919050565b61498e81614973565b82525050565b60006020820190506149a96000830184614985565b92915050565b60006149ba826147fc565b9050919050565b6149ca816149af565b82525050565b60006020820190506149e560008301846149c1565b92915050565b600060208284031215614a0157614a00614261565b5b6000614a0f8482850161428c565b91505092915050565b600061016082019050614a2e600083018e61433f565b8181036020830152614a40818d61447c565b9050614a4f604083018c614416565b8181036060830152614a61818b61447c565b90508181036080830152614a75818a61447c565b9050614a8460a083018961433f565b614a9160c083018861433f565b614a9e60e083018761433f565b614aac61010083018661433f565b614aba61012083018561433f565b614ac861014083018461433f565b9c9b505050505050505050505050565b6000602082019050614aed6000830184614416565b92915050565b7f4e487b7100000000000000000000000000000000000000000000000000000000600052601160045260246000fd5b6000614b2d8261426b565b9150614b388361426b565b9250828202614b468161426b565b91508282048414831517614b5d57614b5c614af3565b5b5092915050565b6000614b6f8261426b565b9150614b7a8361426b565b9250828201905080821115614b9257614b91614af3565b5b92915050565b7f4e487b7100000000000000000000000000000000000000000000000000000000600052601260045260246000fd5b6000614bd28261426b565b9150614bdd8361426b565b925082614bed57614bec614b98565b5b828204905092915050565b7f4e487b7100000000000000000000000000000000000000000000000000000000600052602260045260246000fd5b60006002820490506001821680614c3f57607f821691505b602082108103614c5257614c51614bf8565b5b50919050565b7f6e6f2066616e636c756200000000000000000000000000000000000000000000600082015250565b6000614c8e600a83614430565b9150614c9982614c58565b602082019050919050565b60006020820190508181036000830152614cbd81614c81565b9050919050565b600081519050614cd381614275565b92915050565b600060208284031215614cef57614cee614261565b5b6000614cfd84828501614cc4565b91505092915050565b600081905092915050565b6000614d1c82614425565b614d268185614d06565b9350614d36818560208601614441565b80840191505092915050565b6000614d4e8284614d11565b915081905092915050565b7f616c72656164792075706c6f6164656400000000000000000000000000000000600082015250565b6000614d8f601083614430565b9150614d9a82614d59565b602082019050919050565b60006020820190508181036000830152614dbe81614d82565b9050919050565b6000606082019050614dda6000830186614416565b614de76020830185614416565b614df4604083018461433f565b949350505050565b614e058161457a565b8114614e1057600080fd5b50565b600081519050614e2281614dfc565b92915050565b600060208284031215614e3e57614e3d614261565b5b6000614e4c84828501614e13565b91505092915050565b6000604082019050614e6a6000830185614416565b8181036020830152614e7c818461447c565b90509392505050565b60008190508160005260206000209050919050565b60006020601f8301049050919050565b600082821b905092915050565b600060088302614ee77fffffffffffffffffffffffffffffffffffffffffffffffffffffffffffffffff82614eaa565b614ef18683614eaa565b95508019841693508086168417925050509392505050565b6000614f24614f1f614f1a8461426b565b6147d0565b61426b565b9050919050565b6000819050919050565b614f3e83614f09565b614f52614f4a82614f2b565b848454614eb7565b825550505050565b600090565b614f67614f5a565b614f72818484614f35565b505050565b5b81811015614f9657614f8b600082614f5f565b600181019050614f78565b5050565b601f821115614fdb57614fac81614e85565b614fb584614e9a565b81016020851015614fc4578190505b614fd8614fd085614e9a565b830182614f77565b50505b505050565b600082821c905092915050565b6000614ffe60001984600802614fe0565b1980831691505092915050565b60006150178383614fed565b9150826002028217905092915050565b61503082614425565b67ffffffffffffffff811115615049576150486145ba565b5b6150538254614c27565b61505e828285614f9a565b600060209050601f831160018114615091576000841561507f578287015190505b615089858261500b565b8655506150f1565b601f19841661509f86614e85565b60005b828110156150c7578489015182556001820191506020850194506020810190506150a2565b868310156150e457848901516150e0601f891682614fed565b8355505b6001600288020188555050505b505050505050565b60006020820190508181036000830152615113818461447c565b905092915050565b7f4e487b7100000000000000000000000000000000000000000000000000000000600052603260045260246000fd5b60006151558261426b565b91507fffffffffffffffffffffffffffffffffffffffffffffffffffffffffffffffff820361518757615186614af3565b5b600182019050919050565b7f696e76616c696420507572636861736520416d6f756e74000000000000000000600082015250565b60006151c8601783614430565b91506151d382615192565b602082019050919050565b600060208201905081810360008301526151f7816151bb565b9050919050565b7f616d6f756e742065786365656473206c696d6974000000000000000000000000600082015250565b6000615234601483614430565b915061523f826151fe565b602082019050919050565b6000602082019050818103600083015261526381615227565b9050919050565b7f616c726561647920766f74656400000000000000000000000000000000000000600082015250565b60006152a0600d83614430565b91506152ab8261526a565b602082019050919050565b600060208201905081810360008301526152cf81615293565b9050919050565b600081546152e381614c27565b6152ed8186614430565b94506001821660008114615308576001811461531e57615351565b60ff198316865281151560200286019350615351565b61532785614e85565b60005b838110156153495781548189015260018201915060208101905061532a565b808801955050505b50505092915050565b6000604082019050818103600083015261537481856152d6565b9050615383602083018461433f565b9392505050565b7f616c726561647920637265617465640000000000000000000000000000000000600082015250565b60006153c0600f83614430565b91506153cb8261538a565b602082019050919050565b600060208201905081810360008301526153ef816153b3565b9050919050565b7f4654000000000000000000000000000000000000000000000000000000000000600082015250565b600061542c600283614430565b9150615437826153f6565b602082019050919050565b6000604082019050818103600083015261545c818461447c565b9050818103602083015261546f8161541f565b905092915050565b600081519050615486816142d3565b92915050565b6000602082840312156154a2576154a1614261565b5b60006154b084828501615477565b91505092915050565b60006040820190506154ce6000830185614416565b6154db6020830184614416565b9392505050565b7f6e6f7420656c696769626c650000000000000000000000000000000000000000600082015250565b6000615518600c83614430565b9150615523826154e2565b602082019050919050565b600060208201905081810360008301526155478161550b565b9050919050565b7f616c72656164792066616e000000000000000000000000000000000000000000600082015250565b6000615584600b83614430565b915061558f8261554e565b602082019050919050565b600060208201905081810360008301526155b381615577565b9050919050565b7f617574686f722072657175697265640000000000000000000000000000000000600082015250565b60006155f0600f83614430565b91506155fb826155ba565b602082019050919050565b6000602082019050818103600083015261561f816155e3565b9050919050565b7f6e6f2066616e20636c7562000000000000000000000000000000000000000000600082015250565b600061565c600b83614430565b915061566782615626565b602082019050919050565b6000602082019050818103600083015261568b8161564f565b9050919050565b7f646f6e6174696f6e20667265657a696e672074696d6500000000000000000000600082015250565b60006156c8601683614430565b91506156d382615692565b602082019050919050565b600060208201905081810360008301526156f7816156bb565b9050919050565b7f66616e206e656564656400000000000000000000000000000000000000000000600082015250565b6000615734600a83614430565b915061573f826156fe565b602082019050919050565b6000602082019050818103600083015261576381615727565b9050919050565b7f756e7175616c696669656420616d6f756e740000000000000000000000000000600082015250565b60006157a0601283614430565b91506157ab8261576a565b602082019050919050565b600060208201905081810360008301526157cf81615793565b9050919050565b7f616c7265616479206f776e656400000000000000000000000000000000000000600082015250565b600061580c600d83614430565b9150615817826157d6565b602082019050919050565b6000602082019050818103600083015261583b816157ff565b9050919050565b6000604082019050818103600083015261585c818561447c565b905061586b602083018461433f565b939250505056fea26469706673582212200ed0dfa2ae618e1184d2792ad58f704a8235cb4f21c6d3d79f85cf59bc81700264736f6c63430008120033",
  "linkReferences": {},
  "deployedLinkReferences": {}
}