{
  "_format": "hh-sol-artifact-1",
  "contractName": "MusicVault",
  "sourceName": "contracts/MusicVault.sol",
  "abi": [
    {
      "inputs": [
        {
          "internalType": "address",
          "name": "_vaultToken",
          "type": "address"
        },
        {
          "internalType": "address",
          "name": "_vaultNFT",
          "type": "address"
        },
        {
          "internalType": "address",
          "name": "_factory",
          "type": "address"
        }
      ],
      "stateMutability": "nonpayable",
      "type": "constructor"
    },
    {
      "anonymous": false,
      "inputs": [
        {
          "indexed": false,
          "internalType": "address",
          "name": "author",
          "type": "address"
        },
        {
          "indexed": false,
          "internalType": "uint256",
          "name": "musicId",
          "type": "uint256"
        }
      ],
      "name": "airdrop",
      "type": "event"
    },
    {
      "anonymous": false,
      "inputs": [
        {
          "indexed": false,
          "internalType": "address",
          "name": "author",
          "type": "address"
        },
        {
          "indexed": false,
          "internalType": "address",
          "name": "fan",
          "type": "address"
        },
        {
          "indexed": false,
          "internalType": "uint256",
          "name": "amount",
          "type": "uint256"
        }
      ],
      "name": "donate",
      "type": "event"
    },
    {
      "anonymous": false,
      "inputs": [
        {
          "indexed": true,
          "internalType": "address",
          "name": "musician",
          "type": "address"
        },
        {
          "indexed": true,
          "internalType": "address",
          "name": "fanNFT",
          "type": "address"
        }
      ],
      "name": "fanClubCreate",
      "type": "event"
    },
    {
      "anonymous": false,
      "inputs": [
        {
          "indexed": true,
          "internalType": "address",
          "name": "musician",
          "type": "address"
        },
        {
          "indexed": true,
          "internalType": "address",
          "name": "fanNFT",
          "type": "address"
        },
        {
          "indexed": true,
          "internalType": "address",
          "name": "fan",
          "type": "address"
        }
      ],
      "name": "fanClubJoin",
      "type": "event"
    },
    {
      "anonymous": false,
      "inputs": [],
      "name": "leadBoardRefresh",
      "type": "event"
    },
    {
      "anonymous": false,
      "inputs": [
        {
          "indexed": true,
          "internalType": "address",
          "name": "buyer",
          "type": "address"
        },
        {
          "indexed": true,
          "internalType": "uint256",
          "name": "musicId",
          "type": "uint256"
        },
        {
          "indexed": false,
          "internalType": "string",
          "name": "musicName",
          "type": "string"
        },
        {
          "indexed": false,
          "internalType": "uint256",
          "name": "amount",
          "type": "uint256"
        }
      ],
      "name": "musicPurchase",
      "type": "event"
    },
    {
      "anonymous": false,
      "inputs": [
        {
          "indexed": true,
          "internalType": "address",
          "name": "musician",
          "type": "address"
        },
        {
          "indexed": true,
          "internalType": "uint256",
          "name": "musicId",
          "type": "uint256"
        },
        {
          "indexed": false,
          "internalType": "string",
          "name": "musicName",
          "type": "string"
        }
      ],
      "name": "musicUpload",
      "type": "event"
    },
    {
      "anonymous": false,
      "inputs": [
        {
          "indexed": true,
          "internalType": "address",
          "name": "buyer",
          "type": "address"
        },
        {
          "indexed": true,
          "internalType": "uint256",
          "name": "musicId",
          "type": "uint256"
        },
        {
          "indexed": false,
          "internalType": "string",
          "name": "musicName",
          "type": "string"
        },
        {
          "indexed": false,
          "internalType": "uint256",
          "name": "amount",
          "type": "uint256"
        }
      ],
      "name": "musicVote",
      "type": "event"
    },
    {
      "inputs": [
        {
          "internalType": "address",
          "name": "",
          "type": "address"
        }
      ],
      "name": "address2IsUserMapping",
      "outputs": [
        {
          "internalType": "bool",
          "name": "",
          "type": "bool"
        }
      ],
      "stateMutability": "view",
      "type": "function"
    },
    {
      "inputs": [
        {
          "internalType": "address",
          "name": "",
          "type": "address"
        }
      ],
      "name": "address2UserMapping",
      "outputs": [
        {
          "internalType": "uint256",
          "name": "purchase",
          "type": "uint256"
        },
        {
          "internalType": "uint256",
          "name": "vote",
          "type": "uint256"
        },
        {
          "internalType": "address",
          "name": "fanNFT",
          "type": "address"
        }
      ],
      "stateMutability": "view",
      "type": "function"
    },
    {
      "inputs": [
        {
          "internalType": "uint256",
          "name": "musicId",
          "type": "uint256"
        },
        {
          "internalType": "uint256",
          "name": "contributeEntry",
          "type": "uint256"
        }
      ],
      "name": "airdropMusic",
      "outputs": [],
      "stateMutability": "nonpayable",
      "type": "function"
    },
    {
      "inputs": [
        {
          "internalType": "address",
          "name": "",
          "type": "address"
        },
        {
          "internalType": "address",
          "name": "",
          "type": "address"
        }
      ],
      "name": "author2userEligibleMapping",
      "outputs": [
        {
          "internalType": "bool",
          "name": "",
          "type": "bool"
        }
      ],
      "stateMutability": "view",
      "type": "function"
    },
    {
      "inputs": [
        {
          "internalType": "address",
          "name": "",
          "type": "address"
        },
        {
          "internalType": "uint256",
          "name": "",
          "type": "uint256"
        }
      ],
      "name": "buyer2MusicIdMapping",
      "outputs": [
        {
          "internalType": "uint256",
          "name": "",
          "type": "uint256"
        }
      ],
      "stateMutability": "view",
      "type": "function"
    },
    {
      "inputs": [
        {
          "internalType": "uint256",
          "name": "musicId",
          "type": "uint256"
        },
        {
          "internalType": "uint256",
          "name": "amount",
          "type": "uint256"
        }
      ],
      "name": "calculatePurchaseFee",
      "outputs": [
        {
          "internalType": "uint256",
          "name": "",
          "type": "uint256"
        }
      ],
      "stateMutability": "view",
      "type": "function"
    },
    {
      "inputs": [
        {
          "internalType": "uint256",
          "name": "baseFee",
          "type": "uint256"
        },
        {
          "internalType": "uint256",
          "name": "amount",
          "type": "uint256"
        }
      ],
      "name": "calculateSquaredFee",
      "outputs": [
        {
          "internalType": "uint256",
          "name": "",
          "type": "uint256"
        }
      ],
      "stateMutability": "pure",
      "type": "function"
    },
    {
      "inputs": [
        {
          "internalType": "uint256",
          "name": "amount",
          "type": "uint256"
        }
      ],
      "name": "calculateVoteFee",
      "outputs": [
        {
          "internalType": "uint256",
          "name": "",
          "type": "uint256"
        }
      ],
      "stateMutability": "view",
      "type": "function"
    },
    {
      "inputs": [
        {
          "internalType": "uint256",
          "name": "",
          "type": "uint256"
        }
      ],
      "name": "contentUploadedMapping",
      "outputs": [
        {
          "internalType": "bool",
          "name": "",
          "type": "bool"
        }
      ],
      "stateMutability": "view",
      "type": "function"
    },
    {
      "inputs": [],
      "name": "createFanNFT",
      "outputs": [],
      "stateMutability": "nonpayable",
      "type": "function"
    },
    {
      "inputs": [
        {
          "internalType": "address",
          "name": "author",
          "type": "address"
        },
        {
          "internalType": "uint256",
          "name": "amount",
          "type": "uint256"
        }
      ],
      "name": "donateToAuthor",
      "outputs": [],
      "stateMutability": "nonpayable",
      "type": "function"
    },
    {
      "inputs": [],
      "name": "fanNFTFactory",
      "outputs": [
        {
          "internalType": "contract IFanNFTFactory",
          "name": "",
          "type": "address"
        }
      ],
      "stateMutability": "view",
      "type": "function"
    },
    {
      "inputs": [
        {
          "internalType": "address",
          "name": "author",
          "type": "address"
        }
      ],
      "name": "followMusician",
      "outputs": [],
      "stateMutability": "nonpayable",
      "type": "function"
    },
    {
      "inputs": [
        {
          "internalType": "address",
          "name": "_user",
          "type": "address"
        }
      ],
      "name": "getBuyerMusicIdList",
      "outputs": [
        {
          "internalType": "uint256[]",
          "name": "",
          "type": "uint256[]"
        }
      ],
      "stateMutability": "view",
      "type": "function"
    },
    {
      "inputs": [
        {
          "internalType": "address",
          "name": "_user",
          "type": "address"
        }
      ],
      "name": "getBuyerMusicNumber",
      "outputs": [
        {
          "internalType": "uint256",
          "name": "",
          "type": "uint256"
        }
      ],
      "stateMutability": "view",
      "type": "function"
    },
    {
      "inputs": [
        {
          "internalType": "address",
          "name": "_author",
          "type": "address"
        },
        {
          "internalType": "address",
          "name": "_fan",
          "type": "address"
        }
      ],
      "name": "getFanContribution",
      "outputs": [
        {
          "internalType": "uint256",
          "name": "",
          "type": "uint256"
        }
      ],
      "stateMutability": "view",
      "type": "function"
    },
    {
      "inputs": [
        {
          "internalType": "address",
          "name": "_user",
          "type": "address"
        }
      ],
      "name": "getFanNumber",
      "outputs": [
        {
          "internalType": "uint256",
          "name": "",
          "type": "uint256"
        }
      ],
      "stateMutability": "view",
      "type": "function"
    },
    {
      "inputs": [],
      "name": "getMusicNumber",
      "outputs": [
        {
          "internalType": "uint256",
          "name": "",
          "type": "uint256"
        }
      ],
      "stateMutability": "view",
      "type": "function"
    },
    {
      "inputs": [
        {
          "internalType": "address",
          "name": "_user",
          "type": "address"
        }
      ],
      "name": "getOwneMusicIdList",
      "outputs": [
        {
          "internalType": "uint256[]",
          "name": "",
          "type": "uint256[]"
        }
      ],
      "stateMutability": "view",
      "type": "function"
    },
    {
      "inputs": [
        {
          "internalType": "address",
          "name": "_user",
          "type": "address"
        }
      ],
      "name": "getOwnerMusicNumber",
      "outputs": [
        {
          "internalType": "uint256",
          "name": "",
          "type": "uint256"
        }
      ],
      "stateMutability": "view",
      "type": "function"
    },
    {
      "inputs": [],
      "name": "getPurchaseLeaderboard",
      "outputs": [
        {
          "internalType": "uint256[]",
          "name": "list",
          "type": "uint256[]"
        }
      ],
      "stateMutability": "view",
      "type": "function"
    },
    {
      "inputs": [
        {
          "internalType": "address",
          "name": "user",
          "type": "address"
        }
      ],
      "name": "getUserCredit",
      "outputs": [
        {
          "internalType": "uint256",
          "name": "",
          "type": "uint256"
        }
      ],
      "stateMutability": "view",
      "type": "function"
    },
    {
      "inputs": [
        {
          "internalType": "address",
          "name": "user",
          "type": "address"
        }
      ],
      "name": "getUserPurchase",
      "outputs": [
        {
          "internalType": "uint256",
          "name": "",
          "type": "uint256"
        }
      ],
      "stateMutability": "view",
      "type": "function"
    },
    {
      "inputs": [
        {
          "internalType": "address",
          "name": "user",
          "type": "address"
        }
      ],
      "name": "getUserVote",
      "outputs": [
        {
          "internalType": "uint256",
          "name": "",
          "type": "uint256"
        }
      ],
      "stateMutability": "view",
      "type": "function"
    },
    {
      "inputs": [],
      "name": "getVoteLeaderboard",
      "outputs": [
        {
          "internalType": "uint256[]",
          "name": "list",
          "type": "uint256[]"
        }
      ],
      "stateMutability": "view",
      "type": "function"
    },
    {
      "inputs": [
        {
          "internalType": "uint256",
          "name": "",
          "type": "uint256"
        },
        {
          "internalType": "address",
          "name": "",
          "type": "address"
        }
      ],
      "name": "musicId2BuyerAmountMapping",
      "outputs": [
        {
          "internalType": "uint256",
          "name": "",
          "type": "uint256"
        }
      ],
      "stateMutability": "view",
      "type": "function"
    },
    {
      "inputs": [
        {
          "internalType": "uint256",
          "name": "",
          "type": "uint256"
        },
        {
          "internalType": "address",
          "name": "",
          "type": "address"
        }
      ],
      "name": "musicId2BuyerVoteAmountMapping",
      "outputs": [
        {
          "internalType": "uint256",
          "name": "",
          "type": "uint256"
        }
      ],
      "stateMutability": "view",
      "type": "function"
    },
    {
      "inputs": [
        {
          "internalType": "uint256",
          "name": "",
          "type": "uint256"
        }
      ],
      "name": "musicId2MusicMapping",
      "outputs": [
        {
          "internalType": "uint256",
          "name": "musicId",
          "type": "uint256"
        },
        {
          "internalType": "string",
          "name": "musicName",
          "type": "string"
        },
        {
          "internalType": "address",
          "name": "author",
          "type": "address"
        },
        {
          "internalType": "string",
          "name": "musicDescription",
          "type": "string"
        },
        {
          "internalType": "uint256",
          "name": "contentHash",
          "type": "uint256"
        },
        {
          "internalType": "uint256",
          "name": "purchaseFee",
          "type": "uint256"
        },
        {
          "internalType": "uint256",
          "name": "uploadTimestamp",
          "type": "uint256"
        }
      ],
      "stateMutability": "view",
      "type": "function"
    },
    {
      "inputs": [
        {
          "internalType": "uint256",
          "name": "",
          "type": "uint256"
        }
      ],
      "name": "musicId2MusicSellInfoMapping",
      "outputs": [
        {
          "internalType": "uint256",
          "name": "purchaseAmount",
          "type": "uint256"
        },
        {
          "internalType": "uint256",
          "name": "purchaseRevenue",
          "type": "uint256"
        },
        {
          "internalType": "uint256",
          "name": "voteAmount",
          "type": "uint256"
        },
        {
          "internalType": "uint256",
          "name": "voteRevenue",
          "type": "uint256"
        }
      ],
      "stateMutability": "view",
      "type": "function"
    },
    {
      "inputs": [
        {
          "internalType": "address",
          "name": "",
          "type": "address"
        },
        {
          "internalType": "uint256",
          "name": "",
          "type": "uint256"
        }
      ],
      "name": "owner2MusicIdMapping",
      "outputs": [
        {
          "internalType": "uint256",
          "name": "",
          "type": "uint256"
        }
      ],
      "stateMutability": "view",
      "type": "function"
    },
    {
      "inputs": [
        {
          "internalType": "uint256",
          "name": "musicId",
          "type": "uint256"
        },
        {
          "internalType": "uint256",
          "name": "amount",
          "type": "uint256"
        }
      ],
      "name": "purchaseMusic",
      "outputs": [],
      "stateMutability": "nonpayable",
      "type": "function"
    },
    {
      "inputs": [],
      "name": "purchaseNumer",
      "outputs": [
        {
          "internalType": "uint256",
          "name": "",
          "type": "uint256"
        }
      ],
      "stateMutability": "view",
      "type": "function"
    },
    {
      "inputs": [],
      "name": "purchaseTokenAmount",
      "outputs": [
        {
          "internalType": "uint256",
          "name": "",
          "type": "uint256"
        }
      ],
      "stateMutability": "view",
      "type": "function"
    },
    {
      "inputs": [],
      "name": "tokenVaultWalletAddress",
      "outputs": [
        {
          "internalType": "address",
          "name": "",
          "type": "address"
        }
      ],
      "stateMutability": "view",
      "type": "function"
    },
    {
      "inputs": [
        {
          "internalType": "string",
          "name": "musicName",
          "type": "string"
        },
        {
          "internalType": "string",
          "name": "musicDescription",
          "type": "string"
        },
        {
          "internalType": "uint256",
          "name": "contentHash",
          "type": "uint256"
        },
        {
          "internalType": "uint256",
          "name": "purchaseFee",
          "type": "uint256"
        },
        {
          "internalType": "string",
          "name": "tokenURI",
          "type": "string"
        }
      ],
      "name": "uploadMusic",
      "outputs": [
        {
          "internalType": "uint256",
          "name": "",
          "type": "uint256"
        }
      ],
      "stateMutability": "nonpayable",
      "type": "function"
    },
    {
      "inputs": [],
      "name": "userNumber",
      "outputs": [
        {
          "internalType": "uint256",
          "name": "",
          "type": "uint256"
        }
      ],
      "stateMutability": "view",
      "type": "function"
    },
    {
      "inputs": [],
      "name": "vaultNFT",
      "outputs": [
        {
          "internalType": "contract IERC721",
          "name": "",
          "type": "address"
        }
      ],
      "stateMutability": "view",
      "type": "function"
    },
    {
      "inputs": [],
      "name": "vaultToken",
      "outputs": [
        {
          "internalType": "contract IERC20",
          "name": "",
          "type": "address"
        }
      ],
      "stateMutability": "view",
      "type": "function"
    },
    {
      "inputs": [
        {
          "internalType": "uint256",
          "name": "musicId",
          "type": "uint256"
        },
        {
          "internalType": "uint256",
          "name": "amount",
          "type": "uint256"
        }
      ],
      "name": "voteMusic",
      "outputs": [],
      "stateMutability": "nonpayable",
      "type": "function"
    }
  ],
  "bytecode": "0x6080604052600067ffffffffffffffff81111562000022576200002162000297565b5b604051908082528060200260200182016040528015620000515781602001602082028036833780820191505090505b50601190805190602001906200006992919062000226565b50600067ffffffffffffffff81111562000088576200008762000297565b5b604051908082528060200260200182016040528015620000b75781602001602082028036833780820191505090505b5060129080519060200190620000cf92919062000226565b5060006013556000601455348015620000e757600080fd5b50604051620056533803806200565383398181016040528101906200010d919062000330565b82828282828282600560006101000a81548173ffffffffffffffffffffffffffffffffffffffff021916908373ffffffffffffffffffffffffffffffffffffffff16021790555081600660006101000a81548173ffffffffffffffffffffffffffffffffffffffff021916908373ffffffffffffffffffffffffffffffffffffffff16021790555080600760006101000a81548173ffffffffffffffffffffffffffffffffffffffff021916908373ffffffffffffffffffffffffffffffffffffffff16021790555033600860006101000a81548173ffffffffffffffffffffffffffffffffffffffff021916908373ffffffffffffffffffffffffffffffffffffffff1602179055505050505050505050506200038c565b82805482825590600052602060002090810192821562000265579160200282015b828111156200026457825182559160200191906001019062000247565b5b50905062000274919062000278565b5090565b5b808211156200029357600081600090555060010162000279565b5090565b7f4e487b7100000000000000000000000000000000000000000000000000000000600052604160045260246000fd5b600080fd5b600073ffffffffffffffffffffffffffffffffffffffff82169050919050565b6000620002f882620002cb565b9050919050565b6200030a81620002eb565b81146200031657600080fd5b50565b6000815190506200032a81620002ff565b92915050565b6000806000606084860312156200034c576200034b620002c6565b5b60006200035c8682870162000319565b93505060206200036f8682870162000319565b9250506040620003828682870162000319565b9150509250925092565b6152b7806200039c6000396000f3fe608060405234801561001057600080fd5b506004361061023d5760003560e01c80639e94f6dd1161013b578063d3152dac116100b8578063e58ddcc21161007c578063e58ddcc2146107a9578063f0df0479146107d9578063f1104f36146107f7578063f23533e914610827578063fff6bb9b146108435761023d565b8063d3152dac146106d9578063d439f59f146106f7578063d4923d4e14610713578063d5eef6c114610743578063dad6f0dc146107795761023d565b8063bda235da116100ff578063bda235da14610623578063c6afec5c14610653578063c84852f21461065d578063d00deb511461068d578063d1963114146106a95761023d565b80639e94f6dd14610557578063a97060f514610575578063b2c6a855146105a5578063b872eb25146105d5578063bd3098ce146105f35761023d565b806330ba0f4d116101c95780636042c3c21161018d5780636042c3c21461049f57806362b744bd146104bb5780636961135c146104eb578063703bafd51461051b57806384dea1a1146105395761023d565b806330ba0f4d146103be5780633ba07043146103ee57806341406ead1461041e5780634930018714610451578063519cc0a7146104815761023d565b80631e68934a116102105780631e68934a146102de5780632102b6511461030e5780632b4e84131461033e5780632e66cbb01461035c5780632f945a5d1461038e5761023d565b806305c221cb146102425780631162087d14610272578063118f258d146102a2578063193e13fe146102c0575b600080fd5b61025c60048036038101906102579190613d26565b61085f565b6040516102699190613e1b565b60405180910390f35b61028c60048036038101906102879190613faf565b61095f565b604051610299919061408d565b60405180910390f35b6102aa610d33565b6040516102b7919061408d565b60405180910390f35b6102c8610dcb565b6040516102d5919061408d565b60405180910390f35b6102f860048036038101906102f391906140a8565b610dd1565b604051610305919061408d565b60405180910390f35b610328600480360381019061032391906140e8565b610e2d565b604051610335919061408d565b60405180910390f35b610346610e5e565b604051610353919061408d565b60405180910390f35b61037660048036038101906103719190613d26565b610e64565b60405161038593929190614137565b60405180910390f35b6103a860048036038101906103a3919061416e565b610eae565b6040516103b591906141c9565b60405180910390f35b6103d860048036038101906103d391906141e4565b610edd565b6040516103e5919061408d565b60405180910390f35b61040860048036038101906104039190613d26565b610f02565b604051610415919061408d565b60405180910390f35b61043860048036038101906104339190614224565b6110d7565b6040516104489493929190614251565b60405180910390f35b61046b60048036038101906104669190613d26565b611107565b6040516104789190613e1b565b60405180910390f35b610489611207565b60405161049691906142f5565b60405180910390f35b6104b960048036038101906104b491906140a8565b61122d565b005b6104d560048036038101906104d091906140a8565b611679565b6040516104e2919061408d565b60405180910390f35b61050560048036038101906105009190613d26565b6116a3565b60405161051291906141c9565b60405180910390f35b6105236116c3565b6040516105309190614331565b60405180910390f35b6105416116e9565b60405161054e919061436d565b60405180910390f35b61055f61170f565b60405161056c919061408d565b60405180910390f35b61058f600480360381019061058a9190614224565b611715565b60405161059c919061408d565b60405180910390f35b6105bf60048036038101906105ba91906140e8565b611730565b6040516105cc919061408d565b60405180910390f35b6105dd611761565b6040516105ea9190613e1b565b60405180910390f35b61060d6004803603810190610608919061416e565b611814565b60405161061a919061408d565b60405180910390f35b61063d60048036038101906106389190613d26565b6119ec565b60405161064a919061408d565b60405180910390f35b61065b611a37565b005b61067760048036038101906106729190613d26565b611d2e565b604051610684919061408d565b60405180910390f35b6106a760048036038101906106a29190613d26565b611d7a565b005b6106c360048036038101906106be91906141e4565b6120f3565b6040516106d0919061408d565b60405180910390f35b6106e1612118565b6040516106ee9190613e1b565b60405180910390f35b610711600480360381019061070c91906140a8565b6121cb565b005b61072d60048036038101906107289190613d26565b612643565b60405161073a919061408d565b60405180910390f35b61075d60048036038101906107589190614224565b61268e565b6040516107709796959493929190614407565b60405180910390f35b610793600480360381019061078e9190613d26565b612800565b6040516107a0919061408d565b60405180910390f35b6107c360048036038101906107be9190614224565b6128a3565b6040516107d091906141c9565b60405180910390f35b6107e16128c3565b6040516107ee9190614484565b60405180910390f35b610811600480360381019061080c9190613d26565b6128e9565b60405161081e919061408d565b60405180910390f35b610841600480360381019061083c91906140e8565b612935565b005b61085d600480360381019061085891906140a8565b612dbe565b005b6060600061086c836128e9565b905060008167ffffffffffffffff81111561088a57610889613e58565b5b6040519080825280602002602001820160405280156108b85781602001602082028036833780820191505090505b50905060005b8281101561095457600d60008673ffffffffffffffffffffffffffffffffffffffff1673ffffffffffffffffffffffffffffffffffffffff16815260200190815260200160002081815481106109175761091661449f565b5b90600052602060002001548282815181106109355761093461449f565b5b602002602001018181525050808061094c906144fd565b9150506108be565b508092505050919050565b6000600c600085815260200190815260200160002060009054906101000a900460ff16156109c2576040517f08c379a00000000000000000000000000000000000000000000000000000000081526004016109b990614591565b60405180910390fd5b600560009054906101000a900473ffffffffffffffffffffffffffffffffffffffff1673ffffffffffffffffffffffffffffffffffffffff166323b872dd33600860009054906101000a900473ffffffffffffffffffffffffffffffffffffffff16678ac7230489e800006040518463ffffffff1660e01b8152600401610a4b939291906145b1565b6020604051808303816000875af1158015610a6a573d6000803e3d6000fd5b505050506040513d601f19601f82011682018060405250810190610a8e9190614614565b506000600660009054906101000a900473ffffffffffffffffffffffffffffffffffffffff1673ffffffffffffffffffffffffffffffffffffffff1663d0def52133856040518363ffffffff1660e01b8152600401610aee929190614641565b6020604051808303816000875af1158015610b0d573d6000803e3d6000fd5b505050506040513d601f19601f82011682018060405250810190610b319190614686565b905080600960008381526020019081526020016000206000018190555086600960008381526020019081526020016000206001019081610b7191906148b5565b50336009600083815260200190815260200160002060020160006101000a81548173ffffffffffffffffffffffffffffffffffffffff021916908373ffffffffffffffffffffffffffffffffffffffff16021790555085600960008381526020019081526020016000206003019081610bea91906148b5565b50846009600083815260200190815260200160002060040181905550836009600083815260200190815260200160002060050181905550426009600083815260200190815260200160002060060181905550600b60003373ffffffffffffffffffffffffffffffffffffffff1673ffffffffffffffffffffffffffffffffffffffff1681526020019081526020016000208190806001815401808255809150506001900390600052602060002001600090919091909150556001600c600083815260200190815260200160002060006101000a81548160ff021916908315150217905550610cd73361341d565b803373ffffffffffffffffffffffffffffffffffffffff167f0ecceb572ba8105927655eabee2b476295f9e9f3ebc33a8b21c4f384b47a85c889604051610d1e9190614987565b60405180910390a38091505095945050505050565b6000600660009054906101000a900473ffffffffffffffffffffffffffffffffffffffff1673ffffffffffffffffffffffffffffffffffffffff1663f282a8e16040518163ffffffff1660e01b8152600401602060405180830381865afa158015610da2573d6000803e3d6000fd5b505050506040513d601f19601f82011682018060405250810190610dc69190614686565b905090565b60045481565b60008260066001846002610de591906149a9565b610def91906149eb565b600185610dfc91906149eb565b85610e0791906149a9565b610e1191906149a9565b610e1b9190614a4e565b610e2591906149a9565b905092915050565b600b6020528160005260406000208181548110610e4957600080fd5b90600052602060002001600091509150505481565b60015481565b60006020528060005260406000206000915090508060000154908060010154908060020160009054906101000a900473ffffffffffffffffffffffffffffffffffffffff16905083565b60106020528160005260406000206020528060005260406000206000915091509054906101000a900460ff1681565b600f602052816000526040600020602052806000526040600020600091509150505481565b60008073ffffffffffffffffffffffffffffffffffffffff166000808473ffffffffffffffffffffffffffffffffffffffff1673ffffffffffffffffffffffffffffffffffffffff16815260200190815260200160002060020160009054906101000a900473ffffffffffffffffffffffffffffffffffffffff1673ffffffffffffffffffffffffffffffffffffffff1603610fd3576040517f08c379a0000000000000000000000000000000000000000000000000000000008152600401610fca90614acb565b60405180910390fd5b600760009054906101000a900473ffffffffffffffffffffffffffffffffffffffff1673ffffffffffffffffffffffffffffffffffffffff16633ba070436000808573ffffffffffffffffffffffffffffffffffffffff1673ffffffffffffffffffffffffffffffffffffffff16815260200190815260200160002060020160009054906101000a900473ffffffffffffffffffffffffffffffffffffffff166040518263ffffffff1660e01b815260040161108f9190614484565b602060405180830381865afa1580156110ac573d6000803e3d6000fd5b505050506040513d601f19601f820116820180604052508101906110d09190614686565b9050919050565b600a6020528060005260406000206000915090508060000154908060010154908060020154908060030154905084565b6060600061111483611d2e565b905060008167ffffffffffffffff81111561113257611131613e58565b5b6040519080825280602002602001820160405280156111605781602001602082028036833780820191505090505b50905060005b828110156111fc57600b60008673ffffffffffffffffffffffffffffffffffffffff1673ffffffffffffffffffffffffffffffffffffffff16815260200190815260200160002081815481106111bf576111be61449f565b5b90600052602060002001548282815181106111dd576111dc61449f565b5b60200260200101818152505080806111f4906144fd565b915050611166565b508092505050919050565b600760009054906101000a900473ffffffffffffffffffffffffffffffffffffffff1681565b338160008111611272576040517f08c379a000000000000000000000000000000000000000000000000000000000815260040161126990614b37565b60405180910390fd5b61127b82612800565b8111156112bd576040517f08c379a00000000000000000000000000000000000000000000000000000000081526004016112b490614ba3565b60405180910390fd5b60006009600086815260200190815260200160002060020160009054906101000a900473ffffffffffffffffffffffffffffffffffffffff1690503373ffffffffffffffffffffffffffffffffffffffff168173ffffffffffffffffffffffffffffffffffffffff1603611366576040517f08c379a000000000000000000000000000000000000000000000000000000000815260040161135d90614c0f565b60405180910390fd5b6000600f600087815260200190815260200160002060003373ffffffffffffffffffffffffffffffffffffffff1673ffffffffffffffffffffffffffffffffffffffff16815260200190815260200160002054146113f9576040517f08c379a00000000000000000000000000000000000000000000000000000000081526004016113f090614c7b565b60405180910390fd5b600061140485611715565b9050600560009054906101000a900473ffffffffffffffffffffffffffffffffffffffff1673ffffffffffffffffffffffffffffffffffffffff166323b872dd3384846040518463ffffffff1660e01b8152600401611465939291906145b1565b6020604051808303816000875af1158015611484573d6000803e3d6000fd5b505050506040513d601f19601f820116820180604052508101906114a89190614614565b5060016000803373ffffffffffffffffffffffffffffffffffffffff1673ffffffffffffffffffffffffffffffffffffffff168152602001908152602001600020600101546114f791906149eb565b6000803373ffffffffffffffffffffffffffffffffffffffff1673ffffffffffffffffffffffffffffffffffffffff1681526020019081526020016000206001018190555084600f600088815260200190815260200160002060003373ffffffffffffffffffffffffffffffffffffffff1673ffffffffffffffffffffffffffffffffffffffff1681526020019081526020016000205461159891906149eb565b600f600088815260200190815260200160002060003373ffffffffffffffffffffffffffffffffffffffff1673ffffffffffffffffffffffffffffffffffffffff168152602001908152602001600020819055506115f78686836134e3565b6116028233876135e3565b61160b3361341d565b853373ffffffffffffffffffffffffffffffffffffffff167f8acc2ae1fb028a613ff1036318376cf40c2571f6b6b1303bfe7f3b166624683a600960008a815260200190815260200160002060010188604051611669929190614d1f565b60405180910390a3505050505050565b600061169b600960008581526020019081526020016000206005015483610dd1565b905092915050565b60026020528060005260406000206000915054906101000a900460ff1681565b600560009054906101000a900473ffffffffffffffffffffffffffffffffffffffff1681565b600660009054906101000a900473ffffffffffffffffffffffffffffffffffffffff1681565b60035481565b6000611729670de0b6b3a764000083610dd1565b9050919050565b600d602052816000526040600020818154811061174c57600080fd5b90600052602060002001600091509150505481565b606060128054905067ffffffffffffffff81111561178257611781613e58565b5b6040519080825280602002602001820160405280156117b05781602001602082028036833780820191505090505b50905060005b815181101561181057601281815481106117d3576117d261449f565b5b90600052602060002001548282815181106117f1576117f061449f565b5b6020026020010181815250508080611808906144fd565b9150506117b6565b5090565b60008073ffffffffffffffffffffffffffffffffffffffff166000808573ffffffffffffffffffffffffffffffffffffffff1673ffffffffffffffffffffffffffffffffffffffff16815260200190815260200160002060020160009054906101000a900473ffffffffffffffffffffffffffffffffffffffff1673ffffffffffffffffffffffffffffffffffffffff16036118e5576040517f08c379a00000000000000000000000000000000000000000000000000000000081526004016118dc90614acb565b60405180910390fd5b600760009054906101000a900473ffffffffffffffffffffffffffffffffffffffff1673ffffffffffffffffffffffffffffffffffffffff1663bd3098ce6000808673ffffffffffffffffffffffffffffffffffffffff1673ffffffffffffffffffffffffffffffffffffffff16815260200190815260200160002060020160009054906101000a900473ffffffffffffffffffffffffffffffffffffffff16846040518363ffffffff1660e01b81526004016119a3929190614d4f565b602060405180830381865afa1580156119c0573d6000803e3d6000fd5b505050506040513d601f19601f820116820180604052508101906119e49190614686565b905092915050565b60008060008373ffffffffffffffffffffffffffffffffffffffff1673ffffffffffffffffffffffffffffffffffffffff168152602001908152602001600020600001549050919050565b600073ffffffffffffffffffffffffffffffffffffffff166000803373ffffffffffffffffffffffffffffffffffffffff1673ffffffffffffffffffffffffffffffffffffffff16815260200190815260200160002060020160009054906101000a900473ffffffffffffffffffffffffffffffffffffffff1673ffffffffffffffffffffffffffffffffffffffff1614611b07576040517f08c379a0000000000000000000000000000000000000000000000000000000008152600401611afe90614dc4565b60405180910390fd5b6000600760009054906101000a900473ffffffffffffffffffffffffffffffffffffffff1673ffffffffffffffffffffffffffffffffffffffff16639c6bb5816040518163ffffffff1660e01b8152600401611b6290614e7c565b6020604051808303816000875af1158015611b81573d6000803e3d6000fd5b505050506040513d601f19601f82011682018060405250810190611ba59190614ec4565b9050806000803373ffffffffffffffffffffffffffffffffffffffff1673ffffffffffffffffffffffffffffffffffffffff16815260200190815260200160002060020160006101000a81548173ffffffffffffffffffffffffffffffffffffffff021916908373ffffffffffffffffffffffffffffffffffffffff160217905550600760009054906101000a900473ffffffffffffffffffffffffffffffffffffffff1673ffffffffffffffffffffffffffffffffffffffff1663ee1fe2ad82336040518363ffffffff1660e01b8152600401611c84929190614d4f565b6020604051808303816000875af1158015611ca3573d6000803e3d6000fd5b505050506040513d601f19601f82011682018060405250810190611cc79190614686565b50611cd13361341d565b8073ffffffffffffffffffffffffffffffffffffffff163373ffffffffffffffffffffffffffffffffffffffff167f0d68fa50baa20fc97722fa0c9c61448b2e300d82ddd9dd3bf38d3c9ada0f5bc160405160405180910390a350565b6000600b60008373ffffffffffffffffffffffffffffffffffffffff1673ffffffffffffffffffffffffffffffffffffffff168152602001908152602001600020805490509050919050565b60008060008373ffffffffffffffffffffffffffffffffffffffff1673ffffffffffffffffffffffffffffffffffffffff16815260200190815260200160002060020160009054906101000a900473ffffffffffffffffffffffffffffffffffffffff169050600073ffffffffffffffffffffffffffffffffffffffff168173ffffffffffffffffffffffffffffffffffffffff1603611e4f576040517f08c379a0000000000000000000000000000000000000000000000000000000008152600401611e4690614acb565b60405180910390fd5b601060008373ffffffffffffffffffffffffffffffffffffffff1673ffffffffffffffffffffffffffffffffffffffff16815260200190815260200160002060003373ffffffffffffffffffffffffffffffffffffffff1673ffffffffffffffffffffffffffffffffffffffff16815260200190815260200160002060009054906101000a900460ff16611f18576040517f08c379a0000000000000000000000000000000000000000000000000000000008152600401611f0f90614f3d565b60405180910390fd5b60008173ffffffffffffffffffffffffffffffffffffffff166370a08231336040518263ffffffff1660e01b8152600401611f539190614484565b602060405180830381865afa158015611f70573d6000803e3d6000fd5b505050506040513d601f19601f82011682018060405250810190611f949190614686565b14611fd4576040517f08c379a0000000000000000000000000000000000000000000000000000000008152600401611fcb90614fa9565b60405180910390fd5b600760009054906101000a900473ffffffffffffffffffffffffffffffffffffffff1673ffffffffffffffffffffffffffffffffffffffff1663ee1fe2ad82336040518363ffffffff1660e01b8152600401612031929190614d4f565b6020604051808303816000875af1158015612050573d6000803e3d6000fd5b505050506040513d601f19601f820116820180604052508101906120749190614686565b5061207e3361341d565b3373ffffffffffffffffffffffffffffffffffffffff168173ffffffffffffffffffffffffffffffffffffffff168373ffffffffffffffffffffffffffffffffffffffff167f2d4ac4df149678edffe3ce9e1623013a9b6ada2f8dced610de761b618fe997b160405160405180910390a45050565b600e602052816000526040600020602052806000526040600020600091509150505481565b606060118054905067ffffffffffffffff81111561213957612138613e58565b5b6040519080825280602002602001820160405280156121675781602001602082028036833780820191505090505b50905060005b81518110156121c7576011818154811061218a5761218961449f565b5b90600052602060002001548282815181106121a8576121a761449f565b5b60200260200101818152505080806121bf906144fd565b91505061216d565b5090565b3373ffffffffffffffffffffffffffffffffffffffff166009600084815260200190815260200160002060020160009054906101000a900473ffffffffffffffffffffffffffffffffffffffff1673ffffffffffffffffffffffffffffffffffffffff161461226f576040517f08c379a000000000000000000000000000000000000000000000000000000000815260040161226690615015565b60405180910390fd5b60008060003373ffffffffffffffffffffffffffffffffffffffff1673ffffffffffffffffffffffffffffffffffffffff16815260200190815260200160002060020160009054906101000a900473ffffffffffffffffffffffffffffffffffffffff169050600073ffffffffffffffffffffffffffffffffffffffff168173ffffffffffffffffffffffffffffffffffffffff1603612344576040517f08c379a000000000000000000000000000000000000000000000000000000000815260040161233b90615081565b60405180910390fd5b6000600760009054906101000a900473ffffffffffffffffffffffffffffffffffffffff1673ffffffffffffffffffffffffffffffffffffffff16633ba07043836040518263ffffffff1660e01b81526004016123a19190614484565b602060405180830381865afa1580156123be573d6000803e3d6000fd5b505050506040513d601f19601f820116820180604052508101906123e29190614686565b905060005b8181101561263c5760008373ffffffffffffffffffffffffffffffffffffffff16636352211e836040518263ffffffff1660e01b815260040161242a919061408d565b602060405180830381865afa158015612447573d6000803e3d6000fd5b505050506040513d601f19601f8201168201806040525081019061246b9190614ec4565b905084600760009054906101000a900473ffffffffffffffffffffffffffffffffffffffff1673ffffffffffffffffffffffffffffffffffffffff1663bd3098ce86846040518363ffffffff1660e01b81526004016124cb929190614d4f565b602060405180830381865afa1580156124e8573d6000803e3d6000fd5b505050506040513d601f19601f8201168201806040525081019061250c9190614686565b1115612628576000600e600088815260200190815260200160002060008373ffffffffffffffffffffffffffffffffffffffff1673ffffffffffffffffffffffffffffffffffffffff1681526020019081526020016000205403612627576001600e600088815260200190815260200160002060008373ffffffffffffffffffffffffffffffffffffffff1673ffffffffffffffffffffffffffffffffffffffff16815260200190815260200160002081905550600d60008273ffffffffffffffffffffffffffffffffffffffff1673ffffffffffffffffffffffffffffffffffffffff1681526020019081526020016000208690806001815401808255809150506001900390600052602060002001600090919091909150555b5b508080612634906144fd565b9150506123e7565b5050505050565b60008060008373ffffffffffffffffffffffffffffffffffffffff1673ffffffffffffffffffffffffffffffffffffffff168152602001908152602001600020600101549050919050565b60096020528060005260406000206000915090508060000154908060010180546126b7906146e2565b80601f01602080910402602001604051908101604052809291908181526020018280546126e3906146e2565b80156127305780601f1061270557610100808354040283529160200191612730565b820191906000526020600020905b81548152906001019060200180831161271357829003601f168201915b5050505050908060020160009054906101000a900473ffffffffffffffffffffffffffffffffffffffff169080600301805461276b906146e2565b80601f0160208091040260200160405190810160405280929190818152602001828054612797906146e2565b80156127e45780601f106127b9576101008083540402835291602001916127e4565b820191906000526020600020905b8154815290600101906020018083116127c757829003601f168201915b5050505050908060040154908060050154908060060154905087565b600060016000808473ffffffffffffffffffffffffffffffffffffffff1673ffffffffffffffffffffffffffffffffffffffff168152602001908152602001600020600101546000808573ffffffffffffffffffffffffffffffffffffffff1673ffffffffffffffffffffffffffffffffffffffff1681526020019081526020016000206000015461289291906149eb565b61289c91906149eb565b9050919050565b600c6020528060005260406000206000915054906101000a900460ff1681565b600860009054906101000a900473ffffffffffffffffffffffffffffffffffffffff1681565b6000600d60008373ffffffffffffffffffffffffffffffffffffffff1673ffffffffffffffffffffffffffffffffffffffff168152602001908152602001600020805490509050919050565b6129746040518060400160405280600b81526020017f626c6f636b6e756d2025640000000000000000000000000000000000000000008152504361379d565b6000601560003373ffffffffffffffffffffffffffffffffffffffff1673ffffffffffffffffffffffffffffffffffffffff168152602001908152602001600020541480612a0d575043601560003373ffffffffffffffffffffffffffffffffffffffff1673ffffffffffffffffffffffffffffffffffffffff168152602001908152602001600020546103e8612a0b91906149eb565b105b612a4c576040517f08c379a0000000000000000000000000000000000000000000000000000000008152600401612a43906150ed565b60405180910390fd5b60008060008473ffffffffffffffffffffffffffffffffffffffff1673ffffffffffffffffffffffffffffffffffffffff16815260200190815260200160002060020160009054906101000a900473ffffffffffffffffffffffffffffffffffffffff169050600073ffffffffffffffffffffffffffffffffffffffff168173ffffffffffffffffffffffffffffffffffffffff1614158015612b69575060008173ffffffffffffffffffffffffffffffffffffffff166370a08231336040518263ffffffff1660e01b8152600401612b259190614484565b602060405180830381865afa158015612b42573d6000803e3d6000fd5b505050506040513d601f19601f82011682018060405250810190612b669190614686565b14155b612ba8576040517f08c379a0000000000000000000000000000000000000000000000000000000008152600401612b9f90615159565b60405180910390fd5b670de0b6b3a7640000821015612bf3576040517f08c379a0000000000000000000000000000000000000000000000000000000008152600401612bea906151c5565b60405180910390fd5b43601560003373ffffffffffffffffffffffffffffffffffffffff1673ffffffffffffffffffffffffffffffffffffffff16815260200190815260200160002081905550600560009054906101000a900473ffffffffffffffffffffffffffffffffffffffff1673ffffffffffffffffffffffffffffffffffffffff166323b872dd3385856040518463ffffffff1660e01b8152600401612c96939291906145b1565b6020604051808303816000875af1158015612cb5573d6000803e3d6000fd5b505050506040513d601f19601f82011682018060405250810190612cd99190614614565b50600760009054906101000a900473ffffffffffffffffffffffffffffffffffffffff1673ffffffffffffffffffffffffffffffffffffffff1663bfaf80658233670de0b6b3a764000086612d2e9190614a4e565b6040518463ffffffff1660e01b8152600401612d4c939291906145b1565b600060405180830381600087803b158015612d6657600080fd5b505af1158015612d7a573d6000803e3d6000fd5b505050507f386bc05a2408454571efe4cbeeabd68940d5a301c55f31319f2b6aef331fedfc833384604051612db1939291906145b1565b60405180910390a1505050565b338160008111612e03576040517f08c379a0000000000000000000000000000000000000000000000000000000008152600401612dfa90614b37565b60405180910390fd5b612e0c82612800565b811115612e4e576040517f08c379a0000000000000000000000000000000000000000000000000000000008152600401612e4590614ba3565b60405180910390fd5b60006009600086815260200190815260200160002060020160009054906101000a900473ffffffffffffffffffffffffffffffffffffffff1690503373ffffffffffffffffffffffffffffffffffffffff168173ffffffffffffffffffffffffffffffffffffffff1603612ef7576040517f08c379a0000000000000000000000000000000000000000000000000000000008152600401612eee90614c0f565b60405180910390fd5b6000600e600087815260200190815260200160002060003373ffffffffffffffffffffffffffffffffffffffff1673ffffffffffffffffffffffffffffffffffffffff1681526020019081526020016000205414612f8a576040517f08c379a0000000000000000000000000000000000000000000000000000000008152600401612f8190615231565b60405180910390fd5b6000612fac600960008881526020019081526020016000206005015486610dd1565b9050600560009054906101000a900473ffffffffffffffffffffffffffffffffffffffff1673ffffffffffffffffffffffffffffffffffffffff166323b872dd33600660009054906101000a900473ffffffffffffffffffffffffffffffffffffffff1673ffffffffffffffffffffffffffffffffffffffff16636352211e8a6040518263ffffffff1660e01b8152600401613048919061408d565b602060405180830381865afa158015613065573d6000803e3d6000fd5b505050506040513d601f19601f820116820180604052508101906130899190614ec4565b846040518463ffffffff1660e01b81526004016130a8939291906145b1565b6020604051808303816000875af11580156130c7573d6000803e3d6000fd5b505050506040513d601f19601f820116820180604052508101906130eb9190614614565b5084600e600088815260200190815260200160002060003373ffffffffffffffffffffffffffffffffffffffff1673ffffffffffffffffffffffffffffffffffffffff16815260200190815260200160002081905550600d60003373ffffffffffffffffffffffffffffffffffffffff1673ffffffffffffffffffffffffffffffffffffffff168152602001908152602001600020869080600181540180825580915050600190039060005260206000200160009091909190915055846000803373ffffffffffffffffffffffffffffffffffffffff1673ffffffffffffffffffffffffffffffffffffffff168152602001908152602001600020600001546131f491906149eb565b6000803373ffffffffffffffffffffffffffffffffffffffff1673ffffffffffffffffffffffffffffffffffffffff1681526020019081526020016000206000018190555060016003600082825461324c91906149eb565b92505081905550806004600082825461326591906149eb565b92505081905550601060008373ffffffffffffffffffffffffffffffffffffffff1673ffffffffffffffffffffffffffffffffffffffff16815260200190815260200160002060003373ffffffffffffffffffffffffffffffffffffffff1673ffffffffffffffffffffffffffffffffffffffff16815260200190815260200160002060009054906101000a900460ff16613390576001601060008473ffffffffffffffffffffffffffffffffffffffff1673ffffffffffffffffffffffffffffffffffffffff16815260200190815260200160002060003373ffffffffffffffffffffffffffffffffffffffff1673ffffffffffffffffffffffffffffffffffffffff16815260200190815260200160002060006101000a81548160ff0219169083151502179055505b61339b868683613839565b6133a68233876135e3565b6133af3361341d565b853373ffffffffffffffffffffffffffffffffffffffff167f2b07b9c0bc5f1fa9f7d65d82a7d198493b83030602e457c6a8c2d4efb15afb47600960008a81526020019081526020016000206001018860405161340d929190614d1f565b60405180910390a3505050505050565b600260008273ffffffffffffffffffffffffffffffffffffffff1673ffffffffffffffffffffffffffffffffffffffff16815260200190815260200160002060009054906101000a900460ff166134e0576001600260008373ffffffffffffffffffffffffffffffffffffffff1673ffffffffffffffffffffffffffffffffffffffff16815260200190815260200160002060006101000a81548160ff02191690831515021790555060018060008282546134d891906149eb565b925050819055505b50565b81600a6000858152602001908152602001600020600201600082825461350991906149eb565b9250508190555080600a6000858152602001908152602001600020600301600082825461353691906149eb565b9250508190555061354683613939565b6135de57600a60128054905010156135b25760128390806001815401808255809150506001900390600052602060002001600090919091909150557febb0c46fb680bda53c10bc28da7323be87ac8dc5549662e61878be0d517ebe9e60405160405180910390a16135dd565b601454600a60008581526020019081526020016000206002015411156135dc576135db836139a1565b5b5b5b505050565b60008060008573ffffffffffffffffffffffffffffffffffffffff1673ffffffffffffffffffffffffffffffffffffffff16815260200190815260200160002060020160009054906101000a900473ffffffffffffffffffffffffffffffffffffffff169050600073ffffffffffffffffffffffffffffffffffffffff168173ffffffffffffffffffffffffffffffffffffffff1614158015613700575060008173ffffffffffffffffffffffffffffffffffffffff166370a08231856040518263ffffffff1660e01b81526004016136bc9190614484565b602060405180830381865afa1580156136d9573d6000803e3d6000fd5b505050506040513d601f19601f820116820180604052508101906136fd9190614686565b14155b1561379757600760009054906101000a900473ffffffffffffffffffffffffffffffffffffffff1673ffffffffffffffffffffffffffffffffffffffff1663bfaf80658285856040518463ffffffff1660e01b8152600401613764939291906145b1565b600060405180830381600087803b15801561377e57600080fd5b505af1158015613792573d6000803e3d6000fd5b505050505b50505050565b61383582826040516024016137b3929190615251565b6040516020818303038152906040527fb60e72cc000000000000000000000000000000000000000000000000000000007bffffffffffffffffffffffffffffffffffffffffffffffffffffffff19166020820180517bffffffffffffffffffffffffffffffffffffffffffffffffffffffff8381831617835250505050613ae2565b5050565b81600a6000858152602001908152602001600020600001600082825461385f91906149eb565b9250508190555080600a6000858152602001908152602001600020600101600082825461388c91906149eb565b9250508190555061389c83613b0b565b61393457600a60118054905010156139085760118390806001815401808255809150506001900390600052602060002001600090919091909150557febb0c46fb680bda53c10bc28da7323be87ac8dc5549662e61878be0d517ebe9e60405160405180910390a1613933565b601354600a60008581526020019081526020016000206000015411156139325761393183613b73565b5b5b5b505050565b60008060128054905090506000805b828110156139945784601282815481106139655761396461449f565b5b906000526020600020015403613981576001935050505061399c565b808061398c906144fd565b915050613948565b506000925050505b919050565b600060128054905090506000807fffffffffffffffffffffffffffffffffffffffffffffffffffffffffffffffff905060005b83811015613a665781600a6000601284815481106139f5576139f461449f565b5b90600052602060002001548152602001908152602001600020600201541015613a5357809250600a600060128381548110613a3357613a3261449f565b5b906000526020600020015481526020019081526020016000206002015491505b8080613a5e906144fd565b9150506139d4565b50600a600085815260200190815260200160002060020154811015613adc57806014819055508360128381548110613aa157613aa061449f565b5b90600052602060002001819055507febb0c46fb680bda53c10bc28da7323be87ac8dc5549662e61878be0d517ebe9e60405160405180910390a15b50505050565b60008151905060006a636f6e736f6c652e6c6f679050602083016000808483855afa5050505050565b60008060118054905090506000805b82811015613b66578460118281548110613b3757613b3661449f565b5b906000526020600020015403613b535760019350505050613b6e565b8080613b5e906144fd565b915050613b1a565b506000925050505b919050565b600060118054905090506000807fffffffffffffffffffffffffffffffffffffffffffffffffffffffffffffffff905060005b83811015613c385781600a600060118481548110613bc757613bc661449f565b5b90600052602060002001548152602001908152602001600020600001541015613c2557809250600a600060118381548110613c0557613c0461449f565b5b906000526020600020015481526020019081526020016000206000015491505b8080613c30906144fd565b915050613ba6565b50600a600085815260200190815260200160002060000154811015613cae57806013819055508360118381548110613c7357613c7261449f565b5b90600052602060002001819055507febb0c46fb680bda53c10bc28da7323be87ac8dc5549662e61878be0d517ebe9e60405160405180910390a15b50505050565b6000604051905090565b600080fd5b600080fd5b600073ffffffffffffffffffffffffffffffffffffffff82169050919050565b6000613cf382613cc8565b9050919050565b613d0381613ce8565b8114613d0e57600080fd5b50565b600081359050613d2081613cfa565b92915050565b600060208284031215613d3c57613d3b613cbe565b5b6000613d4a84828501613d11565b91505092915050565b600081519050919050565b600082825260208201905092915050565b6000819050602082019050919050565b6000819050919050565b613d9281613d7f565b82525050565b6000613da48383613d89565b60208301905092915050565b6000602082019050919050565b6000613dc882613d53565b613dd28185613d5e565b9350613ddd83613d6f565b8060005b83811015613e0e578151613df58882613d98565b9750613e0083613db0565b925050600181019050613de1565b5085935050505092915050565b60006020820190508181036000830152613e358184613dbd565b905092915050565b600080fd5b600080fd5b6000601f19601f8301169050919050565b7f4e487b7100000000000000000000000000000000000000000000000000000000600052604160045260246000fd5b613e9082613e47565b810181811067ffffffffffffffff82111715613eaf57613eae613e58565b5b80604052505050565b6000613ec2613cb4565b9050613ece8282613e87565b919050565b600067ffffffffffffffff821115613eee57613eed613e58565b5b613ef782613e47565b9050602081019050919050565b82818337600083830152505050565b6000613f26613f2184613ed3565b613eb8565b905082815260208101848484011115613f4257613f41613e42565b5b613f4d848285613f04565b509392505050565b600082601f830112613f6a57613f69613e3d565b5b8135613f7a848260208601613f13565b91505092915050565b613f8c81613d7f565b8114613f9757600080fd5b50565b600081359050613fa981613f83565b92915050565b600080600080600060a08688031215613fcb57613fca613cbe565b5b600086013567ffffffffffffffff811115613fe957613fe8613cc3565b5b613ff588828901613f55565b955050602086013567ffffffffffffffff81111561401657614015613cc3565b5b61402288828901613f55565b945050604061403388828901613f9a565b935050606061404488828901613f9a565b925050608086013567ffffffffffffffff81111561406557614064613cc3565b5b61407188828901613f55565b9150509295509295909350565b61408781613d7f565b82525050565b60006020820190506140a2600083018461407e565b92915050565b600080604083850312156140bf576140be613cbe565b5b60006140cd85828601613f9a565b92505060206140de85828601613f9a565b9150509250929050565b600080604083850312156140ff576140fe613cbe565b5b600061410d85828601613d11565b925050602061411e85828601613f9a565b9150509250929050565b61413181613ce8565b82525050565b600060608201905061414c600083018661407e565b614159602083018561407e565b6141666040830184614128565b949350505050565b6000806040838503121561418557614184613cbe565b5b600061419385828601613d11565b92505060206141a485828601613d11565b9150509250929050565b60008115159050919050565b6141c3816141ae565b82525050565b60006020820190506141de60008301846141ba565b92915050565b600080604083850312156141fb576141fa613cbe565b5b600061420985828601613f9a565b925050602061421a85828601613d11565b9150509250929050565b60006020828403121561423a57614239613cbe565b5b600061424884828501613f9a565b91505092915050565b6000608082019050614266600083018761407e565b614273602083018661407e565b614280604083018561407e565b61428d606083018461407e565b95945050505050565b6000819050919050565b60006142bb6142b66142b184613cc8565b614296565b613cc8565b9050919050565b60006142cd826142a0565b9050919050565b60006142df826142c2565b9050919050565b6142ef816142d4565b82525050565b600060208201905061430a60008301846142e6565b92915050565b600061431b826142c2565b9050919050565b61432b81614310565b82525050565b60006020820190506143466000830184614322565b92915050565b6000614357826142c2565b9050919050565b6143678161434c565b82525050565b6000602082019050614382600083018461435e565b92915050565b600081519050919050565b600082825260208201905092915050565b60005b838110156143c25780820151818401526020810190506143a7565b60008484015250505050565b60006143d982614388565b6143e38185614393565b93506143f38185602086016143a4565b6143fc81613e47565b840191505092915050565b600060e08201905061441c600083018a61407e565b818103602083015261442e81896143ce565b905061443d6040830188614128565b818103606083015261444f81876143ce565b905061445e608083018661407e565b61446b60a083018561407e565b61447860c083018461407e565b98975050505050505050565b60006020820190506144996000830184614128565b92915050565b7f4e487b7100000000000000000000000000000000000000000000000000000000600052603260045260246000fd5b7f4e487b7100000000000000000000000000000000000000000000000000000000600052601160045260246000fd5b600061450882613d7f565b91507fffffffffffffffffffffffffffffffffffffffffffffffffffffffffffffffff820361453a576145396144ce565b5b600182019050919050565b7f616c72656164792075706c6f6164656400000000000000000000000000000000600082015250565b600061457b601083614393565b915061458682614545565b602082019050919050565b600060208201905081810360008301526145aa8161456e565b9050919050565b60006060820190506145c66000830186614128565b6145d36020830185614128565b6145e0604083018461407e565b949350505050565b6145f1816141ae565b81146145fc57600080fd5b50565b60008151905061460e816145e8565b92915050565b60006020828403121561462a57614629613cbe565b5b6000614638848285016145ff565b91505092915050565b60006040820190506146566000830185614128565b818103602083015261466881846143ce565b90509392505050565b60008151905061468081613f83565b92915050565b60006020828403121561469c5761469b613cbe565b5b60006146aa84828501614671565b91505092915050565b7f4e487b7100000000000000000000000000000000000000000000000000000000600052602260045260246000fd5b600060028204905060018216806146fa57607f821691505b60208210810361470d5761470c6146b3565b5b50919050565b60008190508160005260206000209050919050565b60006020601f8301049050919050565b600082821b905092915050565b6000600883026147757fffffffffffffffffffffffffffffffffffffffffffffffffffffffffffffffff82614738565b61477f8683614738565b95508019841693508086168417925050509392505050565b60006147b26147ad6147a884613d7f565b614296565b613d7f565b9050919050565b6000819050919050565b6147cc83614797565b6147e06147d8826147b9565b848454614745565b825550505050565b600090565b6147f56147e8565b6148008184846147c3565b505050565b5b81811015614824576148196000826147ed565b600181019050614806565b5050565b601f8211156148695761483a81614713565b61484384614728565b81016020851015614852578190505b61486661485e85614728565b830182614805565b50505b505050565b600082821c905092915050565b600061488c6000198460080261486e565b1980831691505092915050565b60006148a5838361487b565b9150826002028217905092915050565b6148be82614388565b67ffffffffffffffff8111156148d7576148d6613e58565b5b6148e182546146e2565b6148ec828285614828565b600060209050601f83116001811461491f576000841561490d578287015190505b6149178582614899565b86555061497f565b601f19841661492d86614713565b60005b8281101561495557848901518255600182019150602085019450602081019050614930565b86831015614972578489015161496e601f89168261487b565b8355505b6001600288020188555050505b505050505050565b600060208201905081810360008301526149a181846143ce565b905092915050565b60006149b482613d7f565b91506149bf83613d7f565b92508282026149cd81613d7f565b915082820484148315176149e4576149e36144ce565b5b5092915050565b60006149f682613d7f565b9150614a0183613d7f565b9250828201905080821115614a1957614a186144ce565b5b92915050565b7f4e487b7100000000000000000000000000000000000000000000000000000000600052601260045260246000fd5b6000614a5982613d7f565b9150614a6483613d7f565b925082614a7457614a73614a1f565b5b828204905092915050565b7f6e6f2066616e636c756200000000000000000000000000000000000000000000600082015250565b6000614ab5600a83614393565b9150614ac082614a7f565b602082019050919050565b60006020820190508181036000830152614ae481614aa8565b9050919050565b7f696e76616c696420507572636861736520416d6f756e74000000000000000000600082015250565b6000614b21601783614393565b9150614b2c82614aeb565b602082019050919050565b60006020820190508181036000830152614b5081614b14565b9050919050565b7f616d6f756e742065786365656473206c696d6974000000000000000000000000600082015250565b6000614b8d601483614393565b9150614b9882614b57565b602082019050919050565b60006020820190508181036000830152614bbc81614b80565b9050919050565b7f6e6f7420666f7220617574686f72000000000000000000000000000000000000600082015250565b6000614bf9600e83614393565b9150614c0482614bc3565b602082019050919050565b60006020820190508181036000830152614c2881614bec565b9050919050565b7f6f6e6c7920566f7465204f6e6365000000000000000000000000000000000000600082015250565b6000614c65600e83614393565b9150614c7082614c2f565b602082019050919050565b60006020820190508181036000830152614c9481614c58565b9050919050565b60008154614ca8816146e2565b614cb28186614393565b94506001821660008114614ccd5760018114614ce357614d16565b60ff198316865281151560200286019350614d16565b614cec85614713565b60005b83811015614d0e57815481890152600182019150602081019050614cef565b808801955050505b50505092915050565b60006040820190508181036000830152614d398185614c9b565b9050614d48602083018461407e565b9392505050565b6000604082019050614d646000830185614128565b614d716020830184614128565b9392505050565b7f616c726561647920637265617465640000000000000000000000000000000000600082015250565b6000614dae600f83614393565b9150614db982614d78565b602082019050919050565b60006020820190508181036000830152614ddd81614da1565b9050919050565b7f46616e4e46540000000000000000000000000000000000000000000000000000600082015250565b6000614e1a600683614393565b9150614e2582614de4565b602082019050919050565b7f4654000000000000000000000000000000000000000000000000000000000000600082015250565b6000614e66600283614393565b9150614e7182614e30565b602082019050919050565b60006040820190508181036000830152614e9581614e0d565b90508181036020830152614ea881614e59565b9050919050565b600081519050614ebe81613cfa565b92915050565b600060208284031215614eda57614ed9613cbe565b5b6000614ee884828501614eaf565b91505092915050565b7f6e6f7420656c696769626c650000000000000000000000000000000000000000600082015250565b6000614f27600c83614393565b9150614f3282614ef1565b602082019050919050565b60006020820190508181036000830152614f5681614f1a565b9050919050565b7f616c72656164792066616e000000000000000000000000000000000000000000600082015250565b6000614f93600b83614393565b9150614f9e82614f5d565b602082019050919050565b60006020820190508181036000830152614fc281614f86565b9050919050565b7f617574686f722072657175697265640000000000000000000000000000000000600082015250565b6000614fff600f83614393565b915061500a82614fc9565b602082019050919050565b6000602082019050818103600083015261502e81614ff2565b9050919050565b7f6e6f2066616e20636c7562000000000000000000000000000000000000000000600082015250565b600061506b600b83614393565b915061507682615035565b602082019050919050565b6000602082019050818103600083015261509a8161505e565b9050919050565b7f646f6e6174696f6e20667265657a696e672074696d6500000000000000000000600082015250565b60006150d7601683614393565b91506150e2826150a1565b602082019050919050565b60006020820190508181036000830152615106816150ca565b9050919050565b7f66616e206e656564656400000000000000000000000000000000000000000000600082015250565b6000615143600a83614393565b915061514e8261510d565b602082019050919050565b6000602082019050818103600083015261517281615136565b9050919050565b7f756e7175616c696669656420616d6f756e740000000000000000000000000000600082015250565b60006151af601283614393565b91506151ba82615179565b602082019050919050565b600060208201905081810360008301526151de816151a2565b9050919050565b7f6f6e6c79205075726368617365204f6e63650000000000000000000000000000600082015250565b600061521b601283614393565b9150615226826151e5565b602082019050919050565b6000602082019050818103600083015261524a8161520e565b9050919050565b6000604082019050818103600083015261526b81856143ce565b905061527a602083018461407e565b939250505056fea2646970667358221220ce456cd4f56d14f38b4145510170b766af00a1bf0c1490655ecc44f2a1ff391064736f6c63430008120033",
  "linkReferences": {},
  "deployedLinkReferences": {}
}